:100000000C94FB000C9423010C9423010C94230109
:100010000C9423010C9423010C9423010C942301D0
:100020000C9423010C9423010C94080D0C94EE0EF7
:100030000C9423010C9423010C9423010C942301B0
:100040000C9423010C9423010C9423010C942301A0
:100050000C9423010C9423010C9423010C949A1307
:100060000C9423010C9452110C942C110C94230128
:100070000C9423010C9423010C9423010C94230170
:100080000C9423010C9423010C9423010C94230160
:100090000C9423010C9423010C9423010C94230150
:1000A0000C9423010C9423010C9423011E1C7C1C32
:1000B000461C2E1C8C1A8C1A191C8C1A191C8C1A92
:1000C000191C191C191C8C1A191C191C99129C1228
:1000D0008B128F129512BD12BD12BD12A012A41266
:1000E000A812AE12B212BD12B81200000000230016
:1000F000260029002C002F00080B0002020201003C
:10010000090400000102020000052400100105247A
:1001100001010104240206052406000107058103EC
:1001200010004009040100020A0000000705020255
:100130004000000705830240000004030904120187
:100140000002EF02014009127E00000101020301DA
:100150005A656E6472756D2053747564696F005AC8
:10016000445320536869667465722050726F0007AB
:100170000605040100080A0B0C0D0900000000240C
:100180000027002A002D0030000000000025002874
:10019000002B002E003100040404040403040502B3
:1001A0000202020403020202020606060606060412
:1001B00004020202040404080201104080401020DE
:1001C000408040800802040180402010020110801D
:1001D00010204040200000000200090F000003042E
:1001E00001000C0000000000000000000000000002
:1001F00000000000F71D11241FBECFEFDAE0DEBFC4
:10020000CDBF11E0A0E0B1E0E6E5F5E402C0059065
:100210000D92A639B107D9F729E0A6E9B1E001C0EE
:100220001D92A335B207E1F710E0CBEFD0E004C098
:100230002197FE010E94E61FCA3FD107C9F70E941D
:10024000E4130C94A9220C940000089580E090E03F
:10025000089580E090E0089580E00895FC01828197
:100260008F5BFB01808381E00895A8E5B3E07C917A
:10027000E0919B01F0919C01682F11968C91119750
:1002800012969C91099510925B03089598E088E17D
:100290000FB6F894A895809360000FBE909360000D
:1002A000FFCF83E00C94FE0C83E00E94B00D90E041
:1002B00008950F931F93CF93DF931F92CDB7DEB7AF
:1002C0008C01FC018485958597FF12C041E050E0C8
:1002D000BE016F5F7F4F82E00E94700E019719F49C
:1002E000898190E002C08FEF9FEFF80195878487A6
:1002F000F801848595850F90DF91CF911F910F9123
:100300000895CF93DF931F92CDB7DEB7FC018485AC
:10031000958597FD05C02FEF3FEF358724870FC0E8
:1003200041E050E0BE016F5F7F4F82E00E94700E9F
:10033000019719F4898190E002C08FEF9FEF0F9031
:10034000DF91CF910895FC018485958597FD06C0C6
:1003500082E00E949F0E90E00196089582E00E9444
:100360009F0E90E0089584E0E0E9F1E0DB01019068
:100370000D928A95E1F784E00895CF92DF92EF9293
:10038000FF920F931F93CF93DF93CDB7DEB7C45681
:10039000D1090FB6F894DEBF0FBECDBF6C01DB01F3
:1003A0009C919E5F9C93FE01319684E6DF011D9235
:1003B0008A95E9F788E089838BE08A8322E02C83A1
:1003C00091E09D839E8339E0398774E07A879E8728
:1003D0009F873A8B44E24B8B9C8B00E011E01E8B95
:1003E0000D8B89E0E82EF12CF88EEF8A998F3B8FE8
:1003F0007C8F2F8F98A353E059A387E08CA34DA344
:100400009EA318A70FA301E410E01AA709A786E08E
:100410008BA74CA72DA79EA79FA789AB4AAB2BAB59
:100420002CAB2DAB3FAB48AF59AF9AAF5BAF9CAF96
:100430002DAF9EAF21963FAF219722964FAF2297C7
:1004400023965FAF239724962FAF249725967FAFEF
:10045000259726969FAF269727969FAF2797289692
:100460009FAF28972A963FAF2A9745E02B964FAF2C
:100470002B972D962FAF2D9760E470E02F967FAFCE
:100480006EAF2F9763964FAF639785E264968FAFF9
:10049000649765969FAF659766969FAF66976796D8
:1004A0009FAF679768963FAF689769964FAF699718
:1004B0006B962FAF6B976D967FAF6EAF6D97A196D2
:1004C0004FAFA197A2968FAFA297A3969FAFA39786
:1004D000A4969FAFA497A5965FAFA597D601129655
:1004E0009C9112979B839B879F5F9A8F9D8F1396FA
:1004F0008C912C968FAF2C978F5F80686A968FAF08
:100500006A9744E650E0BF0180E00E94890DCC5913
:10051000DF4F0FB6F894DEBF0FBECDBFDF91CF9196
:100520001F910F91FF90EF90DF90CF900895EF9281
:10053000FF920F931F93CF93DF93CDB7DEB79C014C
:100540008B01EDB6FEB6892B09F456C06115710515
:1005500009F452C0CB01029663E070E00E94BE1F16
:10056000660F771F660F771F8DB79EB7861B970B99
:100570000FB6F8949EBF0FBE8DBF0196D901FC0146
:1005800034E00230110561F00330110591F00130C3
:100590001105D9F425E020832C912183128207C014
:1005A00026E020832C91218311962C9122831382A3
:1005B0001EC027E020832C91218311962C91119746
:1005C000228312962C91238312C030832C91218395
:1005D00011962C911197228312962C9112972383B6
:1005E00003501109139634960115110551F6E09147
:1005F0009901F0919A0109950FB6F894FEBE0FBECD
:10060000EDBE0FB6F894FEBE0FBEEDBEDF91CF91EA
:100610001F910F91FF90EF9008956F927F929F929C
:10062000AF92BF92CF92DF92EF92FF920F931F9300
:10063000CF93DF93CDB7DEB76C018B01EDB6FEB67D
:1006400080E090E00E94AB2020E030E040EE50E4FB
:100650000E9403200E94EC1F0E94752098012B5FCE
:100660003F4F620F731F8DB79EB7861B970B0FB658
:10067000F8949EBF0FBE8DBFEDB7FEB7319680EFE9
:10068000ADB7BEB711968C938CE681838EE18283E1
:1006900063E070E00115110509F44AC080E0AA2466
:1006A000A394B12C282F30E02017310708F040C068
:1006B00020E030E0912C922F482F50E04017510756
:1006C000A0F48F5F4C0D5D1DDA019C9197FF07C070
:1006D000A501022E01C0440F0A94EAF7942A2F5F65
:1006E0003F4F2730310539F797E09F01260F371F1D
:1006F000D9019C92DB0111963D016E0E7F1E992E51
:10070000482F50E0911007C0292F30E02F5F3F4F56
:10071000620F731FC7CF9A01291931092C0D3D1D96
:10072000D9012C912F77D3012D933D019A94EACFD3
:10073000DF01A60FB71F87EF8C936F5F7F4FCF014D
:100740000E9497020FB6F894FEBE0FBEEDBEDF9179
:10075000CF911F910F91FF90EF90DF90CF90BF90BE
:10076000AF909F907F906F900895CF93DF939C01FF
:10077000AB01C1ECD7E08B81B9018F5F0E94C10D45
:100780008B818F5FDF91CF910C94FE0CCF93DF9321
:1007900000D000D0CDB7DEB769837A838B839C838A
:1007A000CE0101960E9426120F900F900F900F908D
:1007B000DF91CF9108951F93CF93DF93EC01162F14
:1007C0000E944D1F181739F0612FCE01DF91CF9194
:1007D0001F910C94551FDF91CF911F910895682FA1
:1007E00080919D0190919E019C012F5F3F4F30931E
:1007F0009E0120939D010C94DB03EF92FF920F93D7
:100800001F93CF93DF9382E390E090939E018093B8
:100810009D01CDECD7E095EEE92E97E0F92E8E0103
:10082000F80182810E94EF030A5F1F4FF7E0053E47
:100830001F07B1F70DEC17E0F80180810E94EF036C
:100840000A5F1F4FE016F106B9F70DEC17E0F8014B
:1008500081810E94EF030A5F1F4FE016F106B9F78E
:1008600084E0E82EF12C8A81F81618F5F4E0FF9E5A
:1008700080011124EB81FC81E00FF11F80810E9437
:10088000EF03EB81FC81E00FF11F81810E94EF03F8
:10089000EB81FC81E00FF11F82810E94EF038B81CD
:1008A0009C81FC01E00FF11F83810E94EF03F39410
:1008B000DACFEA942696E110D5CFDF91CF911F9140
:1008C0000F91FF90EF9008950C944D1F6F927F92BF
:1008D0008F929F92AF92BF92CF92DF92EF92FF9250
:1008E0000F931F93CF93DF93CDB7DEB76DB67EB670
:1008F000EDECF7E000E010E0828194E0899F000DCC
:10090000111D11240D5F1F4F369687E0E53EF80755
:1009100099F758019FEFA91AB90AEDB7FEB7EA197E
:10092000FB090FB6F894FEBF0FBEEDBF8DB79EB7A3
:1009300001966C0186E0818346019FEF891A990A2E
:10094000E12CF12CE016F10659F0C701C2960E9485
:100950006404F40181934F01FFEFEF1AFF0AF2CF15
:10096000B501C6010E940D030FB6F8947EBE0FBEFE
:100970006DBEDF91CF911F910F91FF90EF90DF90AF
:10098000CF90BF90AF909F908F907F906F90089581
:10099000EF92FF920F931F93CF93DF93CDB7DEB704
:1009A0006F970FB6F894DEBF0FBECDBF84E089838A
:1009B0007E0182E0E80EF11C04E110E0C8010E9413
:1009C0006404F70181937F010F5F1F4F023311050C
:1009D000A9F76FE170E0CE0101960E940D036F96BA
:1009E0000FB6F894DEBF0FBECDBFDF91CF911F9140
:1009F0000F91FF90EF900895CF93DF93CDB7DEB7BF
:100A000063970FB6F894DEBF0FBECDBF89E0898330
:100A100086E08A836FE971E0CE010396FE01399684
:100A20009B01D90115964C91DC014D93CD01295EB6
:100A30003F4FAE17BF07A9F7CE010F96DB015296C5
:100A40002C912193695E7F4F8E179F07B9F7809194
:100A5000D2078F878091D807888B8091DE07898B9A
:100A60008091E4078A8B8FE090E00E9464048B8B76
:100A700063E170E0CE0101960E940D0363960FB60C
:100A8000F894DEBF0FBECDBFDF91CF910895EF92F6
:100A9000FF920F931F93CF93DF937C01CDECD7E0B0
:100AA00080E0288130E02F5F3F4FF701428150E026
:100AB0002417350769F529819381291329C081E01D
:100AC0009481911101C080E08D830FE911E0F8015C
:100AD00085818823B1F080818F709881891311C03E
:100AE0009181898198130DC06D81618B83850E94EE
:100AF000BE128D81F801828B80915D0381110E946D
:100B0000FC04095E1F4FF2E009321F0701F781E084
:100B1000269697E0C53ED90721F6DF91CF911F9128
:100B20000F91FF90EF90089590915B03913069F0E1
:100B300018F0923071F008958093580391E09093EB
:100B40005B03873F69F486E009C08093590392E014
:100B5000F6CF80935A03873FB1F384E00C943501BC
:100B60000895DF92EF92FF920F931F93CF93DF933D
:100B7000E82EC4E1D0E060E0CE010E94DB032196C4
:100B8000C11584E0D807B9F704E110E0C0E03EE603
:100B9000D32EDC0EC33020F0C53058F0C53021F024
:100BA000D0E022E0F22E08C0D2E098E0F92E69E011
:100BB00004C0D1E088E0F82E6BE080E1689FB001CE
:100BC00011246960C8010E94DB036D2DC8010196E4
:100BD0000E94DB0380E2D89FB0011124C801029675
:100BE0000E94DB036F2DC80103960E94DB036FE7B1
:100BF000C80104960E94DB03CF5F0B5F1F4FC63016
:100C000031F6C2E3D0E060E0CE010E94DB03219622
:100C1000C633D105C1F769E0CE010E94DB032196FE
:100C2000CA33D105C1F76EE68AE390E00E94DB0388
:100C30006FE68BE390E00E94DB0360E78CE390E0DB
:100C40000E94DB0361E78DE390E00E94DB036CE030
:100C50008FE090E00E94DB03E1100E944601DF91EB
:100C6000CF911F910F91FF90EF90DF9008958F9299
:100C70009F92AF92BF92CF92DF92EF92FF920F932B
:100C80001F93CF93DF93CDB7DEB7C254D1090FB610
:100C9000F894DEBF0FBECDBFF82E809133028823BB
:100CA00009F4CCC220912E0230912F0267EFF61288
:100CB0006CC210923302C901019690932F02809367
:100CC0002E020091290210912A02101611060CF032
:100CD000B5C280915E03843120F08D57823008F0D8
:100CE000ADC28FE089831A8262E070E0CE01019686
:100CF0000E940D0380915E038B3009F413C1A8F4A8
:100D0000853009F4EFC040F4833009F4C2C008F024
:100D1000C7C0813009F12EC2893009F4F2C008F051
:100D2000F5C0873009F47BC025C2803109F4B9C110
:100D300048F48D3009F44AC108F404C18E3009F436
:100D400011C118C28D3709F47DC08E3709F47EC0F9
:100D5000813109F00FC2DBC10A50110902301105BF
:100D600008F008C280935D03EE24E394F12C00E0C8
:100D700010E0C7010E946404882379F08D3251F09D
:100D80008F3541F0982F9F7D91549A3118F0805300
:100D90008A3010F411E001C001E07FEFE71AF70A92
:100DA0008FE0E816F10429F7112351F0011108C072
:100DB0007E01A5E3EA0EF11C670101E010E012C01C
:100DC0007FE5E72E73E0F72E01E010E0F701619177
:100DD0007F01C8010E94DB030F5F1F4F0F30110519
:100DE000A9F7E6CFC8010E946404D6018D936D0176
:100DF0000F5F1F4F0F301105A9F782E089838EE145
:100E00008A83FE013396CE014196D7012D917D0153
:100E100021938E179F07C9F760E170E073C101301D
:100E2000110509F0A7C188E0898382E08A8362E026
:100E300070E0CE0101960E940D036CE271E080E04B
:100E400090E05AC00130110509F46AC00230110562
:100E500009F090C110915F0381E0111101C080E0A1
:100E60000E94B105112309F485C180915D03882397
:100E700009F480C164EF71E080E090E00E945413B7
:100E80000E94C80464EF71E080E090E00E94541377
:100E90002DC00130110509F06DC10E94C80428C0A1
:100EA0000B30110519F00F311105D1F55EE5C52E96
:100EB00053E0D52E0D5E1F4F64E1E62EF12CE016B7
:100EC000F10671F1B2E3EB16F10428F4F601618149
:100ED000C7010E94DB03FFEFEF1AFF0A2FEFC21AD0
:100EE000D20AEDCF0130110509F044C10E94660419
:100EF00064EF71E080E090E00E9454130E94FC04D3
:100F000039C10130110509F035C1F8CF02301105A2
:100F100009F030C160915F038FE090E00E94DB0335
:100F20000E9446010330110509F024C1E0915F03DE
:100F300036E0E39FF0011124E353F84F8091600302
:100F40008083ACC00330110509F014C1E0915F0348
:100F500066E0E69FF0011124E353F84F80916003AF
:100F600081839CC00330110509F004C180915F03A7
:100F70003091600376E0879FC00111248353984F1E
:100F8000BC016E5F7F4FDC011396FB012081832F34
:100F900090E0422F50E041505109841795079CF48E
:100FA000ED91FC911197880F991F880F991FE80FF9
:100FB000F91FC480D580E680F780C082D182E282AA
:100FC000F3823F5FE2CF2150208368C007301105D4
:100FD00009F0D0C0C0905F03D12CF0906003BFEF48
:100FE000FB1231C026E02C9DC0012D9D900D1124D7
:100FF000FC01E353F84F4F01F28001E00F0D028333
:10100000F4E00F9F80011124C8010E947A215C0145
:10101000D40113968D909C901497A80144505109C7
:10102000B4010E94A0228114910419F0C4010E940D
:10103000122286E08C9DF0018D9DF00D1124E3536A
:10104000F84FB482A382B4E0FB9EC001112420912A
:10105000610336E03C9DF0013D9DF00D1124E3530A
:10106000F84FA381B481A80FB91F2C93209162037C
:10107000A381B481A80FB91F11962C93209163030B
:10108000A381B481A80FB91F12962C9320916403F9
:101090000380F481E02DE80FF91F23830E94FD03F4
:1010A00069C00130110509F065C089839FE0C92E30
:1010B000D12CEE24E394F12C30E1B32E87010F5FA5
:1010C0001F4FC6010E946404E1E0F0E0EC0FFD1F39
:1010D000EE0DFF1D80830433110550F4EFEFCE1A9F
:1010E000DE0AF1E0CF16F4E0DF0659F07801E6CF32
:1010F000B801CE0101960E940D03B98201E010E013
:10110000EDCFB801CE0101960E940D0333C0063029
:10111000110584F180915F0300916003809F80013D
:101120001124015F1F4F8EE5E82E83E0F82E680141
:101130008091610390E097012E55334028173907BD
:1011400088F4C11424E0D20630F4D70114966C91CF
:10115000C6010E94DB03BFEFCB1ADB0AEFEFEE1AEA
:10116000FE0AE6CF80916003080F111D0130144084
:1011700008F0D6CE8FE0898381E08A8362E070E058
:10118000CE0101960E940D0359C060EFF61609F4D6
:101190004FC080912D0290E08217930759F4F0928E
:1011A000300210922C0210922B0210922A021092FE
:1011B00029023EC082179307DCF59091300280919E
:1011C0003202981335C0E0912902F0912A02009171
:1011D0002B0210912C02E11574E0F7071CF5C801F1
:1011E00068E070E00E94D21F811103C0F0925C039E
:1011F00019C040915C0350E08150DA0102C0B595FE
:10120000A7958A95E2F7A0FF02C080E801C080E0C0
:10121000DF01A25ABC4F8F298C933196F0932A029A
:10122000E09329020F5F1F4F10932C0200932B02B3
:10123000C901019690932F0280932E02CE5BDF4F5F
:101240000FB6F894DEBF0FBECDBFDF91CF911F91D7
:101250000F91FF90EF90DF90CF90BF90AF909F9055
:101260008F90089580919D0190919E019C012F5F28
:101270003F4F30939E0120939D010C9464046D3F79
:10128000710538F46A3F710550F4683F710589F4BF
:1012900006C09B012E5F31092230310550F4DC017C
:1012A0008D919C91DC01ED91FC910190F081E02DFC
:1012B0000994089587FF0DC09CE0980F923048F084
:1012C000982F9B7F993F29F0803F08F4807F90E022
:1012D000089580E090E008959C018F7C803891050E
:1012E00061F0203D310549F081E0203E310539F0C3
:1012F000203C310521F080E0089581E008950895B3
:10130000DF92EF92FF920F931F93CF93DF930150E1
:10131000003108F04CC0603871050CF448C0613EE3
:101320007105ACF5122FD42EEB017C01DC019496F3
:101330008D919C919597602BDC01ED91FC91019032
:10134000F081E02D0995F70184A195A16D2D6F77AE
:10135000DC01ED91FC910190F081E02D0995BE0139
:101360006F7E603C710519F1F70184A195A1612F91
:101370006F77DC01ED91FC910190F081E02DDF9120
:10138000CF911F910F91FF90EF90DF9009949B01F7
:10139000285F31092830310550F48496DF91CF91D0
:1013A0001F910F91FF90EF90DF900C943F09DF9118
:1013B000CF911F910F91FF90EF90DF900895EF92E2
:1013C000FF920F931F93CF93DF9300D000D0CDB740
:1013D000DEB7FC0120813181203F310509F476C060
:1013E0007C01213F3105C8F4203B310591F150F4D7
:1013F0002039310591F1203A310579F12038310554
:1014000031F52BC0203D310541F1203E310509F475
:101410005FC0203C3105D9F420C0283F310509F4D4
:1014200057C040F4243F310508F452C0263F31052F
:1014300071F44EC02A3F310550F02D3F310508F4BC
:1014400047C02E5F31092230310508F441C010E059
:1014500043C00E94470581113DC0C7010E94780A20
:1014600011E08823C9F180910101882351F0F7012F
:10147000608171810281248143818AE898E00E9421
:10148000800980910001882339F1F70120813181A1
:1014900082818150822B4381948154E03595279538
:1014A0005A95E1F729838A834B839C838091C407F3
:1014B00044E050E0BE016F5F7F4F8F5F0E94C10D1F
:1014C0008091C4078F5F0E94FE0C06C011E004C02B
:1014D00010E0C9CF11E0C7CF812F0F900F900F9070
:1014E0000F90DF91CF911F910F91FF90EF90089592
:1014F0009F92AF92BF92CF92DF92EF92FF920F93A3
:101500001F93CF93DF93EC018DECC82E87E0D82E8C
:10151000BB24B39490E9E92EF12CD0925703C092EA
:101520005603F6018581882309F45CC0928000E0AF
:1015300010E0A12CA91409F455C0E0915603F091D4
:1015400057030380F481E02DE00FF11F2081422F2B
:101550004F7050E08A8190E0019748175907F1F5E4
:1015600091818B8198133AC0207F3281932F907F95
:10157000832F8F70488159814038510571F420398B
:1015800061F5307E303849F58F5F8A83903811F5E8
:1015900050935203409351030BC030E0421753075E
:1015A000E9F48F5F903889F4F0925203E09251038E
:1015B0009C819093550380935303838180935403BC
:1015C00081E593E00E94DF0909C0292F30E03983CB
:1015D00028838A8383818B8301C0B12CA3940C5F01
:1015E0001F4FA8CFF6E0CF0ED11C85EEC81687E0BE
:1015F000D80609F092CF8B2DDF91CF911F910F91DB
:10160000FF90EF90DF90CF90BF90AF909F900895A4
:10161000CF93DF9300D000D01F92CDB7DEB7282F35
:10162000207F30E03A8329838F708F5F8B836C83B8
:101630004D83CE0101960E944705CE0101960E947E
:10164000DF090F900F900F900F900F90DF91CF91C7
:1016500008951F93CF93DF93EC014C85442349F009
:101660004130B1F54F85698188810E94080B10E0F7
:101670001FC08F8181110FC08885882321F08130A0
:1016800039F51E850FC09E8511E01927911101C003
:101690008FE7482F09C08E858823D1F0198981E012
:1016A0001827198B11114FE7698188810E94080B57
:1016B0008B858F3F21F0612F0E94BE121A8B809183
:1016C0005D03882329F0DF91CF911F910C94FC04D6
:1016D000DF91CF911F91089540916C0750916D0754
:1016E00020916A0730916B0742175307B4F4909129
:1016F000E8009570E1F39091E80092FD19C08093A5
:10170000F10080916C0790916D0701968F73992776
:10171000892B19F48EEF8093E80080916C079091EB
:101720006D07019690936D0780936C0781E0089593
:1017300080E00895DF92EF92FF920F931F93CF9373
:10174000DF93D82EF92EE42E062F10E0C801019663
:10175000880F0E946C0B83E00E946C0BCD2DDF2D57
:101760000C0F1D1FC017D10789F0E7FE03C0FE0153
:10177000849101C088810E946C0BF82E80E00E9449
:101780006C0B8F2121968111EDCF01C081E0DF919B
:10179000CF911F910F91FF90EF90DF9008956150CE
:1017A00030F02091F100FC0120830196F8CF2898B9
:1017B00084E680936F070895CF92DF92EF92FF92B5
:1017C0000F931F93CF93DF936C017A018B01C0E0DD
:1017D000D0E0CE15DF0581F0D8016D918D01D601E5
:1017E000ED91FC910190F081E02DC6010995892BC6
:1017F00011F02196EECF7E01C701DF91CF911F91AD
:101800000F91FF90EF90DF90CF900895FC01538DE2
:10181000448D252F30E0842F90E0821B930B5417CA
:1018200010F0CF96089501970895FC01918D828D57
:10183000981761F0828DDF01A80FB11D5D968C9124
:10184000928D9F5F9F73928F90E008958FEF9FEF2F
:101850000895FC01918D828D981731F0828DE80FEB
:10186000F11D858D90E008958FEF9FEF0895FC01A5
:10187000918D228D892F90E0805C9F4F821B910972
:101880008F73992708958DEE97E00E94370C21E021
:10189000892B09F420E0822F0895FC01848DDF015B
:1018A000A80FB11DA35ABF4F2C91848D90E00196D3
:1018B0008F739927848FA689B7892C93A089B189C2
:1018C0008C9182748C93938D848D981306C00288BA
:1018D000F389E02D80818F7D80830895EF92FF92C0
:1018E0000F931F93CF93DF93EC0181E0888F9B8D43
:1018F0008C8D981305C0E889F989808185FD26C003
:10190000F62E0B8D10E00F5F1F4F0F731127E02E87
:101910008C8DE8120CC00FB607FCFACFE889F98964
:10192000808185FFF5CFCE010E944D0CF1CF8B8DCC
:10193000FE01E80FF11DE35AFF4FF0829FB7F894C4
:101940000B8FEA89FB898081806209C09FB7F89478
:10195000EE89FF896083E889F989808182748083B8
:101960009FBF81E090E0DF91CF911F910F91FF9099
:10197000EF900895CF93DF93EC01888D8823C9F011
:10198000EA89FB89808185FD05C0A889B9898C9188
:1019900086FD0FC00FB607FCF5CF808185FFF2CF23
:1019A000A889B9898C9185FFEDCFCE010E944D0C9D
:1019B000E7CFDF91CF91089580E090E0892B29F067
:1019C0000E94430C81110C9400000895CF93DF9383
:1019D0001F92CDB7DEB76983DC01ED91FC910280E7
:1019E000F381E02D41E050E0BE016F5F7F4F09952C
:1019F0000F90DF91CF9108950E949B228093E90080
:101A00008091F200882319F08AE38093E80008951A
:101A10001F920F920FB60F9211242F933F934F9363
:101A20005F936F937F938F939F93AF93BF93CF9366
:101A3000EF93FF93C091E1008091E100837F809359
:101A4000E100C3FF0FC01092E90081E08093EB003A
:101A50001092EC0082E38093ED001092980188E0F0
:101A60008093F000C2FF19C083E00E94FE0C8091B9
:101A70007007882339F08091700781508093700738
:101A8000882389F180916F07882339F080916F074F
:101A9000815080936F07882341F1C4FF10C080916B
:101AA000E2008E7E81608093E2008091E1008F7E73
:101AB0008093E100809196018E7E806111C0C0FF0D
:101AC00016C08091E2008E7E80618093E20080915A
:101AD000E1008E7E8093E100809196018E7E816090
:101AE0008093960104C05D9ACDCF289AD6CFFF91FE
:101AF000EF91CF91BF91AF919F918F917F916F9116
:101B00005F914F913F912F910F900FBE0F901F90BB
:101B10001895DF92EF92FF920F931F93CF93DF936D
:101B2000D82E8A017B01E40EF51EEB01CE15DF05F0
:101B300071F0D7FE03C0FE01849101C088810E942C
:101B40006C0B21968111F2CF8FEF9FEF01C0C8017E
:101B5000DF91CF911F910F91FF90EF90DF9008954B
:101B60002FB7F89487708093E9009091E800892F4F
:101B7000807295FF04C09091F20080E4891B2FBF12
:101B800008957F928F929F92AF92BF92CF92DF92F1
:101B9000EF92FF920F931F93CF93DF93C82E8B0189
:101BA0007A0180919801811103C08FEF9FEF74C07B
:101BB0008091960180FF05C08091E0008260809353
:101BC000E000CE2DDF2DD12C8AEFB82E8C2D877022
:101BD000982E8C2D8072882E8C2D8074782E9AE30E
:101BE000A92E209719F4DD2009F451C08C2D0E94F4
:101BF000B00D81110AC0BA94BB20B9F261E070E067
:101C000080E090E00E945413ECCF282F30E0C21700
:101C1000D3070CF48C2F9FB7F8949092E900209191
:101C2000E80025FF32C0282F30E0C21BD30B8820EC
:101C300029F08150A0F01092F100FBCFF801C7FE0F
:101C40000AC0815050F044914093F1003196F9CF91
:101C500041914093F1008150D8F7020F131FDD200E
:101C600019F0A092E8000AC08091E80085FD08C044
:101C7000A092E800DD24D394209739F0D12C05C040
:101C8000209719F47110A092E8009FBFAACF5D9829
:101C900084E680937007C701DF91CF911F910F9168
:101CA000FF90EF90DF90CF90BF90AF909F908F907C
:101CB0007F900895CF93DF93EC0180910D018823ED
:101CC00031F083E00E94C10D1816190634F081E04E
:101CD00090E09B838A8380E090E0DF91CF9108952C
:101CE00090919801992311F057FF03C08FEF9FEF58
:101CF00008959FB7F89487708093E9002091F200CF
:101D000030E0421753070CF49A01822FFB0144E69E
:101D1000815038F0289840936F075091F10051930B
:101D2000F7CF2115310521F08091F200882319F0B9
:101D30009FBFC90108958BE68093E800F9CF9FB754
:101D4000F89487708093E9008091F2009FBF089516
:101D50008091620781110DC082E080935E0784E06C
:101D600080935F07109261071092600781E0809373
:101D700062078EE597E008950F931F93CF93DF934B
:101D80001F92CDB7DEB782E0898342E450E068EF6E
:101D900070E080E80E94890D0E94A80EDC01129676
:101DA0000D911C9113970115110589F0D801ED9142
:101DB000FC910280F381E02DBE016F5F7F4FC8016F
:101DC000099597FD04C0F80100851185ECCF898144
:101DD0000F90DF91CF911F910F9108951F920F9255
:101DE0000FB60F921124CF92DF92EF92FF920F93D2
:101DF0001F932F933F934F935F936F937F938F9393
:101E00009F93AF93BF93EF93FF93CF93DF93CDB7A0
:101E1000DEB76C97DEBFCDBF1092E9008091E8007D
:101E200083FFFBC168E0CE0145960E94CF0B82EF95
:101E30008093E8008D8987FF05C09091E80090FFAE
:101E4000FCCF03C09EEF9093E800982F907609F0A6
:101E5000C6C09E894F89588D2F89F88C91110CC06E
:101E6000803829F4809197018093F10002C010928C
:101E7000F1001092F10045C1913051F4811141C13E
:101E80004130510509F03DC1809197018D7F0BC014
:101E9000933061F4811135C14130510509F031C1F0
:101EA000809197018260809397012BC1953049F40E
:101EB0008091E80080FFFCCF822F80688093E30050
:101EC00020C1963009F05EC00B8D1C8D22E010926F
:101ED000E90010926D0710926C07F21232C0109256
:101EE0006B0710926A070E94BC0E99E0BE016F5FFB
:101EF0007F4FDB01E92F1D92EA95E9F79983FA827A
:101F000091E09E8390EA98879AEF998720916C07D9
:101F100030916D07275F3F4F3C832B838D83109259
:101F2000E90010926D0710926C0710936B070093F5
:101F30006A0749E050E080E00E94890D0E94BC0ED3
:101F4000E0C010936B0700936A070E94A80EDC01A3
:101F500012960D911C9113970115110509F4BBC040
:101F6000D801ED91FC910480F581E02DBE016B5EFE
:101F70007F4FC8010995009709F0C7C0F801008597
:101F80001185EACF973009F445C1983021F481E0FA
:101F90008093F100B6C0993009F0B3C0837009F0A6
:101FA00039C1EFE0F1E081E031E096E320812111D9
:101FB00009C08EE78093EA001092EA008F8980932F
:101FC00098019FC08093E9003093EB00219120930A
:101FD000EC009093ED008F5F873041F7EACF8B8D57
:101FE0009C8D1092E90010926D0710926C079093EF
:101FF0006B0780936A07898D811153C08E899D89F3
:10200000913A49F4813209F005C147E050E066E0B9
:1020100071E080E0BBC0913209F0FCC0833269F40A
:102020008F89988DA0E0B0E0809302019093030126
:10203000A0930401B093050164C0803269F48091DB
:10204000E80082FFFCCF67E086E091E00E94CF0BC2
:102050008BEF8093E80055C0823209F052C08F891F
:1020600080930D01EEEFFFE7859194918B3F9C4D9E
:1020700019F0E0E0F8E002C0EEEFFAE0809106012E
:1020800090910701A0910801B0910901803B944013
:10209000A105B10509F09EC080910D0180FF79C0B6
:1020A00099C00E94A80EFC0102811381011511053F
:1020B00009F4B0C0D801ED91FC910190F081E02DC0
:1020C000BE016B5E7F4FC801099581111AC0F801EE
:1020D00000851185EBCFF1E0FF1609F44EC0F3E067
:1020E000FF1298C08F89882309F44AC0823089F48E
:1020F00040E86FE08FE591E00E949A0B882309F495
:1021000089C08EEF8093E80088C018161906CCF3BA
:1021100081C0813029F440E86EE080E591E0ECCFA9
:10212000833009F077C00E94A80EDC011296ED9072
:10213000FC9013978E010F5F1F4F6801E114F104AB
:1021400079F0D701ED91FC910680F781E02DB8017F
:10215000C7010995080F111DF701E084F184EECF46
:10216000D8011C92F60101900020E9F73197BF01D8
:102170006C197D0940E0C601BFCF6EE371E002C07B
:102180006AE371E0FB01449150E080E80E94890D10
:10219000B8CFEE3F2AE0F20751F080819181873776
:1021A000A7E79A0721F09093FF0A8093FE0A87E73A
:1021B00097E7918380838091600080936E079BE016
:1021C00088E10FB6F894A895809360000FBE9093B5
:1021D000600097CF808191818737974709F091CF31
:1021E000A8958091600088618093600080916E075F
:1021F00080936000EE3FBAE0FB0739F08091FE0A61
:102200009091FF0A918380837CCF1092FF0A1092F5
:10221000FE0A77CF81E28093EB006C960FB6F894BC
:10222000DEBF0FBECDBFDF91CF91FF91EF91BF9188
:10223000AF919F918F917F916F915F914F913F915E
:102240002F911F910F91FF90EF90DF90CF900F9003
:102250000FBE0F901F9018951F920F920FB60F92FE
:1022600011242F933F934F935F936F937F938F939B
:102270009F93AF93BF93EF93FF938DEE97E00E94F0
:102280004D0CFF91EF91BF91AF919F918F917F91F5
:102290006F915F914F913F912F910F900FBE0F90D3
:1022A0001F9018951F920F920FB60F9211242F9323
:1022B0008F939F93EF93FF93E091FD07F091FE07BB
:1022C0008081E0910308F091040882FD12C09081A2
:1022D000809106088F5F8F7320910708821751F055
:1022E000E0910608F0E0E351F84F958F80930608DF
:1022F00001C08081FF91EF919F918F912F910F905D
:102300000FBE0F901F9018953FB7F89480914B091E
:1023100090914C09A0914D09B0914E0926B5A89B0A
:1023200005C02F3F19F00196A11DB11D3FBFBA2F67
:10233000A92F982F8827820F911DA11DB11DBC01C7
:10234000CD0142E0660F771F881F991F4A95D1F78C
:102350000895009769F0FC0101900020E9F731979A
:10236000AF01481B590BBC0181E797E00C945A0E52
:1023700080E090E008958F929F92AF92BF920F936A
:102380001F93CF93DF93CDB7DEB7A1970FB6F89425
:10239000DEBF0FBECDBF19A2423008F44AE08E0165
:1023A0000F5D1F4F842E912CA12CB12CA5019401FF
:1023B0000E948D1FE62FB901CA0101501109EA30B0
:1023C00014F4E05D01C0E95CD801EC93232B242BCD
:1023D000252B61F7C8010E94A911A1960FB6F894A8
:1023E000DEBF0FBECDBFDF91CF911F910F91BF9088
:1023F000AF909F908F9008950C94A911DC01ED91FE
:10240000FC910190F081E02D0994EF92FF920F93DF
:102410001F93CF93DF937C01EA018A01060F171FF8
:102420000C171D0761F0D7018D919C916991DC011A
:10243000ED91FC910190F081E02D0995F1CFDF91B4
:10244000CF911F910F91FF90EF900895EF92FF921F
:102450000F931F93CF93DF93FC01C081CC2309F42A
:1024600046C07C01CF3021F4618170E000E009C0FA
:10247000C83070F0FC016181062F0F700F5F607F24
:1024800070E0238142818AE898E00E94800931C08F
:10249000C43078F1892B69F1C43019F0D0E0249769
:1024A00002C0C3E0D0E0CE010E947A218C01F70186
:1024B0008181C130D10561F09281F80180839183DF
:1024C000C230D10539F0F7018381F801828302C05F
:1024D000F80180830115110561F0A801BE018EEAA3
:1024E00098E00E940512C8010E94122202C080E0FA
:1024F00001C081E0DF91CF911F910F91FF90EF908C
:10250000089590E0FC013197EF30F105B0F5EA59FC
:10251000FF4F0C94E61F809180008F7703C080915D
:1025200080008F7D80938000089580918000877F58
:10253000F9CF84B58F7702C084B58F7D84BD0895AF
:10254000809190008F7707C0809190008F7D03C0AD
:1025500080919000877F8093900008958091C000C3
:102560008F7703C08091C0008F7D8093C000089555
:102570008091C200877F8093C20008951F93CF93FC
:10258000DF93282F30E0F901EB52FE4F8491F901DF
:10259000EA54FE4FD491F901E956FE4FC491CC2381
:1025A000C1F0162F81110E948112EC2FF0E0EE0F86
:1025B000FF1FE757FE4FA591B4919FB7F8941111F3
:1025C00004C08C91D095D82302C0EC91DE2BDC9313
:1025D0009FBFDF91CF911F910895CF93DF9390E03C
:1025E000FC01EA54FE4F2491FC01E956FE4F849110
:1025F000882361F190E0880F991FFC01E558FE4F98
:10260000C591D491FC01E757FE4FA591B49161119A
:1026100009C09FB7F8948881209582238883EC9124
:102620002E230BC0623061F49FB7F8948881322F5B
:10263000309583238883EC912E2B2C939FBF06C06B
:102640008FB7F894E8812E2B28838FBFDF91CF912D
:102650000895823108F08251E82FF0E0E159FE4FF1
:10266000E49180917B00E3FB222720F930E095E0A4
:10267000220F331F9A95E1F78F7D282B20937B0043
:10268000E770E064E0937C0080917A00806480933E
:102690007A0080917A0086FDFCCF809178002091AD
:1026A000790090E0922B08958F929F92AF92BF9203
:1026B000CF92DF92EF92FF926B017C010E94841116
:1026C0004B015C01C114D104E104F104F1F00E945A
:1026D0008411DC01CB0188199909AA09BB09883E3C
:1026E0009340A105B10570F321E0C21AD108E108B9
:1026F000F10888EE880E83E0981EA11CB11CC1145D
:10270000D104E104F10419F7DDCFFF90EF90DF90E1
:10271000CF90BF90AF909F908F9008952FB7F8946F
:1027200060914709709148098091490990914A093F
:102730002FBF08951F920F920FB60F9211242F935F
:102740003F938F939F93AF93BF938091470990914D
:102750004809A0914909B0914A093091460923E0FE
:10276000230F2D3720F40196A11DB11D05C026E8C9
:10277000230F0296A11DB11D20934609809347099E
:1027800090934809A0934909B0934A0980914B0955
:1027900090914C09A0914D09B0914E090196A11D4F
:1027A000B11D80934B0990934C09A0934D09B093B0
:1027B0004E09BF91AF919F918F913F912F910F90B3
:1027C0000FBE0F901F901895CF93DF93CDB7DEB754
:1027D0002A970FB6F894DEBF0FBECDBF789484B5AC
:1027E000826084BD84B5816084BD85B5826085BD0D
:1027F00085B5816085BD80916E00816080936E009B
:10280000109281008091810082608093810080918C
:10281000810081608093810080918000816080933D
:10282000800080919100826080939100809191005E
:1028300081608093910080919000816080939000EE
:102840008091C10084608093C1008091C10082604A
:102850008093C1008091C10081608093C10080910C
:10286000C30081608093C3008091C0008260809328
:10287000C0008091C20081608093C20080917A0084
:10288000846080937A0080917A00826080937A00DD
:1028900080917A00816080937A0080917A008068CC
:1028A00080937A00109298011092970110929601ED
:1028B0008091D70081608093D70080EA8093D80010
:1028C00089B5806189BD89B5826089BD09B400FE82
:1028D000FDCF61E070E080E090E00E9454138091B1
:1028E000D8008F7C80618093D8008091E000807F49
:1028F0008093E0008091E1008E7E8093E1008DE086
:102900008093E200559A209A60E971E080E090E0BF
:102910000E94541380E090E00E9464048E3129F0FC
:102920006EE180E090E00E94DB03E091AE08F09160
:10293000AF08A089B18982E08C93A485B5851C92EB
:10294000A685B7858FE38C93108EA489B58986E020
:102950008C93A289B3898C9180618C93A289B3896D
:102960008C9188608C93A289B3898C9180688C93B8
:102970000288F389E02D80818F7D80831092B008DA
:102980001092B2081092B1081092B9081092B808CB
:102990001092B7081092B6088FEF9FEF9093BB0884
:1029A0008093BA089093BD088093BC0810924409A4
:1029B0001092C1081092C0081092BF081092C2086D
:1029C0001092C3081092BE0887E992E0909399088C
:1029D000809398088CE68093320281E080932D02E8
:1029E00086EC93E090939C0180939B0185EB93E0B0
:1029F00090939A018093990160ED77E080E090E0F8
:102A00000E9454131092500368EC70E080E090E054
:102A10000E94541380E090E00E9464048F3F31F0E4
:102A20008FEF91E00E9464048F3F81F401E010E099
:102A300060E0C8010E94DB030F5F1F4F011524E017
:102A40001207B1F781E00E94B105D6C182E390E0A0
:102A500090939E0180939D01ADECEA2EA7E0FA2EA3
:102A6000B5EECB2EB7E0DB2E87010E943209D801EC
:102A700012968C93B4E08B9FC00111240E947A219E
:102A8000F801948383830A5F1F4FC016D10669F74C
:102A90000DEC17E00E943209D8018C930A5F1F4F9A
:102AA000C016D106B9F70DEC17E00E943209F80103
:102AB00081830A5F1F4FC016D106B9F7D70112965E
:102AC000CC90129713960D911C911497D12CCD1484
:102AD000B1F00E943209F80180830E943209D801C6
:102AE00011968C930E943209F80182830E94320968
:102AF000D80113968C93D3940C5F1F4FE8CFF70146
:102B00001582F6E0EF0EF11C25EEE21627E0F20644
:102B1000A9F684E190E090939E0180939D01EFE9F6
:102B2000EE2EE1E0FE2E8701812C912C54016624CB
:102B3000639477247A94FFE72F2E312C412C512C6B
:102B4000D82C0E943209D8018C930E943209F801D6
:102B5000818386820E943209D80112968C930E944A
:102B60003209F80183830E943209C82ED8011496D5
:102B70008C93149715966C92159712968C911297C8
:102B8000382F317017963C93179781FB222720F935
:102B900018962C931897482F4C7150E055954795EF
:102BA0005595479519964C931997807690E075E066
:102BB000959587957A95E1F71C968C931C971D96B1
:102BC0001C921D971E961C921E9750961C921E9248
:102BD0001F9751961C92519752961C9252973323ED
:102BE00029F0862D8227817051968C93B3E0DB16F5
:102BF00031F1BD1538F0E1E0DE1689F0F2E0DF16C4
:102C0000A9F006C024E0D216E1F035E0D316D9F0E1
:102C1000EEE0D8011A96EC931A97F7E00DC0E0E1C8
:102C2000D8011A96EC931A97F8E006C0EAE0D801AA
:102C30001A96EC931A97F9E01B96FC930BC0E5E10A
:102C400003C0E4E101C0E3E1D8011A96EC931A97BE
:102C50001B967C92D80113962C9130E0AFEFB3E035
:102C60000E94AF1FA20191010E94631FF801348BE3
:102C7000238B2C2D30E0AFEFB3E00E94AF1FA201F9
:102C800091010E94631FD80156963C932E9355974D
:102C90008BE491E00E94FC114AE0C501B4010E945E
:102CA000BB1183E591E00E94FC11F801658170E0A1
:102CB00080E090E04AE00E94BB118CE591E00E9428
:102CC000FC11D80112966C9170E080E090E04AE02F
:102CD0000E94BB1184E691E00E94FC11F80164851A
:102CE00070E080E090E04AE00E94BB118BE691E04A
:102CF0000E94FC11D80153966D917C91549780E00D
:102D000090E04AE00E94BB1187E791E00E94FC112D
:102D1000F8016589768980E090E04AE00E94BB1165
:102D200085E891E00E94A911095E1F4FFFEF8F1AFD
:102D30009F0AAF0ABF0A26E082169104A104B104DB
:102D400009F0FECE8FE090E00E946404182F83709B
:102D500080934F0361E084E00E94ED12812F817027
:102D600010FF05C010924B0380934D0305C081E016
:102D700080934B0310924D0360914B0360934E037D
:102D800060934C0384E00E94BE1212FB882780F9F6
:102D90008093010113FB112710F91093000168ECD7
:102DA00070E080E090E00E94541309E212E0D70145
:102DB00015968C9115978823B9F01C968C918823D1
:102DC00031F0833088F460E0F70182850BC062E067
:102DD000F70182850E94ED12D7011B968C918F3FDF
:102DE00019F061E00E94ED12F7E1EF0EF11C0E15F3
:102DF0001F05E9F60E94FC0481E080935003CC2477
:102E0000C394D12C30E8A32EB12C10915003112380
:102E100009F4F6C300E09FE9E92E91E0F92ED7010D
:102E200015968C911597882309F446C11C968C91B0
:102E3000813009F457C020F0823009F4BDC03CC194
:102E4000F701228530E0F901EB52FE4F8491F90140
:102E5000EA54FE4F9490F901E956FE4F8490882081
:102E600079F081110E948112E82DF0E0EE0FFF1F32
:102E7000E651FF4FA591B491EC91E92181E009F46D
:102E800080E08170982ED7011D968C91981651F094
:102E90000E948E1360933402709335028093360241
:102EA000909337020E948E13409034025090350266
:102EB0006090360270903702DC01CB0184199509CD
:102EC000A609B709C397A105B10540F0F7018685AA
:102ED000981621F09686C7010E94290BD7011D96EE
:102EE0009C92EAC0F70182850E9429139C01D701B8
:102EF00053964D905C9054974816590608F0DCC0E4
:102F00008091400290914102892B09F0D5C08091B7
:102F10003C0290913D02A0913E02B0913F0240914F
:102F200038025091390260913A0270913B02841B41
:102F3000950BA60BB70B8F3F9105A105B10508F0C6
:102F4000BBC0612C712CC901A0E0B0E09C01AD01B7
:102F50002419350946095709AFE7B0E00E94821FDE
:102F6000F7012589368940E050E0241935094609E2
:102F700057090E94631F29013A01D7011F968D91BD
:102F80009C9150978217930709F496C0F901E81BAA
:102F9000F90B329708F490C050963C932E931F97EC
:102FA00088E891E00E94FC11C301B20188279927AB
:102FB0004AE00E94BB1180C0D7011A968C910E94F2
:102FC00029134C01F701838994898815990568F5BF
:102FD0008091400290914102892B39F50E948E1315
:102FE00060933C0270933D0280933E0290933F02B7
:102FF000409038025090390260903A0270903B0243
:10300000DC01CB0184199509A609B709843691051D
:10301000A105B10508F450C0D70150969C928E923C
:103020001F97D0924102C09240028091400290913D
:103030004102009709F440C0F7012785308928151F
:10304000390510F4908A8786019690934102809307
:1030500040020E948E1340903C0250903D026090CE
:103060003E0270903F02DC01CB0184199509A6094C
:10307000B7094497A105B105F8F00E948E1360933B
:1030800038027093390280933A0290933B028CE8A5
:1030900091E00E94FC11D7011F966D917C91509791
:1030A00080E090E04AE00E94BB11C7010E94290B1A
:1030B00010924102109240020F5F063019F1033066
:1030C00069F018F40230C9F004C0043061F0053032
:1030D00079F084EEE82E81E0F82EA1CEBBEFEB2E46
:1030E000B1E0FB2E9CCEADECEA2EA1E0FA2E97CEFD
:1030F000F2E1EF2EF2E0FF2E92CEE6EBEE2EE1E0D3
:10310000FE2E8DCE1A865524539453E0852E912C95
:1031100060EF262E3090B008E0E1E31508F4FEC120
:103120008091AE089091AF08DC01ED91FC91008494
:10313000F185E02D0995892B09F4F0C18091AE0845
:103140009091AF08DC01ED91FC910284F385E02DB4
:1031500009957C018B7F893F09F4E0C18091B80813
:103160009091B908009709F0BAC02091450920FD57
:10317000B6C0E092B3080091B108802F0E945A09AE
:103180000E946C09882351F0E7FC08C00093B30843
:10319000E092B408D092B908C092B8080091B30880
:1031A000802F0E945A09813F910509F462C090F571
:1031B000803B910509F464C068F48039910509F4F5
:1031C0005FC0803A910509F45BC08038910509F031
:1031D000EBC056C0803D910509F44BC028F4803CFB
:1031E000910509F446C0E0C0803E910509F448C04D
:1031F000803F910509F0D8C0B092B708A092B608F8
:103200001092B1082092C4082091450921602093B2
:1032100045093AC0883F9105B9F040F4833F9105D4
:1032200041F170F1863F910579F0BEC08A3F91056A
:1032300008F4BAC08D3F910538F09C012E5F31092A
:103240002230310508F0B0C09093C1088093C008C7
:103250001092BF081092C2081092C30850924409FD
:103260001092B9081092B8081092B7081092B608D8
:103270002DC1E2E0F0E0F093B708E093B60804C097
:103280009092B7088092B6082091B8083091B9089A
:103290004091B6085091B70841505109241735079D
:1032A000B8F09093C1088093C0080F700F5F00932F
:1032B000BF088091B4088093C2081092C30810928E
:1032C000B9081092B8081092B7081092B6082AC030
:1032D0002F5F3F4F3093B9082093B8081FC1E7FE16
:1032E0006EC0970133272D3F31055CF42A3F31052D
:1032F0007CF4273F3105C9F0283F310509F05FC054
:1033000007C0A9014E5F51094230510508F057C06E
:103310003093C1082093C0081092C2081092C308CD
:103320001092BF0850924409D1C03091C408209136
:103330004509303F11F020FF37C0BC016F5F7F4F60
:103340007093B9086093B808FC01E657F74F37EF60
:1033500032AF80EF90E09093C1088093C00820FFC7
:1033600009C0E0919808F0919908309719F084EC21
:1033700098E009959091B8088091B9089093C20897
:103380008093C3081092BF08509244098091450968
:103390008E7F809345091092B9081092B808109258
:1033A000B7081092B60889C01092B9081092B808F0
:1033B0001092B7081092B6081092B108AFC02091D1
:1033C000B308FC01E657F74F203F21F02091450953
:1033D00020FF02C0E2AE01C0E1A66090B608709086
:1033E000B7089301215031098217930708F468C088
:1033F0000091B308003F21F08091450980FF10C083
:10340000E0919808F0919908309729F060E870E011
:1034100084EC98E009951092B9081092B8087EC023
:10342000802F0E945A097C019093C1088093C008A4
:103430000E946C09882331F0802F8F708F5F8093FA
:10344000BF0802C01092BF088091B4088093C208E0
:1034500093E06916710419F48091B50801C080E009
:103460008093C3081092B9081092B8081092B70858
:103470001092B60850924409A0EBEA16F104D1F07C
:1034800068F4E0E9EE16F104A9F0F0EAEF16F104B1
:1034900089F020E8E216F10481F40CC030EDE31667
:1034A000F10441F080EEE816F10421F090ECE91609
:1034B000F10419F40093B10809C01092B10806C0D4
:1034C00001969093B9088093B80828C08091C008ED
:1034D0009091C1088039910529F48091C30888230F
:1034E00009F447C28091C0089091C1089C012058FE
:1034F00031092136310508F041C22091BF0832164A
:1035000009F43CC2332009F439C2712C8091BE0801
:10351000982F917080FD55C1711012C210E001E02A
:103520008091420390914303A0914403B0914503DD
:1035300040914603509147036091480370914903BD
:10354000841B950BA60BB70B8F739927AA27BB2754
:10355000892B8A2B8B2B09F456C0809146039091BE
:103560004703A0914803B0914903880F991F880F22
:10357000991FFC01EE5BFD4F9080F180E28083801B
:10358000409142035091430360914403709145037D
:103590008091460390914703A0914803B09149035D
:1035A000481759076A077B07B9F080914603909145
:1035B0004703A0914803B09149030196A11DB11D95
:1035C0008F739927AA27BB278093460390934703BD
:1035D000A0934803B09349039E82FF82E8868986C0
:1035E000911079C08E8181119BCF9A859111A9C0CC
:1035F0001111A7C080914F038250823008F0A6C0FD
:103600000E94DC0C02CC8091C4070E949F0E88238C
:1036100009F45CC08091420390914303A09144035C
:10362000B09145030196A11DB11D2C013D01EFE3B1
:103630004E225524662477248091460390914703B7
:10364000A0914803B091490384159505A605B705D7
:1036500009F483CF8091C4070E949F0E44E050E09C
:10366000BE016F5F7F4F8091C4070E94700E049768
:103670000CF473CF8091420390914303A0914403D3
:10368000B0914503880F991F880F991FFC01EE5BCD
:10369000FD4F49815A816B817C81408351836283D4
:1036A00073834092420350924303609244037092AA
:1036B0004503D301C2010196A11DB11D2C013D019D
:1036C000FFE34F22552466247724B6CF812CE12CCA
:1036D000F12C912C55CF80913302811104C020EF41
:1036E000F2125DC203C030EFF31209C0009333023F
:1036F00010923002D0922F02C0922E0203C08F2D62
:103700000E9437068E2D0E943706882D0E943706AC
:1037100090914A0380913202981761F08F2D0E9498
:1037200094058FE0981631F08E2D0E949405882D17
:103730000E94940580913302811135C210924A0390
:1037400032C280914D0380934E0354CF0E948E135A
:103750000091E9071091EA072091EB073091EC07FF
:10376000011511052105310549F46093E5077093B2
:10377000E6078093E7079093E80717C24090E507B4
:103780005090E6076090E7077090E807AB01BC0136
:1037900044195509660977094017510762077307ED
:1037A00008F42ECFD901C801840D951DA61DB71DA3
:1037B0008093E5079093E607A093E707B093E807A7
:1037C000F4C1282F2E7F09F4A7CE6091C008709114
:1037D000C1089B012058310921363105F8F40091C8
:1037E000BF08301619F091E0311090E086958230D4
:1037F00031F0833041F0813009F08ECE06C099233C
:1038000009F48ACE02C0911187CE2091C30840915D
:10381000C2088AE898E00E9480097ECEFB01E05F42
:10382000F109E031F10508F077CEEA5AFF4F0C9428
:10383000E61F8EEA98E00E943F096ECE6091C208B2
:103840007091C3086138710510F060E870E044ECD5
:1038500058E08EEA98E00E9405125ECE0091C20800
:103860008091AE089091AF08DC01ED91FC91019040
:10387000F081E02D63EF09950F77602F70E0809164
:10388000AE089091AF080E94FE1146CEE090C308AA
:10389000B0E8EB9E700111248091C208E82A809163
:1038A000AE089091AF08DC01ED91FC910190F081A0
:1038B000E02D62EF09958091AE089091AF08B701B5
:1038C0006F777727DC01ED91FC910190F081E02D7D
:1038D00009958091AE089091AF08B701660F672FE8
:1038E000661F770B71956F777727DC01ED91FC915F
:1038F0000190F081E02D22C08091C2088770B0E174
:103900008B9FC00111240091C3080F70082B809178
:10391000AE089091AF08DC01ED91FC910190F0812F
:10392000E02D61EF09958091AE089091AF08DC0120
:10393000ED91FC910190F081E02D602F0995ECCD87
:103940008091C0089091C1089A8389838091BF08B3
:103950008B838091C2088C838091C3088D83CE01B4
:1039600001960E94DF09882309F4D4CBB1E0BA871D
:10397000D1CBB092C108A092C008B4CD813F9105CF
:10398000B1F5E0919A08F0919B080CC08B3F91052E
:1039900008F0E4C0833F910509F0C1C0E0919E08A2
:1039A000F0919F08309709F18091C20809951DC0D8
:1039B000813D910508F475C0803E910509F081C0F4
:1039C000E0919608F0919708309779F06091C308DC
:1039D0006F77A0E86A9FB00111248091C2088F77A9
:1039E000682B70528091BF080995712E8FCD823F50
:1039F000910508F07EC0803B910529F4E091900884
:103A0000F09191080BC0813B910508F041C08038CE
:103A1000910571F4E0918A08F0918B08309729F3B1
:103A20004091C3086091C2088091BF080995DDCF1D
:103A300081389105E8F4892BC1F28091450980FB1A
:103A4000772470F880FFD1CFE0919808F091990821
:103A5000309709F45BCD6091C2087091C30861385A
:103A6000710510F060E870E084EC98E009954ECDA7
:103A70008039910529F4E0918C08F0918D08CECF22
:103A8000803A9105D1F6E0918E08F0918F08C6CF6B
:103A9000803D910509F08CCFE0919408F091950854
:103AA00007C0803C910549F6E0919208F091930897
:103AB000309709F49ACF6091C2088091BF080995A8
:103AC00094CF803F910509F0B8CFE0919808F0912C
:103AD0009908309709F489CF6091C2087091C308A2
:103AE0006138710510F060E870E084EC98E00995A9
:103AF0007CCF8A3F910509F049CFE091A408F0916D
:103B0000A50808C0883F910509F097CFE091A20869
:103B1000F091A308309709F468CF099566CF833FE9
:103B20009105A0F4E0919C08F0919D08309709F46C
:103B30005CCF8091C3088F77B0E88B9FC0011124C0
:103B40002091C2082F77822B09954FCF863F910590
:103B5000C9F6E091A008F091A108DCCF8C3F910557
:103B600029F4E091A808F091A908D4CF8C3F9105E1
:103B700028F4E091A608F091A708CCCF8E3F9105DC
:103B800029F4E091AA08F091AB08C4CF8F3F9105CA
:103B900009F053CFE091AC08F091AD08BBCFCE0156
:103BA00006960E94261211E01DCD10914E038091C1
:103BB0004D0318130FC000914B0380914C038013E9
:103BC00006C0612F84E00E94BE1210934C03009344
:103BD0004E0316CD90914C03891312CD10914B03D7
:103BE000612F84E00E94BE1210934C0309CD109205
:103BF000F0071092EF0788EE93E0A0E0B0E080932A
:103C0000F1079093F207A093F307B093F4072FE125
:103C100031E03093EE072093ED072DEC30E0309348
:103C2000FA072093F9072CEC30E03093FC0720933F
:103C3000FB0728EC30E03093FE072093FD0729ECCA
:103C400030E0309300082093FF072AEC30E03093F7
:103C50000208209301082EEC30E0309304082093F2
:103C60000308109206081092070810920808109294
:103C70000908109274071092730780937507909348
:103C80007607A0937707B093780781E391E090934C
:103C90007207809371078FEF9FEF90937E07809359
:103CA0007D0782E08093C5078093C6078BEC97E081
:103CB0009093C8078093C7071092CA071092C9074C
:103CC00083E491E09093C2078093C10780E88093DA
:103CD000CB0781E88093CC070E94A80EFC012181CC
:103CE0008091C50790E0820F911D0897C4F5A281CD
:103CF000B381109729F481EC97E0938382830EC0FF
:103D000018968D919C911997009711F0DC01F8CFCE
:103D100081EC97E019969C938E93189780818093FD
:103D2000C30781818093C40790818091C607890F62
:103D3000808380E09091C507891788F4A091C70718
:103D4000B091C807A80FB11D9C91A181B0E0A25FFE
:103D5000BE4F9C9391819F5F91838F5FEBCF1092B9
:103D6000D1071092D0071092D7071092D607109261
:103D7000DD071092DC071092E3071092E20789E159
:103D800090E0A0E0B0E08093E9079093EA07A09369
:103D9000EB07B093EC078DEE97E09093AF0880931C
:103DA000AE081092B0081092B1081092B2081092AA
:103DB000B7081092B6081092B9081092B8088FEFA1
:103DC0009FEF9093BB088093BA089093BD088093AF
:103DD000BC0883E08093BE081092BF081092C1080F
:103DE0001092C0081092C2081092C30810924409A1
:103DF00080E8E4ECF8E0DF011D928A95E9F7809114
:103E000045098E7F8093450910928B0810928A088D
:103E100010928D0810928C0810928F0810928E08C4
:103E200010929108109290081092930810929208A4
:103E30001092950810929408109297081092960884
:103E4000109299081092980810929B0810929A0864
:103E500010929D0810929C0810929F0810929E0844
:103E60001092A1081092A0081092A3081092A20824
:103E70001092A5081092A4081092A7081092A60804
:103E80001092A9081092A8081092AB081092AA08E4
:103E90001092AD081092AC080895F999FECF92BD2A
:103EA00081BDF89A992780B50895262FF999FECFFC
:103EB0001FBA92BD81BD20BD0FB6F894FA9AF99A47
:103EC0000FBE01960895052E97FB1EF400940E94E4
:103ED0007A1F57FD07D00E948D1F07FC03D04EF4B8
:103EE0000C947A1F50954095309521953F4F4F4F38
:103EF0005F4F089590958095709561957F4F8F4F96
:103F00009F4F08950E94AF1FA59F900DB49F900DE5
:103F1000A49F800D911D11240895A1E21A2EAA1BC1
:103F2000BB1BFD010DC0AA1FBB1FEE1FFF1FA21769
:103F3000B307E407F50720F0A21BB30BE40BF50B66
:103F4000661F771F881F991F1A9469F760957095EF
:103F5000809590959B01AC01BD01CF010895A29F72
:103F6000B001B39FC001A39F700D811D1124911D4D
:103F7000B29F700D811D1124911D0895AA1BBB1BBA
:103F800051E107C0AA1FBB1FA617B70710F0A61B59
:103F9000B70B881F991F5A95A9F780959095BC017A
:103FA000CD01089597FB072E16F4009407D077FDF6
:103FB00009D00E94BE1F07FC05D03EF49095819564
:103FC0009F4F0895709561957F4F0895EE0FFF1FE5
:103FD0000590F491E02D09940E945B2190F09F37A9
:103FE00048F4911116F40C94742160E070E080E8BC
:103FF0009FE3089526F01B16611D711D811D0C9411
:10400000EE200C9409210E9417200C9428210E9474
:10401000212158F00E941A2140F029F45F3F29F035
:104020000C94E82051110C9474210C9417210E94D7
:10403000392168F39923B1F3552391F3951B550B5F
:10404000BB27AA2762177307840738F09F5F5F4F6B
:10405000220F331F441FAA1FA9F335D00E2E3AF0AA
:10406000E0E832D091505040E695001CCAF72BD0C2
:10407000FE2F29D0660F771F881FBB1F2617370713
:104080004807AB07B0E809F0BB0B802DBF01FF2745
:1040900093585F4F3AF09E3F510578F00C94E8201A
:1040A0000C9474215F3FE4F3983ED4F386957795A2
:1040B0006795B795F7959F5FC9F7880F911D9695FE
:1040C000879597F90895E1E0660F771F881FBB1F5A
:1040D000621773078407BA0720F0621B730B840B07
:1040E000BA0BEE1F88F7E09508950E947C20689433
:1040F000B1110C94742108950E94412188F09F57BA
:1041000098F0B92F9927B751B0F0E1F0660F771FFB
:10411000881F991F1AF0BA95C9F714C0B13091F0F1
:104120000E947321B1E008950C947321672F782FBA
:104130008827B85F39F0B93FCCF3869577956795B6
:10414000B395D9F73EF490958095709561957F4F22
:104150008F4F9F4F0895E89409C097FB3EF49095C8
:104160008095709561957F4F8F4F9F4F9923A9F050
:10417000F92F96E9BB279395F695879577956795DF
:10418000B795F111F8CFFAF4BB0F11F460FF1BC023
:104190006F5F7F4F8F4F9F4F16C0882311F096E9B6
:1041A00011C0772321F09EE8872F762F05C0662364
:1041B00071F096E8862F70E060E02AF09A95660F1D
:1041C000771F881FDAF7880F9695879597F90895D6
:1041D00097F99F6780E870E060E00895882371F4A4
:1041E000772321F09850872B762F07C0662311F490
:1041F00099270DC09051862B70E060E02AF09A95C7
:10420000660F771F881FDAF7880F9695879597F9BD
:1042100008959F3F31F0915020F4879577956795E9
:10422000B795880F911D9695879597F908959FEFFB
:1042300080EC089500240A9416161706180609063D
:10424000089500240A94121613061406050608950C
:10425000092E0394000C11F4882352F0BB0F40F494
:10426000BF2B11F460FF04C06F5F7F4F8F4F9F4FD4
:10427000089557FD9058440F551F59F05F3F71F056
:104280004795880F97FB991F61F09F3F79F08795BD
:104290000895121613061406551FF2CF4695F1DF46
:1042A00008C0161617061806991FF1CF86957105D6
:1042B0006105089408950E944121A0F0BEE7B91756
:1042C00088F4BB279F3860F41616B11D672F782F2E
:1042D0008827985FF7CF869577956795B11D939559
:1042E0009639C8F30895E894BB2766277727CB0152
:1042F00097F908950F931F93CF93DF938230910521
:1043000010F482E090E0E0915109F091520920E030
:1043100030E0A0E0B0E0309719F140815181028196
:10432000138148175907C8F08417950769F4109747
:1043300031F012960C93129713961C9327C000939A
:1043400051091093520922C02115310519F0421765
:10435000530718F49A01BD01EF01DF01F801DBCF2B
:1043600021153105F9F0281B390B2430310580F473
:104370008A819B816115710521F0FB019383828302
:1043800004C09093520980935109FE01329644C0B3
:10439000FE01E20FF31F819391932250310939837B
:1043A00028833AC020914F0930915009232B41F4C2
:1043B00020911701309118013093500920934F0933
:1043C00020911501309116012115310541F42DB7C9
:1043D0003EB74091190150911A01241B350BE09111
:1043E0004F09F0915009E217F307A0F42E1B3F0B81
:1043F0002817390778F0AC014E5F5F4F2417350757
:1044000048F04E0F5F1F5093500940934F0981931E
:10441000919302C0E0E0F0E0CF01DF91CF911F91D6
:104420000F910895CF93DF93009709F481C0FC01A9
:10443000329713821282A0915109B09152091097BC
:1044400081F420813181820F931F20914F09309197
:1044500050092817390751F5F0935009E0934F0997
:1044600067C0ED0120E030E0CE17DF0740F44A815D
:104470005B819E0141155105F1F0EA01F5CFD3832F
:10448000C28340815181840F951FC817D90759F401
:1044900088819981840F951F0296918380838A81F8
:1044A0009B81938382832115310529F4F09352096E
:1044B000E09351093DC0E901FB83EA834991599199
:1044C000C40FD51FEC17FD0761F480819181840F23
:1044D000951F0296E90199838883828193819B834A
:1044E0008A83E0E0F0E012968D919C9113970097FB
:1044F00019F0FD01DC01F7CF8D919C9111979D0181
:104500002E5F3F4F820F931F20914F09309150092A
:104510002817390769F4309729F41092520910923C
:10452000510902C013821282B0935009A0934F091F
:10453000DF91CF91089581E090E0F8940C94A92246
:10454000FB01DC0102C001900D9241505040D8F7B0
:064550000895F894FFCF6E
:104556000101FFFFFFFF00E100000000000000C1B5
:104566008081000000000053092000000000006E5A
:104576000CDC0B060CBA0C370C150C290C000000D1
:1045860000E60C5A0E54015101A3018101590100A4
:104596000000002C01BD012901B301496E7075743C
:1045A600202300204163746976653A0020466C61D9
:1045B60067733A0020547970653A00205468726532
:1045C60073686F6C643A002053656E73697469761C
:1045D6006974793A000D0A00204320002054200017
:0645E6004D4944490000AC
:00000001FF
