:100000000C94FB000C9423010C9423010C94230109
:100010000C9423010C9423010C9423010C942301D0
:100020000C9423010C9423010C944D0D0C94330F6C
:100030000C9423010C9423010C9423010C942301B0
:100040000C9423010C9423010C9423010C942301A0
:100050000C9423010C9423010C9423010C9424147C
:100060000C9423010C9497110C9471110C9423019E
:100070000C9423010C9423010C9423010C94230170
:100080000C9423010C9423010C9423010C94230160
:100090000C9423010C9423010C9423010C94230150
:1000A0000C9423010C9423010C9423018B1BE91B5A
:1000B000B31B9B1BD71AD71A861BD71A861BD71AB6
:1000C000861B861B861BD71A861B861BFE120113F6
:1000D000F012F412FA122213221322130513091339
:1000E0000D131313171322131D1300000000230018
:1000F000260029002C002F00080B0002020201003C
:10010000090400000102020000052400100105247A
:1001100001010104240206052406000107058103EC
:1001200010004009040100020A0000000705020255
:100130004000000705830240000004030904120187
:100140000002EF02014009127E00000101020301DA
:100150005A656E6472756D2053747564696F005AC8
:10016000445320536869667465722050726F0007AB
:100170000605040100080A0B0C0D0900000000240C
:100180000027002A002D0030000000000025002874
:10019000002B002E003100040404040403040502B3
:1001A0000202020403020202020606060606060412
:1001B00004020202040404080201104080401020DE
:1001C000408040800802040180402010020110801D
:1001D00010204040200000000200090F000003042E
:1001E00001000C0000000000000000000000000002
:1001F00000000000411E11241FBECFEFDAE0DEBF79
:10020000CDBF12E0A0E0B1E0E8E7F5E402C0059060
:100210000D92A032B107D9F72AE0A0E2B2E001C006
:100220001D92A330B207E1F710E0CBEFD0E004C09D
:100230002197FE010E94F71FCA3FD107C9F70E940C
:100240006E140C94BA220C940000089580E090E0A3
:10025000089580E090E0089580E00895FC01828197
:100260008F5BFB01808381E00895A8E0B4E07C917E
:10027000E0912502F0912602682F11968C9111973A
:1002800012969C91099510920B04089598E088E1CC
:100290000FB6F894A895809360000FBE909360000D
:1002A000FFCF83E00C94430D83E00E94F50D90E0B6
:1002B00008950F931F93CF93DF931F92CDB7DEB7AF
:1002C0008C01FC018485958597FF12C041E050E0C8
:1002D000BE016F5F7F4F82E00E94B50E019719F457
:1002E000898190E002C08FEF9FEFF80195878487A6
:1002F000F801848595850F90DF91CF911F910F9123
:100300000895CF93DF931F92CDB7DEB7FC018485AC
:10031000958597FD05C02FEF3FEF358724870FC0E8
:1003200041E050E0BE016F5F7F4F82E00E94B50E5A
:10033000019719F4898190E002C08FEF9FEF0F9031
:10034000DF91CF910895FC018485958597FD06C0C6
:1003500082E00E94E40E90E00196089582E00E94FF
:10036000E40E90E0089584E0E0EDF1E0DB0101901F
:100370000D928A95E1F784E00895CF92DF92EF9293
:10038000FF920F931F93CF93DF93CDB7DEB7C45681
:10039000D1090FB6F894DEBF0FBECDBF6C01DB01F3
:1003A0009C919E5F9C93FE01319684E6DF011D9235
:1003B0008A95E9F788E089838BE08A8322E02C83A1
:1003C00091E09D839E8339E0398774E07A879E8728
:1003D0009F873A8B44E24B8B9C8B00E011E01E8B95
:1003E0000D8B89E0E82EF12CF88EEF8A998F3B8FE8
:1003F0007C8F2F8F98A353E059A387E08CA34DA344
:100400009EA318A70FA301E410E01AA709A786E08E
:100410008BA74CA72DA79EA79FA789AB4AAB2BAB59
:100420002CAB2DAB3FAB48AF59AF9AAF5BAF9CAF96
:100430002DAF9EAF21963FAF219722964FAF2297C7
:1004400023965FAF239724962FAF249725967FAFEF
:10045000259726969FAF269727969FAF2797289692
:100460009FAF28972A963FAF2A9745E02B964FAF2C
:100470002B972D962FAF2D9760E470E02F967FAFCE
:100480006EAF2F9763964FAF639785E264968FAFF9
:10049000649765969FAF659766969FAF66976796D8
:1004A0009FAF679768963FAF689769964FAF699718
:1004B0006B962FAF6B976D967FAF6EAF6D97A196D2
:1004C0004FAFA197A2968FAFA297A3969FAFA39786
:1004D000A4969FAFA497A5965FAFA597D601129655
:1004E0009C9112979B839B879F5F9A8F9D8F1396FA
:1004F0008C912C968FAF2C978F5F80686A968FAF08
:100500006A9744E650E0BF0180E00E94CE0DCC59CE
:10051000DF4F0FB6F894DEBF0FBECDBFDF91CF9196
:100520001F910F91FF90EF90DF90CF900895EF9281
:10053000FF920F931F93CF93DF93CDB7DEB79C014C
:100540008B01EDB6FEB6892B09F456C06115710515
:1005500009F452C0CB01029663E070E00E94AD1F27
:10056000660F771F660F771F8DB79EB7861B970B99
:100570000FB6F8949EBF0FBE8DBF0196D901FC0146
:1005800034E00230110561F00330110591F00130C3
:100590001105D9F425E020832C912183128207C014
:1005A00026E020832C91218311962C9122831382A3
:1005B0001EC027E020832C91218311962C91119746
:1005C000228312962C91238312C030832C91218395
:1005D00011962C911197228312962C9112972383B6
:1005E00003501109139634960115110551F6E09147
:1005F0002302F091240209950FB6F894FEBE0FBEB7
:10060000EDBE0FB6F894FEBE0FBEEDBEDF91CF91EA
:100610001F910F91FF90EF9008956F927F929F929C
:10062000AF92BF92CF92DF92EF92FF920F931F9300
:10063000CF93DF93CDB7DEB76C018B01EDB6FEB67D
:1006400080E090E00E94BC2020E030E040EE50E4EA
:100650000E9414200E94FD1F0E94862098012B5F9B
:100660003F4F620F731F8DB79EB7861B970B0FB658
:10067000F8949EBF0FBE8DBFEDB7FEB7319680EFE9
:10068000ADB7BEB711968C938CE681838EE18283E1
:1006900063E070E00115110509F44AC080E0AA2466
:1006A000A394B12C282F30E02017310708F040C068
:1006B00020E030E0912C922F482F50E04017510756
:1006C000A0F48F5F4C0D5D1DDA019C9197FF07C070
:1006D000A501022E01C0440F0A94EAF7942A2F5F65
:1006E0003F4F2730310539F797E09F01260F371F1D
:1006F000D9019C92DB0111963D016E0E7F1E992E51
:10070000482F50E0911007C0292F30E02F5F3F4F56
:10071000620F731FC7CF9A01291931092C0D3D1D96
:10072000D9012C912F77D3012D933D019A94EACFD3
:10073000DF01A60FB71F87EF8C936F5F7F4FCF014D
:100740000E9497020FB6F894FEBE0FBEEDBEDF9179
:10075000CF911F910F91FF90EF90DF90CF90BF90BE
:10076000AF909F907F906F900895CF93DF939C01FF
:10077000AB01C1E7D8E08B81B9018F5F0E94060E03
:100780008B818F5FDF91CF910C94430DCF93DF93DB
:1007900000D000D0CDB7DEB769837A838B839C838A
:1007A000CE0101960E948B120F900F900F900F9028
:1007B000DF91CF9108951F93CF93DF93EC01162F14
:1007C0000E94971F181739F0612FCE01DF91CF914A
:1007D0001F910C949F1FDF91CF911F910895682F57
:1007E00080912702909128029C012F5F3F4F309308
:1007F0002802209327020C94DB03EF92FF920F93C1
:100800001F93CF93DF9382E390E09093280280932D
:100810002702CDE7D8E095E9E92E98E0F92E8E0180
:10082000F80182810E94EF030A5F1F4FF8E005394B
:100830001F07B1F70DE718E0F80180810E94EF0370
:100840000A5F1F4FE016F106B9F70DE718E0F8014F
:1008500081810E94EF030A5F1F4FE016F106B9F78E
:1008600084E0E82EF12C8A81F81618F5F4E0FF9E5A
:1008700080011124EB81FC81E00FF11F80810E9437
:10088000EF03EB81FC81E00FF11F81810E94EF03F8
:10089000EB81FC81E00FF11F82810E94EF038B81CD
:1008A0009C81FC01E00FF11F83810E94EF03F39410
:1008B000DACFEA942696E110D5CFDF91CF911F9140
:1008C0000F91FF90EF9008950C94971F6F927F9275
:1008D0008F929F92AF92BF92CF92DF92EF92FF9250
:1008E0000F931F93CF93DF93CDB7DEB76DB67EB670
:1008F000EDE7F8E000E010E0828194E0899F000DD0
:10090000111D11240D5F1F4F369688E0E539F80759
:1009100099F758019FEFA91AB90AEDB7FEB7EA197E
:10092000FB090FB6F894FEBF0FBEEDBF8DB79EB7A3
:1009300001966C0186E0818346019FEF891A990A2E
:10094000E12CF12CE016F10659F0C701C2960E9485
:100950006404F40181934F01FFEFEF1AFF0AF2CF15
:10096000B501C6010E940D030FB6F8947EBE0FBEFE
:100970006DBEDF91CF911F910F91FF90EF90DF90AF
:10098000CF90BF90AF909F908F907F906F90089581
:10099000EF92FF920F931F93CF93DF93CDB7DEB704
:1009A0006F970FB6F894DEBF0FBECDBF84E089838A
:1009B0007E0182E0E80EF11C04E110E0C8010E9413
:1009C0006404F70181937F010F5F1F4F023311050C
:1009D000A9F76FE170E0CE0101960E940D036F96BA
:1009E0000FB6F894DEBF0FBECDBFDF91CF911F9140
:1009F0000F91FF90EF900895CF93DF93CDB7DEB7BF
:100A000063970FB6F894DEBF0FBECDBF89E0898330
:100A100086E08A8369E272E0CE010396FE01399690
:100A20009B01D90115964C91DC014D93CD01215EBE
:100A30003F4FAE17BF07A9F7CE010F96DB015296C5
:100A40002C912193615E7F4F8E179F07B9F780919C
:100A500082088F8780918808888B80918E08898B87
:100A6000809194088A8B8FE090E00E9464048B8BC5
:100A700063E170E0CE0101960E940D0363960FB60C
:100A8000F894DEBF0FBECDBFDF91CF910895EF92F6
:100A9000FF920F931F93CF93DF937C01CDE7D8E0B4
:100AA00080E0288130E02F5F3F4FF701428150E026
:100AB0002417350769F529819381291329C081E01D
:100AC0009481911101C080E08D8309E212E0F80168
:100AD00085818823B1F080818F709881891311C03E
:100AE0009181898198130DC06D81618B83850E94EE
:100AF00023138D81F801828B80910D0481110E9456
:100B0000FC04015E1F4FF2E0033E1F0701F781E086
:100B1000269698E0C539D90721F6DF91CF911F912C
:100B20000F91FF90EF90089590910B04913069F030
:100B300018F0923071F008958093080491E090933A
:100B40000B04873F69F486E009C08093090492E0B2
:100B5000F6CF80930A04873FB1F384E00C9435010B
:100B60000895EF92FF920F931F93CF93DF93F82E88
:100B7000C4E1D0E060E0CE010E94DB032196C11504
:100B800084E0D807B9F704E110E0C0E08EE6E82E73
:100B9000EC0EC33020F0C53038F0C53011F0D0E095
:100BA00004C0D2E069E002C0D1E06BE080E1689F60
:100BB000B00111246960C8010E94DB036E2DC801D9
:100BC00001960E94DB0380E2D89FB0011124C80186
:100BD00002960E94DB0360E0C80103960E94DB03DB
:100BE0006FE7C80104960E94DB03CF5F0B5F1F4FC6
:100BF000C63061F6C2E3D0E060E0CE010E94DB03C4
:100C00002196C633D105C1F769E0CE010E94DB030E
:100C10002196CA33D105C1F76EE68AE390E00E94BF
:100C2000DB036FE68BE390E00E94DB0360E78CE37D
:100C300090E00E94DB0361E78DE390E00E94DB031C
:100C40006CE08FE090E00E94DB03F1100E9446010F
:100C5000DF91CF911F910F91FF90EF9008958F92A8
:100C60009F92AF92BF92CF92DF92EF92FF920F933B
:100C70001F93CF93DF93CDB7DEB7C254D1090FB620
:100C8000F894DEBF0FBECDBFF82E8091ED02882311
:100C900009F4CCC22091E8023091E90267EFF61224
:100CA0006CC21092ED02C90101969093E902809303
:100CB000E8020091E3021091E402101611060CF014
:100CC000B5C280910E04843120F08D57823008F037
:100CD000ADC28FE089831A8262E070E0CE01019696
:100CE0000E940D0380910E048B3009F413C1A8F407
:100CF000853009F4EFC040F4833009F4C2C008F035
:100D0000C7C0813009F12EC2893009F4F2C008F061
:100D1000F5C0873009F47BC025C2803109F4B9C120
:100D200048F48D3009F44AC108F404C18E3009F446
:100D300011C118C28D3709F47DC08E3709F47EC009
:100D4000813109F00FC2DBC10A50110902301105CF
:100D500008F008C280930D04EE24E394F12C00E027
:100D600010E0C7010E946404882379F08D3251F0AD
:100D70008F3541F0982F9F7D91549A3118F0805310
:100D80008A3010F411E001C001E07FEFE71AF70AA2
:100D90008FE0E816F10429F7112351F0011108C082
:100DA0007E01A5E3EA0EF11C670101E010E012C02C
:100DB0007FE0E72E74E0F72E01E010E0F70161918B
:100DC0007F01C8010E94DB030F5F1F4F0F30110529
:100DD000A9F7E6CFC8010E946404D6018D936D0186
:100DE0000F5F1F4F0F301105A9F782E089838EE155
:100DF0008A83FE013396CE014196D7012D917D0164
:100E000021938E179F07C9F760E170E073C101302D
:100E1000110509F0A7C188E0898382E08A8362E036
:100E200070E0CE0101960E940D036CE271E080E05B
:100E300090E05AC00130110509F46AC00230110572
:100E400009F090C110910F0481E0111101C080E000
:100E50000E94B105112309F485C180910D048823F6
:100E600009F480C164EF71E080E090E00E94B91362
:100E70000E94C80464EF71E080E090E00E94B91322
:100E80002DC00130110509F06DC10E94C80428C0B1
:100E90000B30110519F00F311105D1F55EE0C52EAB
:100EA00054E0D52E0D5E1F4F64E1E62EF12CE016C6
:100EB000F10671F1B2E3EB16F10428F4F601618159
:100EC000C7010E94DB03FFEFEF1AFF0A2FEFC21AE0
:100ED000D20AEDCF0130110509F044C10E94660429
:100EE00064EF71E080E090E00E94B9130E94FC047E
:100EF00039C10130110509F035C1F8CF02301105B3
:100F000009F030C160910F048FE090E00E94DB0394
:100F10000E9446010330110509F024C1E0910F043D
:100F200036E0E39FF0011124E358F74F809110045D
:100F30008083ACC00330110509F014C1E0910F04A7
:100F400066E0E69FF0011124E358F74F809110040A
:100F500081839CC00330110509F004C180910F0406
:100F60003091100476E0879FC00111248358974F79
:100F7000BC016E5F7F4FDC011396FB012081832F44
:100F800090E0422F50E041505109841795079CF49E
:100F9000ED91FC911197880F991F880F991FE80F09
:100FA000F91FC480D580E680F780C082D182E282BA
:100FB000F3823F5FE2CF2150208368C007301105E4
:100FC00009F0D0C0C0900F04D12CF0901004BFEFF6
:100FD000FB1231C026E02C9DC0012D9D900D1124E7
:100FE000FC01E358F74F4F01F28001E00F0D02833F
:100FF000F4E00F9F80011124C8010E948B215C0145
:10100000D40113968D909C901497A80144505109D7
:10101000B4010E94B1228114910419F0C4010E940C
:10102000232286E08C9DF0018D9DF00D1124E35864
:10103000F74FB482A382B4E0FB9EC001112420913B
:10104000110436E03C9DF0013D9DF00D1124E35864
:10105000F74FA381B481A80FB91F2C9320911204DC
:10106000A381B481A80FB91F11962C93209113046A
:10107000A381B481A80FB91F12962C932091140458
:101080000380F481E02DE80FF91F23830E94FD0304
:1010900069C00130110509F065C089839FE0C92E40
:1010A000D12CEE24E394F12C30E1B32E87010F5FB5
:1010B0001F4FC6010E946404E1E0F0E0EC0FFD1F49
:1010C000EE0DFF1D80830433110550F4EFEFCE1AAF
:1010D000DE0AF1E0CF16F4E0DF0659F07801E6CF42
:1010E000B801CE0101960E940D03B98201E010E023
:1010F000EDCFB801CE0101960E940D0333C006303A
:10110000110584F180910F0400911004809F8001EB
:101110001124015F1F4F8EE0E82E84E0F82E680155
:101120008091110490E097012E5034402817390720
:1011300088F4C11424E0D20630F4D70114966C91DF
:10114000C6010E94DB03BFEFCB1ADB0AEFEFEE1AFA
:10115000FE0AE6CF80911004080F111D01301440E3
:1011600008F0D6CE8FE0898381E08A8362E070E068
:10117000CE0101960E940D0359C060EFF61609F4E6
:101180004FC08091E70290E08217930759F4F092E4
:10119000EA021092E6021092E5021092E402109226
:1011A000E3023EC082179307DCF59091EA0280913A
:1011B000EC02981335C0E091E302F091E402009153
:1011C000E5021091E602E11574E0F7071CF5C8018D
:1011D00068E070E00E94C11F811103C0F0920C040E
:1011E00019C040910C0450E08150DA0102C0B5955D
:1011F000A7958A95E2F7A0FF02C080E801C080E0D1
:10120000DF01A25FBB4F8F298C933196F093E402EC
:10121000E093E3020F5F1F4F1093E6020093E50295
:10122000C90101969093E9028093E802CE5BDF4FFB
:101230000FB6F894DEBF0FBECDBFDF91CF911F91E7
:101240000F91FF90EF90DF90CF90BF90AF909F9065
:101250008F900895CF93DF93EC0185ED91E00E948C
:10126000231288818F7090E00E9425128FED91E00B
:101270000E9423128881807F90E00E94251288EED0
:1012800091E00E9423128981DF91CF910C941C126E
:1012900080912702909128029C012F5F3F4F30934D
:1012A0002802209327020C9464046D3F710538F4E2
:1012B0006A3F710550F4683F710589F406C09B01CF
:1012C0002E5F31092230310550F4DC018D919C9163
:1012D000DC01ED91FC910190F081E02D09940895DD
:1012E00087FF0DC09CE0980F923048F0982F9B7FAD
:1012F000993F29F0803F08F4807F90E0089580E0D6
:1013000090E008959C018F7C8038910561F0203D2C
:10131000310549F081E0203E310539F0203C3105AE
:1013200021F080E0089581E008950895DF92EF9222
:10133000FF920F931F93CF93DF930150003108F07A
:101340004CC0603871050CF448C0613E7105ACF5C5
:10135000122FD42EEB017C01DC0194968D919C918F
:101360009597602BDC01ED91FC910190F081E02DCF
:101370000995F70184A195A16D2D6F77DC01ED91A1
:10138000FC910190F081E02D0995BE016F7E603CDB
:10139000710519F1F70184A195A1612F6F77DC0127
:1013A000ED91FC910190F081E02DDF91CF911F91A3
:1013B0000F91FF90EF90DF9009949B01285F310916
:1013C0002830310550F48496DF91CF911F910F9111
:1013D000FF90EF90DF900C945509DF91CF911F9112
:1013E0000F91FF90EF90DF900895EF92FF920F938F
:1013F0001F93CF93DF9300D000D0CDB7DEB7FC01B1
:1014000020813181203F310509F476C07C01213FE4
:101410003105C8F4203B310591F150F420393105F4
:1014200091F1203A310579F12038310531F52BC0A1
:10143000203D310541F1203E310509F45FC0203CDB
:101440003105D9F420C0283F310509F457C040F4D4
:10145000243F310508F452C0263F310571F44EC0D7
:101460002A3F310550F02D3F310508F447C02E5F6B
:1014700031092230310508F441C010E043C00E9418
:10148000470581113DC0C7010E948E0A11E08823E3
:10149000C9F180910101882351F0F70160817181C8
:1014A0000281248143818AE399E00E949609809118
:1014B0000001882339F1F701208131818281815037
:1014C000822B4381948154E0359527955A95E1F715
:1014D00029838A834B839C838091740844E050E085
:1014E000BE016F5F7F4F8F5F0E94060E8091740870
:1014F0008F5F0E94430D06C011E004C010E0C9CF09
:1015000011E0C7CF812F0F900F900F900F90DF91B8
:10151000CF911F910F91FF90EF9008959F92AF92FE
:10152000BF92CF92DF92EF92FF920F931F93CF93D0
:10153000DF93EC018DE7C82E88E0D82EBB24B3944E
:1015400090E9E92EF12CD0920704C0920604F6012E
:101550008581882309F45CC0928000E010E0A12C12
:10156000A91409F455C0E0910604F0910704038022
:10157000F481E02DE00FF11F2081422F4F7050E0E9
:101580008A8190E0019748175907F1F591818B8185
:1015900098133AC0207F3281932F907F832F8F70D2
:1015A000488159814038510571F4203961F5307E08
:1015B000303849F58F5F8A83903811F550930204D3
:1015C000409301040BC030E042175307E9F48F5FEA
:1015D000903889F4F0920204E09201049C81909387
:1015E00005048093030483818093040481E094E0E4
:1015F0000E94F50909C0292F30E0398328838A83A6
:1016000083818B8301C0B12CA3940C5F1F4FA8CFA3
:10161000F6E0CF0ED11C85E9C81688E0D80609F09F
:1016200092CF8B2DDF91CF911F910F91FF90EF9073
:10163000DF90CF90BF90AF909F900895FF920F934F
:101640001F93CF93DF9300D000D01F92CDB7DEB7AA
:101650008C01F62E80EF91E00E942312F801808128
:10166000807F90E00E9425128EEF91E00E9423126D
:10167000F80186810E941C128AE092E00E942312E7
:10168000F80180818F7090E00E94251287E192E03E
:101690000E9423128F2D0E941C1289E991E00E9462
:1016A000C911F8018081282F207F30E03A832983F7
:1016B0008F708F5F8B8381818C83FD82CE01019639
:1016C0000E944705CE0101960E94F5090F900F90E8
:1016D0000F900F900F90DF91CF911F910F91FF907E
:1016E00008951F93CF93DF93EC016C85662339F047
:1016F000613099F56F850E941E0B10E01EC08F812E
:1017000081110FC08885882321F0813031F51E8535
:101710000FC09E8511E01927911101C08FE7682F36
:1017200009C08E858823C9F0198981E01827198B93
:1017300011116FE7CE010E941E0B8B858F3F21F0A8
:10174000612F0E9423131A8B80910D04882329F0A6
:10175000DF91CF911F910C94FC04DF91CF911F91E9
:10176000089540911C0850911D0820911A0830914D
:101770001B0842175307B4F49091E8009570E1F309
:101780009091E80092FD19C08093F10080911C08AF
:1017900090911D0801968F739927892B19F48EEF6C
:1017A0008093E80080911C0890911D080196909309
:1017B0001D0880931C0881E0089580E00895DF9261
:1017C000EF92FF920F931F93CF93DF93D82EF92EB2
:1017D000E42E062F10E0C8010196880F0E94B10B7D
:1017E00083E00E94B10BCD2DDF2D0C0F1D1FC01704
:1017F000D10789F0E7FE03C0FE01849101C0888112
:101800000E94B10BF82E80E00E94B10B8F2121962F
:101810008111EDCF01C081E0DF91CF911F910F9138
:10182000FF90EF90DF900895615030F02091F1002B
:10183000FC0120830196F8CF289884E680931F0846
:101840000895CF92DF92EF92FF920F931F93CF9361
:10185000DF936C017A018B01C0E0D0E0CE15DF058B
:1018600081F0D8016D918D01D601ED91FC9101902F
:10187000F081E02DC6010995892B11F02196EECF5C
:101880007E01C701DF91CF911F910F91FF90EF90E3
:10189000DF90CF900895FC01538D448D252F30E0CB
:1018A000842F90E0821B930B541710F0CF9608956D
:1018B00001970895FC01918D828D981761F0828DBA
:1018C000DF01A80FB11D5D968C91928D9F5F9F7374
:1018D000928F90E008958FEF9FEF0895FC01918D16
:1018E000828D981731F0828DE80FF11D858D90E083
:1018F00008958FEF9FEF0895FC01918D228D892F20
:1019000090E0805C9F4F821B91098F739927089507
:101910008DE998E00E947C0C21E0892B09F420E0FD
:10192000822F0895FC01848DDF01A80FB11DA35AF9
:10193000BF4F2C91848D90E001968F739927848FEF
:10194000A689B7892C93A089B1898C9182748C93D4
:10195000938D848D981306C00288F389E02D8081D1
:101960008F7D80830895EF92FF920F931F93CF9303
:10197000DF93EC0181E0888F9B8D8C8D981305C0DF
:10198000E889F989808185FD26C0F62E0B8D10E04F
:101990000F5F1F4F0F731127E02E8C8DE8120CC0C4
:1019A0000FB607FCFACFE889F989808185FFF5CF6A
:1019B000CE010E94920CF1CF8B8DFE01E80FF11D3C
:1019C000E35AFF4FF0829FB7F8940B8FEA89FB89A7
:1019D0008081806209C09FB7F894EE89FF89608397
:1019E000E889F9898081827480839FBF81E090E0DB
:1019F000DF91CF911F910F91FF90EF900895CF93BA
:101A0000DF93EC01888D8823C9F0EA89FB89808106
:101A100085FD05C0A889B9898C9186FD0FC00FB6D8
:101A200007FCF5CF808185FFF2CFA889B9898C9119
:101A300085FFEDCFCE010E94920CE7CFDF91CF91D1
:101A4000089580E090E0892B29F00E94880C811194
:101A50000C9400000895CF93DF931F92CDB7DEB7AB
:101A60006983DC01ED91FC910280F381E02D41E07E
:101A700050E0BE016F5F7F4F09950F90DF91CF91CE
:101A800008950E94AC228093E9008091F20088239F
:101A900019F08AE38093E80008951F920F920FB621
:101AA0000F9211242F933F934F935F936F937F93E4
:101AB0008F939F93AF93BF93CF93EF93FF93C09177
:101AC000E1008091E100837F8093E100C3FF0FC0BC
:101AD0001092E90081E08093EB001092EC0082E329
:101AE0008093ED001092220288E08093F000C2FF04
:101AF00019C083E00E94430D80912008882339F0AB
:101B000080912008815080932008882389F180915A
:101B10001F08882339F080911F08815080931F0887
:101B2000882341F1C4FF10C08091E2008E7E816065
:101B30008093E2008091E1008F7E8093E1008091AC
:101B400020028E7E806111C0C0FF16C08091E2002D
:101B50008E7E80618093E2008091E1008E7E809392
:101B6000E100809120028E7E81608093200204C07B
:101B70005D9ACDCF289AD6CFFF91EF91CF91BF91AB
:101B8000AF919F918F917F916F915F914F913F9115
:101B90002F910F900FBE0F901F901895DF92EF922C
:101BA000FF920F931F93CF93DF93D82E8A017B016F
:101BB000E40EF51EEB01CE15DF0571F0D7FE03C074
:101BC000FE01849101C088810E94B10B2196811190
:101BD000F2CF8FEF9FEF01C0C801DF91CF911F912E
:101BE0000F91FF90EF90DF9008952FB7F8948770D2
:101BF0008093E9009091E800892F807295FF04C0DE
:101C00009091F20080E4891B2FBF08957F928F92FC
:101C10009F92AF92BF92CF92DF92EF92FF920F937B
:101C20001F93CF93DF93C82E8B017A0180912202FC
:101C3000811103C08FEF9FEF74C08091200280FF5D
:101C400005C08091E00082608093E000CE2DDF2D02
:101C5000D12C8AEFB82E8C2D8770982E8C2D807207
:101C6000882E8C2D8074782E9AE3A92E209719F453
:101C7000DD2009F451C08C2D0E94F50D81110AC0A0
:101C8000BA94BB20B9F261E070E080E090E00E947D
:101C9000B913ECCF282F30E0C217D3070CF48C2FE8
:101CA0009FB7F8949092E9002091E80025FF32C098
:101CB000282F30E0C21BD30B882029F08150A0F0E0
:101CC0001092F100FBCFF801C7FE0AC0815050F01E
:101CD00044914093F1003196F9CF41914093F10046
:101CE0008150D8F7020F131FDD2019F0A092E800F1
:101CF0000AC08091E80085FD08C0A092E800DD24BC
:101D0000D394209739F0D12C05C0209719F4711085
:101D1000A092E8009FBFAACF5D9884E68093200838
:101D2000C701DF91CF911F910F91FF90EF90DF904E
:101D3000CF90BF90AF909F908F907F900895CF935A
:101D4000DF93EC0180910D01882331F083E00E9444
:101D5000060E1816190634F081E090E09B838A8302
:101D600080E090E0DF91CF91089590912202992335
:101D700011F057FF03C08FEF9FEF08959FB7F894BE
:101D800087708093E9002091F20030E042175307FA
:101D90000CF49A01822FFB0144E6815038F0289818
:101DA00040931F085091F1005193F7CF2115310551
:101DB00021F08091F200882319F09FBFC901089596
:101DC0008BE68093E800F9CF9FB7F89487708093F3
:101DD000E9008091F2009FBF08958091120881115F
:101DE0000DC082E080930E0884E080930F0810926B
:101DF00011081092100881E0809312088EE098E09C
:101E000008950F931F93CF93DF931F92CDB7DEB743
:101E100082E0898342E450E068EF70E080E80E944D
:101E2000CE0D0E94ED0EDC0112960D911C911397C0
:101E30000115110589F0D801ED91FC910280F38123
:101E4000E02DBE016F5F7F4FC801099597FD04C06B
:101E5000F80100851185ECCF89810F90DF91CF913A
:101E60001F910F9108951F920F920FB60F92112498
:101E7000CF92DF92EF92FF920F931F932F933F9396
:101E80004F935F936F937F938F939F93AF93BF9382
:101E9000EF93FF93CF93DF93CDB7DEB76C97DEBFA1
:101EA000CDBF1092E9008091E80083FFFBC168E09C
:101EB000CE0145960E94140C82EF8093E8008D8934
:101EC00087FF05C09091E80090FFFCCF03C09EEF14
:101ED0009093E800982F907609F0C6C09E894F89AC
:101EE000588D2F89F88C91110CC0803829F480917D
:101EF00021028093F10002C01092F1001092F100D3
:101F000045C1913051F4811141C14130510509F071
:101F10003DC1809121028D7F0BC0933061F481110E
:101F200035C14130510509F031C1809121028260F3
:101F3000809321022BC1953049F48091E80080FF05
:101F4000FCCF822F80688093E30020C1963009F097
:101F50005EC00B8D1C8D22E01092E90010921D08CE
:101F600010921C08F21232C010921B0810921A082C
:101F70000E94010F99E0BE016F5F7F4FDB01E92FE7
:101F80001D92EA95E9F79983FA8291E09E8390EA9F
:101F900098879AEF998720911C0830911D08275F38
:101FA0003F4F3C832B838D831092E90010921D08D4
:101FB00010921C0810931B0800931A0849E050E087
:101FC00080E00E94CE0D0E94010FE0C010931B081C
:101FD00000931A080E94ED0EDC0112960D911C91DF
:101FE00013970115110509F4BBC0D801ED91FC91BF
:101FF0000480F581E02DBE016B5E7F4FC80109951D
:10200000009709F0C7C0F80100851185EACF973025
:1020100009F445C1983021F481E08093F100B6C005
:10202000993009F0B3C0837009F039C1EFE0F1E0F5
:1020300081E031E096E32081211109C08EE7809391
:10204000EA001092EA008F89809322029FC0809359
:10205000E9003093EB0021912093EC009093ED0088
:102060008F5F873041F7EACF8B8D9C8D1092E9000E
:1020700010921D0810921C0890931B0880931A0858
:10208000898D811153C08E899D89913A49F481329D
:1020900009F005C147E050E066E071E080E0BBC0B8
:1020A000913209F0FCC0833269F48F89988DA0E0E9
:1020B000B0E08093020190930301A0930401B093D8
:1020C000050164C0803269F48091E80082FFFCCF92
:1020D00067E086E091E00E94140C8BEF8093E800AB
:1020E00055C0823209F052C08F8980930D01EEEF06
:1020F000FFE7859194918B3F9C4D19F0E0E0F8E06B
:1021000002C0EEEFFAE08091060190910701A091E4
:102110000801B0910901803B9440A105B10509F087
:102120009EC080910D0180FF79C099C00E94ED0E84
:10213000FC01028113810115110509F4B0C0D80119
:10214000ED91FC910190F081E02DBE016B5E7F4F1F
:10215000C801099581111AC0F80100851185EBCFDE
:10216000F1E0FF1609F44EC0F3E0FF1298C08F892A
:10217000882309F44AC0823089F440E86FE08FE593
:1021800091E00E94DF0B882309F489C08EEF8093D1
:10219000E80088C018161906CCF381C0813029F4F4
:1021A00040E86EE080E591E0ECCF833009F077C045
:1021B0000E94ED0EDC011296ED90FC9013978E01BB
:1021C0000F5F1F4F6801E114F10479F0D701ED9121
:1021D000FC910680F781E02DB801C7010995080F31
:1021E000111DF701E084F184EECFD8011C92F601B5
:1021F00001900020E9F73197BF016C197D0940E09B
:10220000C601BFCF6EE371E002C06AE371E0FB017B
:10221000449150E080E80E94CE0DB8CFEE3F2AE016
:10222000F20751F0808191818737A7E79A0721F063
:102230009093FF0A8093FE0A87E797E79183808354
:102240008091600080931E089BE088E10FB6F894AF
:10225000A895809360000FBE9093600097CF808117
:1022600091818737974709F091CFA89580916000B9
:1022700088618093600080911E0880936000EE3F2B
:10228000BAE0FB0739F08091FE0A9091FF0A918332
:1022900080837CCF1092FF0A1092FE0A77CF81E2F2
:1022A0008093EB006C960FB6F894DEBF0FBECDBFE7
:1022B000DF91CF91FF91EF91BF91AF919F918F915E
:1022C0007F916F915F914F913F912F911F910F914E
:1022D000FF90EF90DF90CF900F900FBE0F901F9068
:1022E00018951F920F920FB60F9211242F933F93C0
:1022F0004F935F936F937F938F939F93AF93BF930E
:10230000EF93FF938DE998E00E94920CFF91EF917B
:10231000BF91AF919F918F917F916F915F914F91FD
:102320003F912F910F900FBE0F901F9018951F9205
:102330000F920FB60F9211242F938F939F93EF93C9
:10234000FF93E091AD08F091AE088081E091B30871
:10235000F091B40882FD12C090818091B6088F5F21
:102360008F732091B708821751F0E091B608F0E022
:10237000E356F74F958F8093B60801C08081FF9197
:10238000EF919F918F912F910F900FBE0F901F9003
:102390001895009769F0FC0101900020E9F731974A
:1023A000AF01481B590BBC0181E298E00C949F0ED1
:1023B00080E090E008958F929F92AF92BF920F932A
:1023C0001F93CF93DF93CDB7DEB7A1970FB6F894E5
:1023D000DEBF0FBECDBF19A2423008F44AE08E0125
:1023E0000F5D1F4F842E912CA12CB12CA5019401BF
:1023F0000E94D51FE62FB901CA0101501109EA3028
:1024000014F4E05D01C0E95CD801EC93232B242B8C
:10241000252B61F7C8010E94C911A1960FB6F89447
:10242000DEBF0FBECDBFDF91CF911F910F91BF9047
:10243000AF909F908F900895682F70E080E090E0BB
:102440004AE00C94DB110C94C911CF92DF92EF9209
:10245000FF92CF93DF936C01990FEE08FF08F7FE10
:1024600019C06DE281E298E00E942B0DEC01662715
:102470007727CB016C197D098E099F094AE00E94DC
:10248000DB118C0F9D1FDF91CF91FF90EF90DF90BC
:10249000CF9008954AE0C701B601DF91CF91FF9038
:1024A000EF90DF90CF900C94DB11CF93DF930E94DD
:1024B000C911EC0189E991E00E94C9118C0F9D1F9F
:1024C000DF91CF910895DC01ED91FC910190F081B5
:1024D000E02D0994EF92FF920F931F93CF93DF9318
:1024E0007C01EA018A01060F171F0C171D0761F016
:1024F000D7018D919C916991DC01ED91FC91019046
:10250000F081E02D0995F1CFDF91CF911F910F91CF
:10251000FF90EF900895EF92FF920F931F93CF9348
:10252000DF93FC01C081CC2309F446C07C01CF308D
:1025300021F4618170E000E009C0C83070F0FC0156
:102540006181062F0F700F5F607F70E023814281F1
:102550008AE399E00E94960931C0C43078F1892B52
:1025600069F1C43019F0D0E0249702C0C3E0D0E094
:10257000CE010E948B218C01F7018181C130D105F0
:1025800061F09281F80180839183C230D10539F0E6
:10259000F7018381F801828302C0F801808301156D
:1025A000110561F0A801BE018EE599E00E946A1252
:1025B000C8010E94232202C080E001C081E0DF91B7
:1025C000CF911F910F91FF90EF90089590E0FC0143
:1025D0003197EF30F105B0F5EA59FF4F0C94F71F32
:1025E000809180008F7703C0809180008F7D8093E1
:1025F0008000089580918000877FF9CF84B58F7720
:1026000002C084B58F7D84BD0895809190008F773E
:1026100007C0809190008F7D03C080919000877FDC
:102620008093900008958091C0008F7703C08091BF
:10263000C0008F7D8093C00008958091C200877F85
:102640008093C20008951F93CF93DF93282F30E02B
:10265000F901EB52FE4F8491F901EA54FE4FD491F7
:10266000F901E956FE4FC491CC23C1F0162F811118
:102670000E94E612EC2FF0E0EE0FFF1FE757FE4F2F
:10268000A591B4919FB7F894111104C08C91D09585
:10269000D82302C0EC91DE2BDC939FBFDF91CF915A
:1026A0001F910895CF93DF9390E0FC01EA54FE4F11
:1026B0002491FC01E956FE4F8491882361F190E05A
:1026C000880F991FFC01E558FE4FC591D491FC017C
:1026D000E757FE4FA591B491611109C09FB7F894D7
:1026E0008881209582238883EC912E230BC0623051
:1026F00061F49FB7F8948881322F309583238883C3
:10270000EC912E2B2C939FBF06C08FB7F894E881D5
:102710002E2B28838FBFDF91CF910895823108F04F
:102720008251E82FF0E0E159FE4FE49180917B0067
:10273000E3FB222720F930E095E0220F331F9A9522
:10274000E1F78F7D282B20937B00E770E064E09316
:102750007C0080917A00806480937A0080917A0076
:1027600086FDFCCF809178002091790090E0922B3B
:1027700008958F929F92AF92BF92CF92DF92EF9285
:10278000FF926B017C010E94F3134B015C01C114A9
:10279000D104E104F104F1F00E94F313DC01CB0158
:1027A00088199909AA09BB09883E9340A105B1057A
:1027B00070F321E0C21AD108E108F10888EE880E12
:1027C00083E0981EA11CB11CC114D104E104F104E2
:1027D00019F7DDCFFF90EF90DF90CF90BF90AF90D3
:1027E0009F908F9008953FB7F8948091FB09909146
:1027F000FC09A091FD09B091FE0926B5A89B05C072
:102800002F3F19F00196A11DB11D3FBFBA2FA92F6F
:10281000982F8827820F911DA11DB11DBC01CD01EC
:1028200042E0660F771F881F991F4A95D1F70895D8
:102830002FB7F8946091F7097091F8098091F90920
:102840009091FA092FBF08951F920F920FB60F9221
:1028500011242F933F938F939F93AF93BF938091B6
:10286000F7099091F809A091F909B091FA0930910E
:10287000F60923E0230F2D3720F40196A11DB11D89
:1028800005C026E8230F0296A11DB11D2093F6096D
:102890008093F7099093F809A093F909B093FA0986
:1028A0008091FB099091FC09A091FD09B091FE096E
:1028B0000196A11DB11D8093FB099093FC09A09383
:1028C000FD09B093FE09BF91AF919F918F913F9108
:1028D0002F910F900FBE0F901F901895CF93DF93FD
:1028E000CDB7DEB729970FB6F894DEBF0FBECDBFC8
:1028F000789484B5826084BD84B5816084BD85B5DB
:10290000826085BD85B5816085BD80916E008160E6
:1029100080936E001092810080918100826080938C
:10292000810080918100816080938100809180008E
:1029300081608093800080919100826080939100FB
:1029400080919100816080939100809190008160DE
:10295000809390008091C10084608093C100809139
:10296000C10082608093C1008091C100816080932A
:10297000C1008091C30081608093C3008091C0003A
:1029800082608093C0008091C20081608093C20009
:1029900080917A00846080937A0080917A008260CE
:1029A00080937A0080917A00816080937A00809190
:1029B0007A00806880937A0010922202109221029D
:1029C000109220028091D70081608093D70080EA26
:1029D0008093D80089B5806189BD89B5826089BD41
:1029E00009B400FEFDCF61E070E080E090E00E945D
:1029F000B9138091D8008F7C80618093D80080913A
:102A0000E000807F8093E0008091E1008E7E8093E3
:102A1000E1008DE08093E200559A209A60E971E030
:102A200080E090E00E94B91380E090E00E9464048E
:102A30008E3129F06EE180E090E00E94DB03E091AE
:102A40005E09F0915F09A089B18982E08C93A48529
:102A5000B5851C92A685B7858FE38C93108EA489CB
:102A6000B58986E08C93A289B3898C9180618C931F
:102A7000A289B3898C9188608C93A289B3898C9147
:102A800080688C930288F389E02D80818F7D80831C
:102A900010926009109262091092610910926909FE
:102AA0001092680910926709109266098FEF9FEFE4
:102AB00090936B0980936A0990936D0980936C09D8
:102AC0001092F409109271091092700910926F0916
:102AD000109272091092730910926E0987E992E0C0
:102AE00090934909809348098CE68093EC0281E039
:102AF0008093E70286EC93E0909326028093250270
:102B000085EB93E0909324028093230260ED77E0BD
:102B100080E090E00E94B9131092000468EC70E02D
:102B200080E090E00E94B91380E090E00E9464048D
:102B30008F3F31F08FEF91E00E9464048F3F81F46A
:102B400001E010E060E0C8010E94DB030F5F1F4F4F
:102B5000011524E01207B1F781E00E94B105CFC151
:102B600082E390E090932802809327023DE7E32ED2
:102B700038E0F32E45E9C42E48E0D42E87010E94A8
:102B80004809D80112968C93B4E08B9FC0011124A0
:102B90000E948B21F801948383830A5F1F4FC01624
:102BA000D10669F70DE718E00E944809D8018C9317
:102BB0000A5F1F4FC016D106B9F70DE718E00E9453
:102BC0004809F80181830A5F1F4FC016D106B9F783
:102BD000D7011296AC90129713969C901397149667
:102BE000BC908BE491E00E9423128A2D0E941C125B
:102BF00084E591E00E942312092D1B2DB12CAB140A
:102C000061F10E944809F80180830E944809D801B7
:102C100011968C930E944809F80182830E9448090A
:102C2000D80113968C9382E691E00E9423128B2D9B
:102C30000E941C12C8010E942A098AE691E00E94A3
:102C40002312C80102960E942A098BE991E00E9492
:102C50005512B3940C5F1F4FD2CF85E791E00E94CD
:102C60005512F7011582F6E0EF0EF11CCE14DF04C9
:102C700009F0AECF84E190E0909328028093270280
:102C80008BE491E00E94231286E090E00E942512DE
:102C90008BE791E00E94551259E2C52E52E0D52EE5
:102CA0008601F12CBB24B394EE24EA946EE0962EB8
:102CB00077E0872EE4E1AE2EF3E17F2EACE36A2EBF
:102CC000B0E15B2E88E0482E9AE0392E29E0222ED2
:102CD0000E944809D8018C930E944809F801818319
:102CE000F6820E944809D80112968C930E944809E6
:102CF000F80183830E944809D80114968C93149795
:102D00001596BC92159712968C911297382F3170A8
:102D100017963C93179781FB222720F918962C933E
:102D20001897482F4C7150E0559547955595479504
:102D300019964C931997807690E045E09595879584
:102D40004A95E1F71C968C931C971D961C921D9733
:102D50001E961C921E9750961C921E921F9751967B
:102D60001C92519752961C925297332329F08B2D27
:102D70008227817051968C93B3E0FB1609F1BF1541
:102D800038F0E1E0FE1689F0F2E0FF1691F006C09F
:102D900024E0F216D1F035E0F316F1F0D8011A96DE
:102DA0009C921A971B968C9226C0F80152864386F5
:102DB00022C0D8011A963C921A971B962C921BC0DF
:102DC00025E1F8012287E38616C0D8011A96AC9255
:102DD0001A971B96EC920FC0F8017286E386658EF7
:102DE000A68E138A148A158A168A178A108E118E57
:102DF000128E148E138E82E691E00E9423128F2D84
:102E00000E941C12C8010E942A0988E891E00E94D1
:102E10002312D80115968C9190E00E94251281E929
:102E200091E00E942312F80182810E941C1289E91C
:102E300091E00E94C911F394015E1F4FF6E0FF126A
:102E400047CF85E791E00E9455128FE090E00E9405
:102E50006404182F83708093FF0361E084E00E9474
:102E60005213812F817010FF05C01092FB038093D5
:102E7000FD0305C081E08093FB031092FD03609188
:102E8000FB036093FE036093FC0384E00E94231322
:102E900012FB882780F98093010113FB112710F999
:102EA0001093000168EC70E080E090E00E94B9139C
:102EB000D60115968C9115978823B9F01C968C91A4
:102EC000882331F0833088F460E0F60182850BC0FE
:102ED00062E0F60182850E945213D6011B968C9106
:102EE0008F3F19F061E00E945213FFE1CF0ED11C19
:102EF00023EEC21622E0D206D9F60E94FC0481E03D
:102F000080930004CC24C394D12C00E8A02EB12CD3
:102F100010910004112309F4BEC3B9E2EB2EB2E014
:102F2000FB2ED70115968C911597882309F42CC197
:102F300016968C911697853009F026C11C968C91B7
:102F4000813009F456C020F0823009F47AC01CC1E7
:102F5000F701228530E0F901EB52FE4F8491F9012F
:102F6000EA54FE4F0491F901E956FE4F94909920DE
:102F700079F081110E94E612E92DF0E0EE0FFF1FBB
:102F8000E651FF4FA591B491EC91E02301E009F4E3
:102F900000E00170D7011D968C91081751F00E9436
:102FA00018146093EE027093EF028093F0029093F6
:102FB000F1020E9418144090EE025090EF026090CF
:102FC000F0027090F102DC01CB0184199509A60989
:102FD000B709C397A105B10540F0F7018685081729
:102FE00021F00687C7010E94710BD7011D960C9333
:102FF000CBC0F70182850E948E13BC01E3E075957A
:103000006795EA95E1F7D7011F968D919C915097AE
:103010006817790709F4B8C050967C936E931F9790
:1030200016968C91853049F480E090E04AE00E9449
:10303000DB1180E691E00E942312C7010E94710B10
:10304000A3C0F70182850E948E134C01459740F181
:10305000D7015B968D919C915C97892B09F50E9415
:103060001814F701638B748B858B968B4788508C73
:10307000618C728CDC01CB0184199509A609B70912
:10308000458C512C612C712C84159505A605B7052E
:1030900008F47AC0908A878621E030E0348F238F4D
:1030A000D7015B968D919C915C97009709F46CC059
:1030B0001F962D913C9150972815390520F4509674
:1030C0009C928E921F970196F701948F838F0E9496
:1030D0001814D70153964D905D906D907C90569743
:1030E000AB01BC0144195509660977095E968C91BC
:1030F00090E0A0E0B0E0481759076A077B0708F4A2
:1031000043C00E941814F701678B708F818F928FD4
:103110008CE991E00E942312D7011F966D917C915A
:10312000509780E090E04AE00E94DB118EEA91E047
:103130000E942312F701638D748D80E090E04AE0D5
:103140000E94DB118EEB91E00E942312F701878928
:10315000908DA18DB28D4388548865887688BC0196
:10316000CD0164197509860997094AE00E94DB11AF
:1031700089E991E00E94C911C7010E94710BD70132
:103180005C961C921E925B97BFE1EB0EF11CE3EE86
:10319000EE16E2E0FE0609F0C4CE412C552453940D
:1031A00053E0852E912C60EF262E30906009F0E1DF
:1031B000F31508F4FEC180915E0990915F09DC016E
:1031C000ED91FC910084F185E02D0995892B09F49E
:1031D000F0C180915E0990915F09DC01ED91FC9155
:1031E0000284F385E02D09957C018B7F893F09F4EA
:1031F000E0C18091680990916909009709F0BAC00F
:103200002091F50920FDB6C0E092630900916109A3
:10321000802F0E9470090E948209882351F0E7FCE8
:1032200008C000936309E0926409D0926909C092D2
:10323000680900916309802F0E947009813F910500
:1032400009F462C090F5803B910509F464C068F40C
:103250008039910509F45FC0803A910509F45BC09B
:103260008038910509F0EBC056C0803D910509F406
:103270004BC028F4803C910509F446C0E0C0803E74
:10328000910509F448C0803F910509F0D8C0B0927B
:103290006709A09266091092610920927409209131
:1032A000F50921602093F5093AC0883F9105B9F0EE
:1032B00040F4833F910541F170F1863F910579F02B
:1032C000BEC08A3F910508F4BAC08D3F910538F021
:1032D0009C012E5F31092230310508F0B0C0909377
:1032E00071098093700910926F09109272091092FF
:1032F00073095092F40910926909109268091092AA
:103300006709109266092DC1E2E0F0E0F0936709C9
:10331000E093660904C09092670980926609209143
:1033200068093091690940916609509167094150D7
:10333000510924173507B8F09093710980937009EB
:103340000F700F5F00936F09809164098093720979
:103350001092730910926909109268091092670916
:10336000109266092AC02F5F3F4F3093690920935E
:1033700068091FC1E7FE6EC0970133272D3F310555
:103380005CF42A3F31057CF4273F3105C9F0283F22
:10339000310509F05FC007C0A9014E5F51094230F5
:1033A000510508F057C030937109209370091092AD
:1033B00072091092730910926F095092F409D1C0EA
:1033C000309174092091F509303F11F020FF37C08A
:1033D000BC016F5F7F4F7093690960936809FC01BE
:1033E000E65CF64F37EF32AF80EF90E090937109D3
:1033F0008093700920FF09C0E0914809F0914909C4
:10340000309719F084E799E00995909168098091C7
:103410006909909372098093730910926F09509211
:10342000F4098091F5098E7F8093F509109269095E
:1034300010926809109267091092660989C010926B
:103440006909109268091092670910926609109232
:103450006109AFC020916309FC01E65CF64F203F93
:1034600021F02091F50920FF02C0E2AE01C0E1A6E3
:1034700060906609709067099301215031098217A5
:10348000930708F468C000916309003F21F0809120
:10349000F50980FF10C0E0914809F0914909309783
:1034A00029F060E870E084E799E0099510926909D5
:1034B000109268097EC0802F0E9470097C01909351
:1034C0007109809370090E948209882331F0802F4E
:1034D0008F708F5F80936F0902C010926F09809187
:1034E00064098093720993E06916710419F480915C
:1034F000650901C080E080937309109269091092F8
:10350000680910926709109266095092F409A0EBBD
:10351000EA16F104D1F068F4E0E9EE16F104A9F03E
:10352000F0EAEF16F10489F020E8E216F10481F4E4
:103530000CC030EDE316F10441F080EEE816F10422
:1035400021F090ECE916F10419F40093610909C027
:103550001092610906C001969093690980936809E9
:1035600028C080917009909171098039910529F4E2
:1035700080917309882309F446C280917009909163
:1035800071099C01205831092136310508F040C2EB
:1035900020916F09321609F43BC2332009F438C276
:1035A000712C80916E09982F917080FD77C07110F9
:1035B00034C110E0552453948091F2039091F303A9
:1035C000A091F403B091F5034091F6035091F703F5
:1035D0006091F8037091F903841B950BA60BB70B50
:1035E0008F739927AA27BB27892B8A2B8B2B09F44A
:1035F0002DC18091F6039091F703A091F803B0914B
:10360000F903880F991F880F991FFC01EE50FD4F99
:1036100090800181E280F3804091F2035091F303A6
:103620006091F4037091F5038091F6039091F70394
:10363000A091F803B091F903481759076A077B076F
:10364000B9F08091F6039091F703A091F803B0913F
:10365000F9030196A11DB11D8F739927AA27BB27D6
:103660008093F6039093F703A093F803B093F903C4
:103670009E820F83E886F986911050C18E81811158
:103680009BCF411080C111117EC18091FF038250F8
:10369000823008F07DC10E94210D3ACC282F2E7F68
:1036A00009F485CF60917009709171099B012058D0
:1036B000310921363105F8F400916F09301619F0FF
:1036C00091E0311090E08695823031F0833041F006
:1036D000813009F06CCF06C0992309F468CF02C08D
:1036E000911165CF20917309409172098AE399E0A5
:1036F0000E9496095CCFFB01E05FF109E031F10522
:1037000008F055CFEA5AFF4F0C94F71F8EE599E069
:103710000E9455094CCF609172097091730961380C
:10372000710510F060E870E044E759E08EE599E03B
:103730000E946A123CCF0091720980915E099091BB
:103740005F09DC01ED91FC910190F081E02D63EFC8
:1037500009950F77602F70E080915E0990915F0965
:103760000E94631224CFE0907309B0E8EB9E7001D1
:10377000112480917209E82A80915E0990915F0975
:10378000DC01ED91FC910190F081E02D62EF099553
:1037900080915E0990915F09B7016F777727DC010F
:1037A000ED91FC910190F081E02D099580915E09E9
:1037B00090915F09B701660F672F661F770B7195B0
:1037C0006F777727DC01ED91FC910190F081E02D7E
:1037D00022C0009172090770B0E10B9FC001112453
:1037E000009173090F70082B80915E0990915F0919
:1037F000DC01ED91FC910190F081E02D61EF0995E4
:1038000080915E0990915F09DC01ED91FC9101903E
:10381000F081E02D602F0995CACE809170099091BA
:1038200071099A83898380916F098B8380917209D2
:103830008C83809173098D83CE0101960E94F509D6
:10384000882309F4B2CC44244394AFCC809174080B
:103850000E94E40E882309F45CC08091F2039091E9
:10386000F303A091F403B091F5030196A11DB11DDE
:103870003C014D01EFE36E22772488249924809146
:10388000F6039091F703A091F803B091F903861520
:103890009705A805B90509F4ACCE809174080E947B
:1038A000E40E44E050E0BE016F5F7F4F80917408EA
:1038B0000E94B50E04970CF49CCE8091F203909177
:1038C000F303A091F403B091F503880F991F880FBB
:1038D000991FFC01EE50FD4F49815A816B817C811B
:1038E00040835183628373836092F2037092F30387
:1038F0008092F4039092F503D401C3010196A11DB7
:10390000B11D3C014D01FFE36F22772488249924E7
:10391000B6CFF12CE12C00E0912C7ECE8091ED020F
:10392000811104C0003F09F084C102C0003F49F486
:103930005092ED021092EA02D092E902C092E8029F
:1039400003C0802F0E942F068E2D0E942F068F2DE0
:103950000E942F069091FA038091EC02981761F073
:10396000802F0E9494052FE0921631F08E2D0E9438
:1039700094058F2D0E9494058091ED0281115DC107
:103980001092FA035AC18091FD038093FE037DCE0D
:103990000E9418140091990810919A0820919B0890
:1039A00030919C08011511052105310549F46093FA
:1039B00095087093960880939708909398083FC154
:1039C00040909508509096086090970870909808DD
:1039D000AB01BC0144195509660977094017510725
:1039E0006207730708F457CED901C801840D951DED
:1039F000A61DB71D8093950890939608A0939708ED
:103A0000B09398081CC1B0927109A0927009B5CD0D
:103A1000813F9105B1F5E0914A09F0914B090CC045
:103A20008B3F910508F0E4C0833F910509F0C1C0C8
:103A3000E0914E09F0914F09309709F18091720998
:103A400009951DC0813D910508F475C0803E910522
:103A500009F081C0E0914609F0914709309779F06B
:103A6000609173096F77A0E86A9FB001112480917B
:103A700072098F77682B705280916F090995712EAA
:103A800090CD823F910508F07EC0803B910529F4DE
:103A9000E0914009F09141090BC0813B910508F08C
:103AA00041C08038910571F4E0913A09F0913B09E9
:103AB000309729F3409173096091720980916F09E1
:103AC0000995DDCF81389105E8F4892BC1F2809109
:103AD000F50980FB772470F880FFD1CFE091480989
:103AE000F0914909309709F45CCD609172097091A9
:103AF00073096138710510F060E870E084E799E0BF
:103B000009954FCD8039910529F4E0913C09F09158
:103B10003D09CECF803A9105D1F6E0913E09F09172
:103B20003F09C6CF803D910509F08CCFE091440953
:103B3000F091450907C0803C910549F6E0914209A2
:103B4000F0914309309709F49ACF609172098091FE
:103B50006F09099594CF803F910509F0B8CFE091A6
:103B60004809F0914909309709F489CF60917209A9
:103B7000709173096138710510F060E870E084E7B6
:103B800099E009957CCF8A3F910509F049CFE091F2
:103B90005409F091550908C0883F910509F097CF65
:103BA000E0915209F0915309309709F468CF0995D3
:103BB00066CF833F9105A0F4E0914C09F0914D0947
:103BC000309709F45CCF809173098F77B0E88B9FB1
:103BD000C0011124209172092F77822B09954FCFB4
:103BE000863F9105C9F6E0915009F0915109DCCF6B
:103BF0008C3F910529F4E0915809F0915909D4CFEF
:103C00008C3F910528F4E0915609F0915709CCCFEB
:103C10008E3F910529F4E0915A09F0915B09C4CFD8
:103C20008F3F910509F053CFE0915C09F0915D0958
:103C3000BBCFCE0106960E948B1211E01FCD1091D2
:103C4000FE038091FD0318130FC00091FB038091C8
:103C5000FC03801306C0612F84E00E94231310939D
:103C6000FC030093FE0317CD9091FC03891313CD41
:103C70001091FB03612F84E00E9423131093FC0337
:103C80000ACD1092A00810929F0888EE93E0A0E061
:103C9000B0E08093A1089093A208A093A308B093EA
:103CA000A4082FE131E030939E0820939D082DEC6D
:103CB00030E03093AA082093A9082CEC30E0309330
:103CC000AC082093AB0828EC30E03093AE0820938A
:103CD000AD0829EC30E03093B0082093AF082AEC0F
:103CE00030E03093B2082093B1082EEC30E03093EE
:103CF000B4082093B3081092B6081092B708109237
:103D0000B8081092B90810922408109223088093E2
:103D1000250890932608A0932708B093280881E3EC
:103D200091E090932208809321088FEF9FEF90936A
:103D30002E0880932D0882E0809375088093760882
:103D40008BE798E0909378088093770810927A0830
:103D50001092790883E491E090937208809371083F
:103D600080E880937B0881E880937C080E94ED0EB8
:103D7000FC0121818091750890E0820F911D0897C8
:103D8000C4F5A281B381109729F481E798E0938369
:103D900082830EC018968D919C911997009711F00F
:103DA000DC01F8CF81E798E019969C938E931897E1
:103DB00080818093730881818093740890818091C1
:103DC0007608890F808380E090917508891788F4C0
:103DD000A0917708B0917808A80FB11D9C91A1819E
:103DE000B0E0A25FBE4F9C9391819F5F91838F5FF4
:103DF000EBCF1092810810928008109287081092E1
:103E0000860810928D0810928C08109293081092D8
:103E1000920889E190E0A0E0B0E080939908909347
:103E20009A08A0939B08B0939C088DE998E0909322
:103E30005F0980935E0910926009109261091092E7
:103E4000620910926709109266091092690910922E
:103E500068098FEF9FEF90936B0980936A099093A5
:103E60006D0980936C0983E080936E0910926F094D
:103E700010927109109270091092720910927309D0
:103E80001092F40980E8E4E7F9E0DF011D928A95D9
:103E9000E9F78091F5098E7F8093F50910923B092F
:103EA00010923A0910923D0910923C0910923F0974
:103EB00010923E0910924109109240091092430954
:103EC0001092420910924509109244091092470934
:103ED00010924609109249091092480910924B0914
:103EE00010924A0910924D0910924C0910924F09F4
:103EF00010924E09109251091092500910925309D4
:103F000010925209109255091092540910925709B3
:103F100010925609109259091092580910925B0993
:103F200010925A0910925D0910925C090895F9994E
:103F3000FECF92BD81BDF89A992780B50895262FAE
:103F4000F999FECF1FBA92BD81BD20BD0FB6F8947E
:103F5000FA9AF99A0FBE01960895AA1BBB1B51E16C
:103F600007C0AA1FBB1FA617B70710F0A61BB70BE9
:103F7000881F991F5A95A9F780959095BC01CD018E
:103F8000089597FB072E16F4009407D077FD09D00B
:103F90000E94AD1F07FC05D03EF4909581959F4F80
:103FA0000895709561957F4F0895A1E21A2EAA1B7E
:103FB000BB1BFD010DC0AA1FBB1FEE1FFF1FA217D9
:103FC000B307E407F50720F0A21BB30BE40BF50BD6
:103FD000661F771F881F991F1A9469F7609570955F
:103FE000809590959B01AC01BD01CF010895EE0F26
:103FF000FF1F0590F491E02D09940E946C2190F030
:104000009F3748F4911116F40C94852160E070E01C
:1040100080E89FE3089526F01B16611D711D811D28
:104020000C94FF200C941A210E9428200C94392112
:104030000E94322158F00E942B2140F029F45F3F6A
:1040400029F00C94F92051110C9485210C9428210D
:104050000E944A2168F39923B1F3552391F3951BEC
:10406000550BBB27AA2762177307840738F09F5F99
:104070005F4F220F331F441FAA1FA9F335D00E2E06
:104080003AF0E0E832D091505040E695001CCAF773
:104090002BD0FE2F29D0660F771F881FBB1F261736
:1040A00037074807AB07B0E809F0BB0B802DBF010D
:1040B000FF2793585F4F3AF09E3F510578F00C94DC
:1040C000F9200C9485215F3FE4F3983ED4F3869564
:1040D00077956795B795F7959F5FC9F7880F911DFD
:1040E0009695879597F90895E1E0660F771F881FE9
:1040F000BB1F621773078407BA0720F0621B730B9C
:10410000840BBA0BEE1F88F7E09508950E948D206E
:104110006894B1110C94852108950E94522188F071
:104120009F5798F0B92F9927B751B0F0E1F0660F7B
:10413000771F881F991F1AF0BA95C9F714C0B130BC
:1041400091F00E948421B1E008950C948421672F9E
:10415000782F8827B85F39F0B93FCCF386957795EB
:104160006795B395D9F73EF49095809570956195D4
:104170007F4F8F4F9F4F0895E89409C097FB3EF4FF
:1041800090958095709561957F4F8F4F9F4F9923A4
:10419000A9F0F92F96E9BB279395F6958795779522
:1041A0006795B795F111F8CFFAF4BB0F11F460FFE2
:1041B0001BC06F5F7F4F8F4F9F4F16C0882311F03A
:1041C00096E911C0772321F09EE8872F762F05C04E
:1041D000662371F096E8862F70E060E02AF09A95E9
:1041E000660F771F881FDAF7880F9695879597F9DE
:1041F000089597F99F6780E870E060E0089588234C
:1042000071F4772321F09850872B762F07C066230F
:1042100011F499270DC09051862B70E060E02AF0D0
:104220009A95660F771F881FDAF7880F96958795FE
:1042300097F908959F3F31F0915020F48795779535
:104240006795B795880F911D9695879597F908956D
:104250009FEF80EC089500240A941616170618069E
:104260000906089500240A9412161306140605067A
:104270000895092E0394000C11F4882352F0BB0F0B
:1042800040F4BF2B11F460FF04C06F5F7F4F8F4F6E
:104290009F4F089557FD9058440F551F59F05F3FA9
:1042A00071F04795880F97FB991F61F09F3F79F058
:1042B00087950895121613061406551FF2CF4695DA
:1042C000F1DF08C0161617061806991FF1CF86955C
:1042D00071056105089408950E945221A0F0BEE77F
:1042E000B91788F4BB279F3860F41616B11D672FE5
:1042F000782F8827985FF7CF869577956795B11DBA
:1043000093959639C8F30895E894BB2766277727D5
:10431000CB0197F908950F931F93CF93DF938230CA
:10432000910510F482E090E0E091010AF091020A18
:1043300020E030E0A0E0B0E0309719F140815181F9
:104340000281138148175907C8F08417950769F44B
:10435000109731F012960C93129713961C9327C066
:104360000093010A1093020A22C02115310519F0A9
:104370004217530718F49A01BD01EF01DF01F8015C
:10438000DBCF21153105F9F0281B390B243031051D
:1043900080F48A819B816115710521F0FB01938373
:1043A000828304C09093020A8093010AFE01329630
:1043B00044C0FE01E20FF31F819391932250310913
:1043C000398328833AC02091FF093091000A232BBA
:1043D00041F420911701309118013093000A209385
:1043E000FF0920911501309116012115310541F485
:1043F0002DB73EB74091190150911A01241B350B7E
:10440000E091FF09F091000AE217F307A0F42E1BD8
:104410003F0B2817390778F0AC014E5F5F4F241728
:10442000350748F04E0F5F1F5093000A4093FF0975
:104430008193919302C0E0E0F0E0CF01DF91CF9152
:104440001F910F910895CF93DF93009709F481C0D6
:10445000FC01329713821282A091010AB091020AE4
:10446000109781F420813181820F931F2091FF09E1
:104470003091000A2817390751F5F093000AE093AC
:10448000FF0967C0ED0120E030E0CE17DF0740F400
:104490004A815B819E0141155105F1F0EA01F5CF9A
:1044A000D383C28340815181840F951FC817D907D8
:1044B00059F488819981840F951F02969183808396
:1044C0008A819B81938382832115310529F4F0939E
:1044D000020AE093010A3DC0E901FB83EA834991A6
:1044E0005991C40FD51FEC17FD0761F480819181AC
:1044F000840F951F0296E9019983888382819381B5
:104500009B838A83E0E0F0E012968D919C91139753
:10451000009719F0FD01DC01F7CF8D919C91119767
:104520009D012E5F3F4F820F931F2091FF09309115
:10453000000A2817390769F4309729F41092020A03
:104540001092010A02C013821282B093000AA09353
:10455000FF09DF91CF91089581E090E0F8940C94E9
:10456000BA22FB01DC0102C001900D924150504083
:08457000D8F70895F894FFCF7D
:104578000101FFFFFFFF00E100000000000000C193
:1045880080810000000000030A200000000000B342
:104598000C210C4B0CFF0C7C0C5A0C6E0C00000010
:1045A800002B0D9F0E54015101A3018101590100F7
:1045B8000000002C01BD012901B3014C6F61646941
:1045C8006E67200020656E74726965732E2E2E202A
:1045D8002000496E70757420230020204F75747078
:1045E80075743A2000446F6E652E0020696E7075F0
:1045F80074732E2E2E202000204163746976653A4C
:104608000020466C6167733A000D0A005B486974C4
:104618005D2076656C6F63697479203A2000292CD7
:10462800206C6F6F7054696D6573203A20002C20E0
:104638005363616E54696D65286D7329203A2000B3
:104648004D49444900204368616E6E656C3A00200C
:104658005374617475733A002056616C75653A003D
:1046680042726F6164636173742043432000206663
:104678006F7220696E7075742000206F6E206368F9
:10468800616E6E656C20002056616C75653A20007D
:00000001FF
