:100000000C94F5000C941D010C941D010C941D0121
:100010000C941D010C941D010C941D010C941D01E8
:100020000C941D010C941D010C94590C0C94020E9F
:100030000C941D010C941D010C941D010C941D01C8
:100040000C941D010C941D010C941D010C941D01B8
:100050000C941D010C941D010C941D010C94EF12C5
:100060000C941D010C9466100C9440100C941D010E
:100070000C941D010C941D010C941D010C941D0188
:100080000C941D010C941D010C941D010C941D0178
:100090000C941D010C941D010C941D010C941D0168
:1000A0000C941D010C941D010C941D012A1A881A30
:1000B000521A3A1A93189318251A9318251A931856
:1000C000251A251A251A9318251A251ADC10DF106F
:1000D000CE10D210D810001100110011E310E7105B
:1000E000EB10F110F5100011FB10080B00020202DA
:1000F00001000904000001020200000524001001B3
:100100000524010101042402060524060001070557
:10011000810310004009040100020A0000000705E5
:1001200002024000000705830240000004030904A6
:1001300012010002EF02014009127E0000010102DB
:1001400003015A656E6472756D2053747564696F2E
:10015000005A445320536869667465722050726F68
:100160000000000000240027002A002D00300000BD
:10017000000000250028002B002E003100000000A8
:10018000002300260029002C002F0004040404048E
:10019000030405020202020403020202020606062A
:1001A00006060604040202020404040802011040C8
:1001B00080401020408040800802040180402010D0
:1001C0000201108010204040200000000200090FB2
:1001D0000000030401000C0000000000000000000B
:1001E0000000000000000000031C11241FBECFEF20
:1001F000DAE0DEBFCDBF11E0A0E0B1E0E8EBF0E473
:1002000002C005900D92A035B107D9F726E0A0E510
:10021000B1E001C01D92A03EB207E1F710E0C5EFCA
:10022000D0E004C02197FE010E94971DC43FD10772
:10023000C9F70E9439130C945A200C940000A6EEC2
:10024000B2E07C91E0915501F0915601682F119632
:100250008C91119712969C9109951092E90208953C
:1002600098E088E10FB6F894A895809360000FBEDF
:1002700090936000FFCFEF92FF920F931F93CF9365
:10028000DF93CDB7DEB79C018B01EDB6FEB6892BAF
:1002900009F456C06115710509F452C0CB010296EC
:1002A00063E070E00E946F1D660F771F660F771F77
:1002B0008DB79EB7861B970B0FB6F8949EBF0FBEE7
:1002C0008DBF0196D901FC0134E00230110561F0C7
:1002D0000330110591F001301105D9F425E0208398
:1002E0002C912183128207C026E020832C91218348
:1002F00011962C91228313821EC027E020832C911B
:10030000218311962C911197228312962C9123838D
:1003100012C030832C91218311962C911197228346
:1003200012962C9112972383035011091396349639
:100330000115110551F6E0915301F0915401099511
:100340000FB6F894FEBE0FBEEDBE0FB6F894FEBE1B
:100350000FBEEDBEDF91CF911F910F91FF90EF90F7
:1003600008956F927F929F92AF92BF92CF92DF9249
:10037000EF92FF920F931F93CF93DF93CDB7DEB72A
:100380006C018B01EDB6FEB680E090E00E945C1E31
:1003900020E030E040EE50E40E94B41D0E949D1D1C
:1003A0000E94261E98012B5F3F4F620F731F8DB76F
:1003B0009EB7861B970B0FB6F8949EBF0FBE8DBFDE
:1003C000EDB7FEB7319680EFADB7BEB711968C93FF
:1003D0008CE681838EE1828363E070E00115110574
:1003E00009F44AC080E0AA24A394B12C282F30E05D
:1003F0002017310708F040C020E030E0912C922F08
:10040000482F50E040175107A0F48F5F4C0D5D1D41
:10041000DA019C9197FF07C0A501022E01C0440F8D
:100420000A94EAF7942A2F5F3F4F2730310539F7B6
:1004300097E09F01260F371FD9019C92DB0111968F
:100440003D016E0E7F1E992E482F50E0911007C07F
:10045000292F30E02F5F3F4F620F731FC7CF9A01E4
:10046000291931092C0D3D1DD9012C912F77D3016C
:100470002D933D019A94EACFDF01A60FB71F87EFB6
:100480008C936F5F7F4FCF010E943B010FB6F894B2
:10049000FEBE0FBEEDBEDF91CF911F910F91FF9079
:1004A000EF90DF90CF90BF90AF909F907F906F9034
:1004B0000895CF93DF939C01AB01C2E0D5E08B811F
:1004C000B9018F5F0E94EB0C8B818F5FDF91CF9121
:1004D0000C944F0CCF93DF9300D000D0CDB7DEB794
:1004E00069837A838B839C83CE0101960E94C61117
:1004F0000F900F900F900F90DF91CF9108959091F2
:10050000E902913069F018F0923071F0089580930B
:10051000E60291E09093E902873F69F486E009C022
:100520008093E70292E0F6CF8093E802873FB1F331
:1005300084E00C941F0108956D3F710538F46A3F03
:10054000710550F4683F710589F406C09B012E5F68
:1005500031092230310550F4DC018D919C91DC0190
:10056000ED91FC910190F081E02D0994089587FFB1
:100570000DC09CE0980F923048F0982F9B7F993FD8
:1005800029F0803F08F4807F90E0089580E090E0BB
:1005900008959C018F7C8038910561F0203D3105E4
:1005A00049F081E0203E310539F0203C310521F051
:1005B00080E0089581E008950895DF92EF92FF9220
:1005C0000F931F93CF93DF930150003108F04CC07D
:1005D000603871050CF448C0613E7105ACF5122F0E
:1005E000D42EEB017C01DC0194968D919C91959722
:1005F000602BDC01ED91FC910190F081E02D0995DB
:10060000F70184A195A16D2D6F77DC01ED91FC912F
:100610000190F081E02D0995BE016F7E603C71056F
:1006200019F1F70184A195A1612F6F77DC01ED919C
:10063000FC910190F081E02DDF91CF911F910F91FE
:10064000FF90EF90DF9009949B01285F31092830DB
:10065000310550F48496DF91CF911F910F91FF9057
:10066000EF90DF900C949C02DF91CF911F910F913E
:10067000FF90EF90DF900895682F8091570190913F
:1006800058019C012F5F3F4F309358012093570131
:100690000C949810EF92FF920F931F93CF93DF93D8
:1006A00082E390E09093580180935701CEE0D5E02B
:1006B00096E2E92E95E0F92E8E01F80182810E94E2
:1006C0003C030A5F1F4FF5E006321F07B1F70EE04B
:1006D00015E0F80180810E943C030A5F1F4FE0167D
:1006E000F106B9F70EE015E0F80181810E943C03A4
:1006F0000A5F1F4FE016F106B9F784E0E82EF12CEF
:100700008A81F81618F5F4E0FF9E80011124EB8130
:10071000FC81E00FF11F80810E943C03EB81FC8192
:10072000E00FF11F81810E943C03EB81FC81E00F0F
:10073000F11F82810E943C038B819C81FC01E00FB0
:10074000F11F83810E943C03F394DACFEA9426964A
:10075000E110D5CFDF91CF911F910F91FF90EF90D6
:100760000895EF92FF920F931F93CF93DF93F82E8C
:10077000C4E1D0E060E0CE010E9498102196C1153E
:1007800082E0D807B9F7C4E1D0E000E09EE6E92EA8
:10079000E00E8DEF800F833018F010E06BE002C0A8
:1007A00012E069E080E1689FB00111246960CE0128
:1007B0000E9498106E2DCE0101960E949810612F14
:1007C00070E085E0660F771F8A95E1F7CE0102960B
:1007D0000E9498106FE7CE0103960E94981060E087
:1007E000CE0104960E9498100F5F2596063071F690
:1007F000C2E3D0E060E0CE010E9498102196C6339B
:10080000D105C1F769E0CE010E9498102196CA3344
:10081000D105C1F76EE68AE390E00E9498106FE67A
:100820008BE390E00E94981060E78CE390E00E94D8
:10083000981061E78DE390E00E9498106CE08FE0E3
:1008400090E00E949810F1100E943001DF91CF914A
:100850001F910F91FF90EF900895CF93DF93CDB745
:10086000DEB763970FB6F894DEBF0FBECDBF89E049
:10087000898386E08A836BE571E0CE010396FE01F1
:1008800039969B01D90115964C91DC014D93CD0110
:100890002F5E3F4FAE17BF07A9F7CE010F96DB01C2
:1008A00050962C9121936F5E7F4F8E179F07B9F75B
:1008B000809113058F8780911905888B80911F0582
:1008C000898B809125058A8B8FE090E00E94AC1087
:1008D0008B8B63E170E0CE0101960E94B1016396BB
:1008E0000FB6F894DEBF0FBECDBFDF91CF91089554
:1008F000EF92FF920F931F93CF93DF937C01CEE093
:10090000D5E080E0288130E02F5F3F4FF701428142
:1009100050E02417350769F529819381291329C0EF
:1009200081E09481911101C080E08D830BE511E09D
:10093000F80185818823B1F080818F7098818913B7
:1009400011C09181898198130DC06D81678783855E
:100950000E944A128D81F801808B80915A01811189
:100960000E942D040F5E1F4FF1E0013C1F0701F7AD
:1009700081E0269695E0C632D90721F6DF91CF9126
:100980001F910F91FF90EF900895EF92FF920F93B8
:100990001F93CF93DF9300D000D0CDB7DEB7FC011B
:1009A00020813181203F310509F476C07C01213F4F
:1009B0003105C8F4203B310591F150F4203931055F
:1009C00091F1203A310579F12038310531F52BC00C
:1009D000203D310541F1203E310509F45FC0203C46
:1009E0003105D9F420C0283F310509F457C040F43F
:1009F000243F310508F452C0263F310571F44EC042
:100A00002A3F310550F02D3F310508F447C02E5FD5
:100A100031092230310508F441C010E043C00E9482
:100A2000780481113DC0C7010E945E0511E0882352
:100A3000C9F180910101882351F0F7016081718132
:100A40000281248143818BEC95E00E94DD0280913C
:100A50000001882339F1F7012081318182818150A1
:100A6000822B4381948154E0359527955A95E1F77F
:100A700029838A834B839C838091050544E050E061
:100A8000BE016F5F7F4F8F5F0E94EB0C8091050569
:100A90008F5F0E944F0C06C011E004C010E0C9CF68
:100AA00011E0C7CF812F0F900F900F900F90DF9123
:100AB000CF911F910F91FF90EF9008959F92AF9269
:100AC000BF92CF92DF92EF92FF920F931F93CF933B
:100AD000DF93EC018EE0C82E85E0D82EBB24B394C2
:100AE00090E9E92EF12CD092E502C092E402F601E1
:100AF0008581882309F45CC0928000E010E0A12C7D
:100B0000A91409F455C0E091E402F091E5020380D4
:100B1000F481E02DE00FF11F2081422F4F7050E053
:100B20008A8190E0019748175907F1F591818B81EF
:100B300098133AC0207F3281932F907F832F8F703C
:100B4000488159814038510571F4203961F5307E72
:100B5000303849F58F5F8A83903811F55093E00261
:100B60004093DF020BC030E042175307E9F48F5F78
:100B7000903889F4F092E002E092DF029C81909339
:100B8000E3028093E10283818093E2028FED92E0A1
:100B90000E94C50409C0292F30E0398328838A8345
:100BA00083818B8301C0B12CA3940C5F1F4FA8CF0E
:100BB000F6E0CF0ED11C86E2C81685E0D80609F013
:100BC00092CF8B2DDF91CF911F910F91FF90EF90DE
:100BD000DF90CF90BF90AF909F900895CF93DF9319
:100BE00000D000D01F92CDB7DEB7282F207F30E095
:100BF0003A8329838F708F5F8B836C834D83CE0103
:100C000001960E947804CE0101960E94C5040F90BF
:100C10000F900F900F900F90DF91CF9108956F92EA
:100C20007F928F929F92AF92BF92CF92DF92EF927C
:100C3000FF920F931F93CF93DF93CDB7DEB76DB6BF
:100C40007EB6EEE0F5E000E010E0828194E0899F5E
:100C5000000D111D11240D5F1F4F369685E0E63201
:100C6000F80799F758019FEFA91AB90AEDB7FEB72F
:100C7000EA19FB090FB6F894FEBF0FBEEDBF8DB7A2
:100C80009EB701966C0186E0818346019FEF891A29
:100C9000990AE12CF12CE016F10659F0C701C29631
:100CA0000E94AC10F40181934F01FFEFEF1AFF0A8D
:100CB000F2CFB501C6010E94B1010FB6F8947EBE15
:100CC0000FBE6DBEDF91CF911F910F91FF90EF90FE
:100CD000DF90CF90BF90AF909F908F907F906F905C
:100CE0000895EF92FF920F931F93CF93DF93CDB7A9
:100CF000DEB76F970FB6F894DEBF0FBECDBF84E0AE
:100D000089837E0182E0E80EF11C04E110E0C80155
:100D10000E94AC10F70181937F010F5F1F4F0233D8
:100D20001105A9F76FE170E0CE0101960E94B101B3
:100D30006F960FB6F894DEBF0FBECDBFDF91CF9197
:100D40001F910F91FF90EF9008958F929F92AF9215
:100D5000BF92CF92DF92EF92FF920F931F93CF93A8
:100D6000DF93CDB7DEB7C254D1090FB6F894DEBF1A
:100D70000FBECDBFF82E8091CB01882309F4D7C2D6
:100D80002091C6013091C70167EFF61277C2109229
:100D9000CB01C90101969093C7018093C6010091D0
:100DA000C1011091C201101611060CF0C0C2809151
:100DB000EB02843120F08D57823008F0B8C28FE00A
:100DC00089831A8262E070E0CE0101960E94B1012F
:100DD0008091EB028B3009F414C1A8F4853009F43A
:100DE000F0C040F4833009F4C3C008F0C8C08130BB
:100DF00009F139C2893009F4F3C008F0F6C0873030
:100E000009F47BC030C2803109F4C4C148F48D308C
:100E100009F44BC108F405C18E3009F412C123C294
:100E20008D3709F47EC08E3709F47FC0813109F017
:100E30001AC2E6C10A5011090230110508F013C2A6
:100E400080935A01EE24E394F12C00E010E0C701F6
:100E50000E94AC10882379F08D3251F08F3541F02B
:100E6000982F9F7D91549A3118F080538A3010F456
:100E700011E001C001E07FEFE71AF70A8FE0E81602
:100E8000F10429F7112351F0011108C07E01A5E3F7
:100E9000EA0EF11C670101E010E012C07CEEE72EC3
:100EA00072E0F72E01E010E0F70161917F01C801C7
:100EB0000E9498100F5F1F4F0F301105A9F7E6CF62
:100EC000C8010E94AC10D6018D936D010F5F1F4FBA
:100ED0000F301105A9F782E089838EE18A83FE0134
:100EE0003396CE014196D7012D917D0121938E1726
:100EF0009F07C9F760E170E07EC10130110509F07C
:100F0000B2C18091590198E099838A8362E070E0D0
:100F1000CE0101960E94B1016CE271E080E090E0A8
:100F20005AC00130110509F46AC00230110509F0F8
:100F30009AC11091EC0281E0111101C080E00E9481
:100F4000B103112309F48FC180915A01882309F458
:100F50008AC164EF71E080E090E00E94B5120E94C7
:100F6000710664EF71E080E090E00E94B5122DC040
:100F70000130110509F077C10E94710628C00B30BD
:100F8000110519F00F311105D1F55BEEC52E52E0B8
:100F9000D52E0D5E1F4F64E1E62EF12CE016F10612
:100FA00071F1B2E3EB16F10428F4F6016181C70197
:100FB0000E949810FFEFEF1AFF0A2FEFC21AD20A11
:100FC000EDCF0130110509F04EC10E940F0664EF0C
:100FD00071E080E090E00E94B5120E942D0443C1B0
:100FE0000130110509F03FC1F8CF0230110509F0B9
:100FF0003AC16091EC028FE090E00E9498100E944C
:1010000030010330110509F02EC1E091EC0236E009
:10101000E39FF0011124E25FFA4F8091ED0280839B
:10102000B6C00330110509F01EC1E091EC0266E084
:10103000E69FF0011124E25FFA4F8091ED02818377
:10104000A6C00330110509F00EC18091EC02309169
:10105000ED0276E0879FC0011124825F9A4FBC01A8
:101060006E5F7F4FDC011396FB012081832F90E0A0
:10107000422F50E041505109841795079CF4ED919F
:10108000FC911197880F991F880F991FE80FF91F7E
:10109000C480D580E680F780C082D182E282F3826C
:1010A0003F5FE2CF2150208372C00730110509F065
:1010B000DAC0C090EC02D12CF090ED02BFEFFB1231
:1010C0003BC026E02C9DC0012D9D900D1124FC01FC
:1010D000E25FFA4F4F01F28001E00F0D0283F4E06E
:1010E0000F9F80011124C8010E942B1F5C01D401B5
:1010F00013968D909C901497A80144505109B40107
:101100000E9451208114910419F0C4010E94C31F50
:1011100086E08C9DF0018D9DF00D1124E25FFA4F69
:10112000B482A382F501B4E0FB9EE00DF11D112411
:101130001082118212821382E4E0FE9EC00111240B
:101140002091EE0236E03C9DF0013D9DF00D112412
:10115000E25FFA4FA381B481A80FB91F2C932091AD
:10116000EF02A381B481A80FB91F11962C9320918F
:10117000F002A381B481A80FB91F12962C9320917D
:10118000F1020380F481E02DE80FF91F23830E9410
:101190004A0369C00130110509F065C089839FE0E9
:1011A000C92ED12CEE24E394F12C30E1B32E87012B
:1011B0000F5F1F4FC6010E94AC10E1E0F0E0EC0FA2
:1011C000FD1FEE0DFF1D80830433110550F4FFEF6A
:1011D000CF1ADF0A21E0C21622E0D20659F07801C8
:1011E000E6CFB801CE0101960E94B101B98201E0BB
:1011F00010E0EDCFB801CE0101960E94B10133C0DD
:101200000630110584F18091EC020091ED02809F7F
:1012100080011124015F1F4F8BEEE82E82E0F82E33
:1012200068018091EE0290E097012B5E3240281712
:10123000390788F4C11432E0D30630F4D70114968C
:101240006C91C6010E949810BFEFCB1ADB0AEFEF3A
:10125000EE1AFE0AE6CF8091ED02080F111D013053
:10126000124008F0CCCE8FE0898381E08A8362E06F
:1012700070E0CE0101960E94B10159C060EFF616F0
:1012800009F44FC08091C50190E08217930759F48B
:10129000F092C8011092C4011092C3011092C201D1
:1012A0001092C1013EC082179307DCF59091C801EE
:1012B0008091CA01981335C0E091C101F091C2013B
:1012C0000091C3011091C401E11572E0F7071CF50C
:1012D000C80168E070E00E94831D811103C0F09294
:1012E000EA0219C04091EA0250E08150DA0102C0DE
:1012F000B595A7958A95E2F7A0FF02C080E801C0E6
:1013000080E0DF01A551BD4F8F298C933196F0937A
:10131000C201E093C1010F5F1F4F1093C4010093FE
:10132000C301C90101969093C7018093C601CE5BAA
:10133000DF4F0FB6F894DEBF0FBECDBFDF91CF9168
:101340001F910F91FF90EF90DF90CF90BF90AF90E3
:101350009F908F90089580915701909158019C0122
:101360002F5F3F4F30935801209357010C94AC10DE
:101370004091F9045091FA042091F7043091F80457
:1013800042175307B4F49091E8009570E1F39091FF
:10139000E80092FD19C08093F1008091F9049091CA
:1013A000FA0401968F739927892B19F48EEF809395
:1013B000E8008091F9049091FA0401969093FA0460
:1013C0008093F90481E0089580E00895DF92EF9220
:1013D000FF920F931F93CF93DF93D82EF92EE42E15
:1013E000062F10E0C8010196880F0E94B80983E01B
:1013F0000E94B809CD2DDF2D0C0F1D1FC017D1077E
:1014000089F0E7FE03C0FE01849101C088810E943B
:10141000B809F82E80E00E94B8098F212196811129
:10142000EDCF01C081E0DF91CF911F910F91FF902F
:10143000EF90DF900895DF92EF92FF920F931F934A
:10144000CF93DF93D82E8A017B01E40EF51EEB01CA
:10145000CE15DF0571F0D7FE03C0FE01849101C0F7
:1014600088810E94B80921968111F2CF8FEF9FEFFA
:1014700001C0C801DF91CF911F910F91FF90EF90B4
:10148000DF900895615030F02091F100FC0120833D
:101490000196F8CF289884E68093FC040895CF92B3
:1014A000DF92EF92FF920F931F93CF93DF936C0124
:1014B0007A018B01C0E0D0E0CE15DF0581F0D801C4
:1014C0006D918D01D601ED91FC910190F081E02D9F
:1014D000C6010995892B11F02196EECF7E01C70137
:1014E000DF91CF911F910F91FF90EF90DF90CF9000
:1014F0000895089580E090E00895FC01538D448D97
:10150000252F30E0842F90E0821B930B541710F0AE
:10151000CF96089501970895FC01918D828D9817BB
:1015200061F0828DDF01A80FB11D5D968C91928DC7
:101530009F5F9F73928F90E008958FEF9FEF0895C4
:10154000FC01918D828D981731F0828DE80FF11D8D
:10155000858D90E008958FEF9FEF0895FC01918DA8
:10156000228D892F90E0805C9F4F821B91098F73A1
:10157000992708958EE295E00E94AE0A21E0892B1A
:1015800009F420E0822F0895FC01848DDF01A80F6B
:10159000B11DA35ABF4F2C91848D90E001968F739B
:1015A0009927848FA689B7892C93A089B1898C91BA
:1015B00082748C93938D848D981306C00288F3896E
:1015C000E02D80818F7D80830895EF92FF920F93AD
:1015D0001F93CF93DF93EC0181E0888F9B8D8C8DDF
:1015E000981305C0E889F989808185FD26C0F62E0B
:1015F0000B8D10E00F5F1F4F0F731127E02E8C8DA6
:10160000E8120CC00FB607FCFACFE889F98980818F
:1016100085FFF5CFCE010E94C40AF1CF8B8DFE016C
:10162000E80FF11DE35AFF4FF0829FB7F8940B8F3C
:10163000EA89FB898081806209C09FB7F894EE89AE
:10164000FF896083E889F9898081827480839FBFE4
:1016500081E090E0DF91CF911F910F91FF90EF908B
:101660000895CF93DF93EC01888D8823C9F0EA8930
:10167000FB89808185FD05C0A889B9898C9186FD8B
:101680000FC00FB607FCF5CF808185FFF2CFA88988
:10169000B9898C9185FFEDCFCE010E94C40AE7CFB6
:1016A000DF91CF91089580E090E0892B29F00E948E
:1016B000BA0A81110C940000089580E090E008952A
:1016C00080E00895CF92DF92EF92FF920F931F93E5
:1016D000CF93DF93CDB7DEB7C456D1090FB6F894D8
:1016E000DEBF0FBECDBF6C01DB019C919E5F9C9362
:1016F000FE01319684E6DF011D928A95E9F788E0C4
:1017000089838BE08A8322E02C8391E09D839E83F2
:1017100039E0398774E07A879E879F873A8B44E265
:101720004B8B9C8B00E011E01E8B0D8B89E0E82E2B
:10173000F12CF88EEF8A998F3B8F7C8F2F8F98A397
:1017400053E059A387E08CA34DA39EA318A70FA332
:1017500001E410E01AA709A786E08BA74CA72DA7E4
:101760009EA79FA789AB4AAB2BAB2CAB2DAB3FAB56
:1017700048AF59AF9AAF5BAF9CAF2DAF9EAF2196EC
:101780003FAF219722964FAF229723965FAF2397C3
:1017900024962FAF249725967FAF259726969FAF47
:1017A000269727969FAF279728969FAF28972A9628
:1017B0003FAF2A9745E02B964FAF2B972D962FAF33
:1017C0002D9760E470E02F967FAF6EAF2F976396F2
:1017D0004FAF639785E264968FAF649765969FAF2E
:1017E000659766969FAF669767969FAF679768966F
:1017F0003FAF689769964FAF69976B962FAF6B971E
:101800006D967FAF6EAF6D97A1964FAFA197A296E1
:101810008FAFA297A3969FAFA397A4969FAFA497CD
:10182000A5965FAFA597D60112969C9112979B83C0
:101830009B879F5F9A8F9D8F13968C912C968FAF6D
:101840002C978F5F80686A968FAF6A9744E650E066
:10185000BF0180E00E941B0ACC59DF4F0FB6F894FD
:10186000DEBF0FBECDBFDF91CF911F910F91FF90D3
:10187000EF90DF90CF900895FC0182818F5BFB0198
:10188000808381E008950E944C2084E0EBE4F1E045
:10189000DB0101900D928A95E1F784E00895809331
:1018A000E9008091F200882319F08AE38093E80030
:1018B00008951F920F920FB60F9211242F933F930A
:1018C0004F935F936F937F938F939F93AF93BF9348
:1018D000CF93EF93FF93C091E1008091E100837F6C
:1018E0008093E100C3FF0FC01092E90081E0809374
:1018F000EB001092EC0082E38093ED001092520115
:1019000088E08093F000C2FF19C083E00E944F0C72
:101910008091FD04882339F08091FD0481508093EB
:10192000FD04882389F18091FC04882339F080919B
:10193000FC0481508093FC04882341F1C4FF10C053
:101940008091E2008E7E81608093E2008091E100D0
:101950008F7E8093E100809150018E7E806111C066
:10196000C0FF16C08091E2008E7E80618093E2000D
:101970008091E1008E7E8093E100809150018E7E07
:1019800081608093500104C05D9ACDCF289AD6CF54
:10199000FF91EF91CF91BF91AF919F918F917F91E7
:1019A0006F915F914F913F912F910F900FBE0F90CC
:1019B0001F9018952FB7F89487708093E900909145
:1019C000E800892F807295FF04C09091F20080E4B6
:1019D000891B2FBF08957F928F929F92AF92BF92E3
:1019E000CF92DF92EF92FF920F931F93CF93DF93EB
:1019F000C82E8B017A0180915201811103C08FEFB3
:101A00009FEF74C08091500180FF05C08091E0007D
:101A100082608093E000CE2DDF2DD12C8AEFB82E8E
:101A20008C2D8770982E8C2D8072882E8C2D807432
:101A3000782E9AE3A92E209719F4DD2009F451C0DD
:101A40008C2D0E94DA0C81110AC0BA94BB20B9F225
:101A500061E070E080E090E00E94B512ECCF282FAA
:101A600030E0C217D3070CF48C2F9FB7F8949092F4
:101A7000E9002091E80025FF32C0282F30E0C21B8A
:101A8000D30B882029F08150A0F01092F100FBCFF9
:101A9000F801C7FE0AC0815050F044914093F10014
:101AA0003196F9CF41914093F1008150D8F7020F60
:101AB000131FDD2019F0A092E8000AC08091E80011
:101AC00085FD08C0A092E800DD24D394209739F06A
:101AD000D12C05C0209719F47110A092E8009FBF87
:101AE000AACF5D9884E68093FD04C701DF91CF9172
:101AF0001F910F91FF90EF90DF90CF90BF90AF902C
:101B00009F908F907F90089590915201992311F0AA
:101B100057FF03C08FEF9FEF08959FB7F89487702A
:101B20008093E9002091F20030E0421753070CF453
:101B30009A01822FFB0144E6815038F028984093A7
:101B4000FC045091F1005193F7CF2115310521F09C
:101B50008091F200882319F09FBFC90108958BE698
:101B60008093E800F9CF9FB7F89487708093E900DD
:101B70008091F2009FBF08958091EF0481110DC004
:101B800082E08093EB0484E08093EC041092EE04F6
:101B90001092ED0481E08093EF048BEE94E00895C1
:101BA0000F931F93CF93DF931F92CDB7DEB782E0E1
:101BB000898342E450E06AEE70E080E80E941B0AEC
:101BC0000E94BC0DDC0112960D911C91139701151A
:101BD000110589F0D801ED91FC910280F381E02D8F
:101BE000BE016F5F7F4FC801099597FD04C0F801E2
:101BF00000851185ECCF89810F90DF91CF911F91E6
:101C00000F9108951F920F920FB60F921124CF9249
:101C1000DF92EF92FF920F931F932F933F934F9377
:101C20005F936F937F938F939F93AF93BF93EF9344
:101C3000FF93CF93DF93CDB7DEB76C97DEBFCDBFF9
:101C40001092E9008091E80083FFFBC168E0CE01BB
:101C500045960E94420A82EF8093E8008D8987FFB3
:101C600005C09091E80090FFFCCF03C09EEF9093D9
:101C7000E800982F907609F0C6C09E894F89588D4C
:101C80002F89F88C91110CC0803829F48091510172
:101C90008093F10002C01092F1001092F10045C152
:101CA000913051F4811141C14130510509F03DC1DC
:101CB000809151018D7F0BC0933061F4811135C14A
:101CC0004130510509F031C180915101826080930A
:101CD00051012BC1953049F48091E80080FFFCCF81
:101CE000822F80688093E30020C1963009F05EC0A7
:101CF0000B8D1C8D22E01092E9001092FA041092D4
:101D0000F904F21232C01092F8041092F7040E9403
:101D1000D00D99E0BE016F5F7F4FDB01E92F1D926F
:101D2000EA95E9F79983FA8291E09E8390EA988791
:101D30009AEF99872091F9043091FA04275F3F4F79
:101D40003C832B838D831092E9001092FA04109249
:101D5000F9041093F8040093F70449E050E080E0A0
:101D60000E941B0A0E94D00DE0C01093F80400935B
:101D7000F7040E94BC0DDC0112960D911C91139783
:101D80000115110509F4BBC0D801ED91FC91048047
:101D9000F581E02DBE016B5E7F4FC801099500976C
:101DA00009F0C7C0F80100851185EACF973009F422
:101DB00045C1983021F481E08093F100B6C099309C
:101DC00009F0B3C0837009F039C1EFE0F1E081E0C0
:101DD00031E096E32081211109C08EE78093EA006B
:101DE0001092EA008F89809352019FC08093E9008E
:101DF0003093EB0021912093EC009093ED008F5FE6
:101E0000873041F7EACF8B8D9C8D1092E9001092BC
:101E1000FA041092F9049093F8048093F704898DE2
:101E2000811153C08E899D89913A49F4813209F01C
:101E300005C147E050E066E071E080E0BBC0913250
:101E400009F0FCC0833269F48F89988DA0E0B0E07E
:101E50008093020190930301A0930401B0930501C4
:101E600064C0803269F48091E80082FFFCCF67E0B3
:101E700086E091E00E94420A8BEF8093E80055C013
:101E8000823209F052C08F8980930D01EEEFFFE797
:101E9000859194918B3F9C4D19F0E0E0F8E002C0F1
:101EA000EEEFFAE08091060190910701A091080100
:101EB000B0910901803B9440A105B10509F09EC095
:101EC00080910D0180FF79C099C00E94BC0DFC017A
:101ED000028113810115110509F4B0C0D801ED91FB
:101EE000FC910190F081E02DBE016B5E7F4FC80137
:101EF000099581111AC0F80100851185EBCFF1E039
:101F0000FF1609F44EC0F3E0FF1298C08F898823B2
:101F100009F44AC0823089F440E86FE081E591E03D
:101F20000E94E609882309F489C08EEF8093E800B7
:101F300088C018161906CCF381C0813029F440E816
:101F40006EE082E491E0ECCF833009F077C00E942C
:101F5000BC0DDC011296ED90FC9013978E010F5F83
:101F60001F4F6801E114F10479F0D701ED91FC9164
:101F70000680F781E02DB801C7010995080F111DF2
:101F8000F701E084F184EECFD8011C92F6010190B4
:101F90000020E9F73197BF016C197D0940E0C601C7
:101FA000BFCF60E371E002C06CE271E0FB014491DD
:101FB00050E080E80E941B0AB8CFEE3F2AE0F2070B
:101FC00051F0808191818737A7E79A0721F090939C
:101FD000FF0A8093FE0A87E797E7918380838091C9
:101FE00060008093FB049BE088E10FB6F894A8950D
:101FF000809360000FBE9093600097CF80819181A5
:102000008737974709F091CFA89580916000886144
:10201000809360008091FB0480936000EE3FBAE003
:10202000FB0739F08091FE0A9091FF0A918380832B
:102030007CCF1092FF0A1092FE0A77CF81E2809344
:10204000EB006C960FB6F894DEBF0FBECDBFDF91EC
:10205000CF91FF91EF91BF91AF919F918F917F9120
:102060006F915F914F913F912F911F910F91FF9031
:10207000EF90DF90CF900F900FBE0F901F901895AC
:102080001F920F920FB60F9211242F933F934F93ED
:102090005F936F937F938F939F93AF93BF93EF93D0
:1020A000FF938EE295E00E94C40AFF91EF91BF91E9
:1020B000AF919F918F917F916F915F914F913F91E0
:1020C0002F910F900FBE0F901F9018951F920F9297
:1020D0000FB60F9211242F938F939F93EF93FF933B
:1020E000E0913E05F0913F058081E0914405F0913B
:1020F000450582FD12C09081809147058F5F8F73E7
:1021000020914805821751F0E0914705F0E0E25D2B
:10211000FA4F958F8093470501C08081FF91EF9121
:102120009F918F912F910F900FBE0F901F90189538
:102130001F93CF93DF93EC01162F0E94591D1817A0
:1021400039F0612FCE01DF91CF911F910C94611D69
:10215000DF91CF911F9108950C94591DCF93DF9378
:102160001F92CDB7DEB76983DC01ED91FC9102804F
:10217000F381E02D41E050E0BE016F5F7F4F099594
:102180000F90DF91CF91089590E0FC013197EF30EF
:10219000F105B0F5EA59FF4F0C94971D809180002E
:1021A0008F7703C0809180008F7D80938000089599
:1021B00080918000877FF9CF84B58F7702C084B586
:1021C0008F7D84BD0895809190008F7707C08091A6
:1021D00090008F7D03C080919000877F8093900056
:1021E00008958091C0008F7703C08091C0008F7DDB
:1021F0008093C00008958091C200877F8093C200C1
:1022000008953FB7F8948091880690918906A0912F
:102210008A06B0918B0626B5A89B05C02F3F19F002
:102220000196A11DB11D3FBFBA2FA92F982F882756
:10223000820F911DA11DB11DBC01CD0142E0660FB1
:10224000771F881F991F4A95D1F70895CF93DF9381
:10225000EC0180910D01882331F083E00E94EB0CAA
:102260001816190634F081E090E09B838A8380E0A1
:1022700090E0DF91CF91089583E00C944F0C83E0C0
:102280000E94DA0C90E008950F931F93CF93DF9391
:102290001F92CDB7DEB78C01FC018485958597FF31
:1022A00012C041E050E0BE016F5F7F4F82E00E94AC
:1022B000840D019719F4898190E002C08FEF9FEFA0
:1022C000F80195878487F801848595850F90DF91C3
:1022D000CF911F910F910895CF93DF931F92CDB7A8
:1022E000DEB7FC018485958597FD05C02FEF3FEF94
:1022F000358724870FC041E050E0BE016F5F7F4FFC
:1023000082E00E94840D019719F4898190E002C057
:102310008FEF9FEF0F90DF91CF910895FC0184859F
:10232000958597FD06C082E00E94B30D90E001966E
:10233000089582E00E94B30D90E00895DC01ED91D4
:10234000FC910190F081E02D0994EF92FF920F93A0
:102350001F93CF93DF937C01EA018A01060F171FB9
:102360000C171D0761F0D7018D919C916991DC01DB
:10237000ED91FC910190F081E02D0995F1CFDF9175
:10238000CF911F910F91FF90EF900895EF92FF92E0
:102390000F931F93CF93DF93FC01C081CC2309F4EB
:1023A00046C07C01CF3021F4618170E000E009C0BB
:1023B000C83070F0FC016181062F0F700F5F607FE5
:1023C00070E0238142818BEC95E00E94DD0231C0F8
:1023D000C43078F1892B69F1C43019F0D0E024972A
:1023E00002C0C3E0D0E0CE010E942B1F8C01F70198
:1023F0008181C130D10561F09281F80180839183A0
:10240000C230D10539F0F7018381F801828302C01F
:10241000F80180830115110561F0A801BE018FEE5E
:1024200095E00E94A511C8010E94C31F02C080E070
:1024300001C081E0DF91CF911F910F91FF90EF904C
:102440000895CF93DF93282F30E0F901E753FE4F33
:102450008491F901E655FE4FD491F901E557FE4FFD
:10246000C491CC2391F081110E94C410EC2FF0E0B4
:10247000EE0FFF1FE358FE4FA591B491EC91ED23B1
:1024800081E090E021F480E002C080E090E0DF9104
:10249000CF9108951F93CF93DF93282F30E0F90158
:1024A000E753FE4F8491F901E655FE4FD491F901AF
:1024B000E557FE4FC491CC23C1F0162F81110E9425
:1024C000C410EC2FF0E0EE0FFF1FE159FE4FA59175
:1024D000B4919FB7F894111104C08C91D095D82372
:1024E00002C0EC91DE2BDC939FBFDF91CF911F9157
:1024F0000895CF93DF9390E0FC01E655FE4F2491C1
:10250000FC01E557FE4F8491882361F190E0880F2C
:10251000991FFC01EF59FE4FC591D491FC01E1597F
:10252000FE4FA591B491611109C09FB7F8948881BD
:10253000209582238883EC912E230BC0623061F4B6
:102540009FB7F8948881322F309583238883EC914C
:102550002E2B2C939FBF06C08FB7F894E8812E2BAB
:1025600028838FBFDF91CF9108958F929F92AF9272
:10257000BF92CF92DF92EF92FF926B017C010E949B
:1025800001114B015C01C114D104E104F104F1F02B
:102590000E940111DC01CB0188199909AA09BB0924
:1025A000883E9340A105B10570F321E0C21AD1081D
:1025B000E108F10888EE880E83E0981EA11CB11C8A
:1025C000C114D104E104F10419F7DDCFFF90EF90BD
:1025D000DF90CF90BF90AF909F908F9008951F9203
:1025E0000F920FB60F9211242F933F938F939F93C7
:1025F000AF93BF938091FE049091FF04A0910005DA
:10260000B09101053091870623E0230F2D3720F488
:102610000196A11DB11D05C026E8230F0296A11D3C
:10262000B11D209387068093FE049093FF04A0932E
:102630000005B09301058091880690918906A091CC
:102640008A06B0918B060196A11DB11D8093880664
:1026500090938906A0938A06B0938B06BF91AF91A1
:102660009F918F913F912F910F900FBE0F901F90D0
:102670001895CF93DF93CDB7DEB72A970FB6F894AE
:10268000DEBF0FBECDBF789484B5826084BD84B5B3
:10269000816084BD85B5826085BD85B5816085BD5D
:1026A00080916E00816080936E0010928100809115
:1026B000810082608093810080918100816080939D
:1026C00081008091800081608093800080919100E2
:1026D000826080939100809191008160809391004D
:1026E000809190008160809390008091C10084600F
:1026F0008093C1008091C10082608093C10080916D
:10270000C10081608093C1008091C300816080938B
:10271000C3008091C00082608093C0008091C2009D
:1027200081608093C20080917A00846080937A00F7
:1027300080917A00826080937A0080917A00816033
:1027400080937A0080917A00806880937A0010925A
:10275000520110925101109250018091D700816076
:102760008093D70080EA8093D80089B5806189BDC5
:1027700089B5826089BD09B400FEFDCF61E070E0DB
:1027800080E090E00E94B5128091D8008F7C80613B
:102790008093D8008091E000807F8093E00080915A
:1027A000E1008E7E8093E1008DE08093E200559AF7
:1027B000209A60E971E080E090E00E94B51280E02C
:1027C00090E00E94AC108E3129F06EE180E090E044
:1027D0000E949810E091EF05F091F005A089B18971
:1027E00082E08C93A485B5851C92A685B7858FE37E
:1027F0008C93108EA489B58986E08C93A289B389C5
:102800008C9180618C93A289B3898C9188608C9320
:10281000A289B3898C9180688C930288F389E02D1A
:1028200080818F7D80831092F1051092F3051092C4
:10283000F2051092FA051092F9051092F80510921F
:10284000F7058FEF9FEF9093FC058093FB05909326
:10285000FE058093FD0510928506109202061092E7
:1028600001061092000610920306109204061092C0
:10287000FF058BE391E09093DA058093D9058CE610
:102880008093CA0181E08093C5018AE692E090932B
:1028900056018093550189E592E09093540180930D
:1028A00053011092DE0268EC70E080E090E00E943C
:1028B000B51280E090E00E94AC108F3F31F08FEFB6
:1028C00091E00E94AC108F3F81F401E010E060E0E5
:1028D000C8010E9498100F5F1F4F011522E01207D8
:1028E000B1F781E00E94B10365C162E082E00E941D
:1028F000791282E00E942112EE24E394892B09F0E0
:10290000E12CE092590182E390E09093580180938A
:102910005701BEE0CB2EB5E0DB2E16E2812E15E08E
:10292000912E86010E94AB09D80112968C93B4E0D7
:102930008B9FC00111240E942B1FF8019483838375
:102940000A5F1F4FF5E006321F0761F70EE015E042
:102950000E94AB09D8018C930A5F1F4FB5E0063285
:102960001B07B1F70EE015E00E94AB09F801818367
:102970000A5F1F4F80169106B9F7D60112969C90F8
:10298000129713960D911C911497F12C9F14D1F06E
:10299000F80110821182128213820E94AB09D801C1
:1029A0008C930E94AB09F80181830E94AB09D80186
:1029B00012968C930E94AB09F8018383F3940C5F09
:1029C0001F4FE4CFD60115961C92B6E0CB0ED11C5A
:1029D000E6E2CE16E5E0DE0681F684E190E0909333
:1029E0005801809357013BE5C32E31E0D32E860179
:1029F000F12C99249A9447E0842E54E1752E63E1DA
:102A0000662E70E1572EE8E04E2EFAE03F2EA9E048
:102A10002A2E0E94AB09D8018C930E94AB09F801C1
:102A20008183F6820E94AB09D80112968C930E9492
:102A3000AB09F80183830E94AB09D80114968C93EB
:102A4000B1E0BF1510F48E2D01C081E0F80185833F
:102A50008281482F4170478381FBAA24A0F8B12CC2
:102A60009A2D91709087282F2C7130E035952795FD
:102A7000359527952187807690E025E09595879577
:102A80002A95E1F78487158616861786108A4423CF
:102A900039F0C501F1E08F278170D8011F968C9322
:102AA000B3E0FB1611F1BF1538F0E1E0FE1691F02E
:102AB000F2E0FF16B1F006C024E0F216E1F035E0D6
:102AC000F31601F1EEE0D8011A96EC931A971B96D3
:102AD0008C921BC0D8011A965C921A971B964C9246
:102AE00014C0F8013286238610C0E5E1D8011A9699
:102AF000EC931A9704C0D8011A967C921A971B96E9
:102B00009C9203C0F80162869386F3940F5E1F4F78
:102B1000F6E0FF127ECF8FE090E00E94AC10182FFD
:102B200083708093DD0261E084E00E947912812F3E
:102B3000817010FF05C01092D9028093DB0205C09E
:102B400081E08093D9021092DB026091D9026093F8
:102B5000DC026093DA0284E00E944A1212FB8827AA
:102B600080F98093010113FB112710F910930001E4
:102B700068EC70E080E090E00E94B512D6011596F6
:102B80008C911597882361F062E01A968C910E94CF
:102B90007912F60183858F3F19F061E00E94791266
:102BA000F1E1CF0ED11C21ECC21621E0D20631F7A3
:102BB0000E942D0481E08093DE02CC24C394D12CAA
:102BC000B0E8AB2EB12C1091DE02112309F41FC323
:102BD000FBE5EF2EF1E0FF2ED70115968C911597AE
:102BE000882309F48DC01C967C901C97711088C0B6
:102BF0001A968C910E9421124C01F701858590E074
:102C00008816990699F02FB7F8948091FE04909158
:102C1000FF04A0910005B09101052FBF8093CC0166
:102C20009093CD01A093CE01B093CF012FB7F8942C
:102C30008091FE049091FF04A0910005B0910105E0
:102C40002FBF4091CC015091CD016091CE01709188
:102C5000CF01841B950BA60BB70BC397A105B1053C
:102C600008F447C0D7011E968C9190E0881699060B
:102C700009F43FC001E08114910409F400E0F70178
:102C8000068787818130C1F08085813089F001E03D
:102C90008114910409F000E08114910411F4EFE72C
:102CA0007E2E472DD70111966C9111978C9112C0F1
:102CB0008114910459F008C081149104D1F0078562
:102CC00008270787002311F07FE7772E472DF701AC
:102CD000618180810E94EE05602FD7011B968C9147
:102CE0000E944A12F701008B80915A0181110E94C3
:102CF0002D0481E0892809F480E0D7011D968C938A
:102D0000B1E1EB0EF11CE1ECEE16E1E0FE0609F09C
:102D100063CF1A865524539453E0852E912C60EF8F
:102D2000262E3090F10520E1231508F4FEC1809194
:102D3000EF059091F005DC01ED91FC910084F185A7
:102D4000E02D0995892B09F4F0C18091EF05909150
:102D5000F005DC01ED91FC910284F385E02D0995ED
:102D60007C018B7F893F09F4E0C18091F905909146
:102D7000FA05009709F0BAC02091860620FDB6C07A
:102D8000E092F4050091F205802F0E94B7020E94A4
:102D9000C902882351F0E7FC08C00093F405E092D3
:102DA000F505D092FA05C092F9050091F405802F3F
:102DB0000E94B702813F910509F462C090F5803B03
:102DC000910509F464C068F48039910509F45FC085
:102DD000803A910509F45BC08038910509F0EBC099
:102DE00056C0803D910509F44BC028F4803C910504
:102DF00009F446C0E0C0803E910509F448C0803F18
:102E0000910509F0D8C0B092F805A092F70510928C
:102E1000F205209205062091860621602093860601
:102E20003AC0883F9105B9F040F4833F910541F1E4
:102E300070F1863F910579F0BEC08A3F910508F494
:102E4000BAC08D3F910538F09C012E5F31092230C8
:102E5000310508F0B0C090930206809301061092ED
:102E600000061092030610920406509285061092F6
:102E7000FA051092F9051092F8051092F7052DC188
:102E8000E2E0F0E0F093F805E093F70504C09092DB
:102E9000F8058092F7052091F9053091FA054091E7
:102EA000F7055091F8054150510924173507B8F03E
:102EB00090930206809301060F700F5F0093000647
:102EC0008091F50580930306109204061092FA058E
:102ED0001092F9051092F8051092F7052AC02F5F9D
:102EE0003F4F3093FA052093F9051FC1E7FE6EC0EE
:102EF000970133272D3F31055CF42A3F31057CF4DF
:102F0000273F3105C9F0283F310509F05FC007C0F0
:102F1000A9014E5F51094230510508F057C0309366
:102F200002062093010610920306109204061092E6
:102F3000000650928506D1C0309105062091860684
:102F4000303F11F020FF37C0BC016F5F7F4F70939F
:102F5000FA056093F905FC01E553FA4F37EF32AFFC
:102F600080EF90E0909302068093010620FF09C055
:102F7000E091D905F091DA05309719F085E096E0F7
:102F800009959091F9058091FA0590930306809335
:102F900004061092000650928506809186068E7F68
:102FA000809386061092FA051092F9051092F805A2
:102FB0001092F70589C01092FA051092F905109247
:102FC000F8051092F7051092F205AFC02091F405B4
:102FD000FC01E553FA4F203F21F02091860620FFA7
:102FE00002C0E2AE01C0E1A66090F7057090F8055E
:102FF0009301215031098217930708F468C00091AA
:10300000F405003F21F08091860680FF10C0E0911A
:10301000D905F091DA05309729F060E870E085E095
:1030200096E009951092FA051092F9057EC0802F5E
:103030000E94B7027C0190930206809301060E94D1
:10304000C902882331F0802F8F708F5F8093000634
:1030500002C0109200068091F5058093030693E06C
:103060006916710419F48091F60501C080E080931F
:1030700004061092FA051092F9051092F8051092C4
:10308000F70550928506A0EBEA16F104D1F068F43A
:10309000E0E9EE16F104A9F0F0EAEF16F10489F088
:1030A00020E8E216F10481F40CC030EDE316F104DF
:1030B00041F080EEE816F10421F090ECE916F104FD
:1030C00019F40093F20509C01092F20506C00196AA
:1030D0009093FA058093F90528C08091010690919C
:1030E00002068039910529F480910406882309F4A9
:1030F0004CC280910106909102069C012058310932
:103100002136310508F046C220910006321609F436
:1031100041C2332009F43EC2712C8091FF05982FE3
:10312000917080FD5AC1711017C210E001E08091CA
:10313000D0029091D102A091D202B091D3024091DD
:10314000D4025091D5026091D6027091D702841BAF
:10315000950BA60BB70B8F739927AA27BB27892B33
:103160008A2B8B2B09F456C08091D4029091D50202
:10317000A091D602B091D702880F991F880F991F8E
:10318000FC01E053FE4F9080F180E280838040910B
:10319000D0025091D1026091D2027091D3028091FD
:1031A000D4029091D502A091D602B091D7024817CF
:1031B00059076A077B07B9F08091D4029091D50234
:1031C000A091D602B091D7020196A11DB11D8F73B7
:1031D0009927AA27BB278093D4029093D502A09366
:1031E000D602B093D7029E82FF82E886898691102C
:1031F00079C08E8181119BCF9A859111A9C011113F
:10320000A7C08091DD028250823008F0A6C00E94E3
:10321000530BD9CC809105050E94B30D882309F486
:103220005CC08091D0029091D102A091D202B09165
:10323000D3020196A11DB11D2C013D01EFE34E22E9
:103240005524662477248091D4029091D502A091D0
:10325000D602B091D70284159505A605B70509F4E5
:1032600083CF809105050E94B30D44E050E0BE017C
:103270006F5F7F4F809105050E94840D04970CF4C9
:1032800073CF8091D0029091D102A091D202B091DF
:10329000D302880F991F880F991FFC01E053FE4F3E
:1032A00049815A816B817C8140835183628373831E
:1032B0004092D0025092D1026092D2027092D30218
:1032C000D301C2010196A11DB11D2C013D01FFE3F7
:1032D0004F22552466247724B6CF812CE12CF12C83
:1032E000912C55CF8091CB01811104C020EFF212B7
:1032F00062C203C030EFF31209C00093CB011092F9
:10330000C801D092C701C092C60103C08F2D0E9490
:10331000A5068E2D0E94A506882D0E94A5069091D7
:10332000D8028091CA01981761F08F2D0E947F0208
:103330008FE0981631F08E2D0E947F02882D0E941A
:103340007F028091CB0181113AC21092D80237C21C
:103350008091DB028093DC0254CF8FB7F8944091C8
:10336000FE045091FF0460910005709101058FBF2C
:1033700000912A0510912B0520912C0530912D05E7
:10338000011511052105310549F440932605509397
:103390002705609328057093290513C2809126059F
:1033A00090912705A0912805B0912905481B590B3C
:1033B0006A0B7B0B401751076207730708F427CF8E
:1033C000800F911FA21FB31F80932605909327059E
:1033D000A0932805B0932905F4C1282F2E7F09F466
:1033E000A2CE60910106709102069B01205831091E
:1033F00021363105F8F400910006301619F091E0FD
:10340000311090E08695823031F0833041F0813088
:1034100009F089CE06C0992309F485CE02C0911126
:1034200082CE20910406409103068BEC95E00E9429
:10343000DD0279CEFB01E05FF109E031F10508F032
:1034400072CEEA5AFF4F0C94971D8FEE95E00E94C2
:103450009C0269CE60910306709104066138710583
:1034600010F060E870E045E056E08FEE95E00E94D5
:10347000A51159CE009103068091EF059091F005BA
:10348000DC01ED91FC910190F081E02D63EF099555
:103490000F77602F70E08091EF059091F0050E940A
:1034A0009E1141CEE0900406B0E8EB9E700111241D
:1034B00080910306E82A8091EF059091F005DC01E8
:1034C000ED91FC910190F081E02D62EF09958091E2
:1034D000EF059091F005B7016F777727DC01ED914B
:1034E000FC910190F081E02D09958091EF0590917C
:1034F000F005B701660F672F661F770B71956F7721
:103500007727DC01ED91FC910190F081E02D22C044
:10351000009103060770B0E10B9FC00111240091D8
:1035200004060F70082B8091EF059091F005DC01E7
:10353000ED91FC910190F081E02D61EF0995809172
:10354000EF059091F005DC01ED91FC910190F08187
:10355000E02D602F0995E7CD80910106909102063C
:103560009A838983809100068B83809103068C83E4
:10357000809104068D83CE0101960E94C5048823A4
:1035800009F4CFCBF1E0FA87CCCBB0920206A0923F
:103590000106AFCD813F9105B1F5E091DB05F091DA
:1035A000DC050CC08B3F910508F0E4C0833F91051A
:1035B00009F0C1C0E091DF05F091E005309709F115
:1035C0008091030609951DC0813D910508F475C0E1
:1035D000803E910509F081C0E091D705F091D805B2
:1035E000309779F0609104066F77A0E86A9FB00188
:1035F0001124809103068F77682B7052809100060A
:103600000995712E8ACD823F910508F07EC0803BDE
:10361000910529F4E091D105F091D2050BC0813BD1
:10362000910508F041C08038910571F4E091CB0517
:10363000F091CC05309729F3409104066091030680
:10364000809100060995DDCF81389105E8F4892B3A
:10365000C1F28091860680FB772470F880FFD1CF7D
:10366000E091D905F091DA05309709F456CD6091D3
:103670000306709104066138710510F060E870E08F
:1036800085E096E0099549CD8039910529F4E091CE
:10369000CD05F091CE05CECF803A9105D1F6E091DF
:1036A000CF05F091D005C6CF803D910509F08CCFB4
:1036B000E091D505F091D60507C0803C910549F60B
:1036C000E091D305F091D405309709F49ACF609139
:1036D000030680910006099594CF803F910509F07B
:1036E000B8CFE091D905F091DA05309709F489CF88
:1036F00060910306709104066138710510F060E86E
:1037000070E085E096E009957CCF8A3F910509F04D
:1037100049CFE091E505F091E60508C0883F9105A5
:1037200009F097CFE091E305F091E405309709F4B3
:1037300068CF099566CF833F9105A0F4E091DD0540
:10374000F091DE05309709F45CCF809104068F7705
:10375000B0E88B9FC0011124209103062F77822BA4
:1037600009954FCF863F9105C9F6E091E105F091AB
:10377000E205DCCF8C3F910529F4E091E905F09159
:10378000EA05D4CF8C3F910528F4E091E705F0914C
:10379000E805CCCF8E3F910529F4E091EB05F0913F
:1037A000EC05C4CF8F3F910509F053CFE091ED05B3
:1037B000F091EE05BBCFCE0106960E94C61111E036
:1037C00018CD1091DC028091DB0218130FC000911C
:1037D000D9028091DA02801306C0612F84E00E9432
:1037E0004A121093DA020093DC0211CD9091DA02B2
:1037F00089130DCD1091D902612F84E00E944A12E5
:103800001093DA0204CD10928F0610928E0688EE85
:1038100093E0A0E0B0E08093900690939106A0938F
:103820009206B09393062FE131E030938D062093FA
:103830008C062FEF3FEF3093990620939806109255
:103840003105109230058093320590933305A09393
:103850003405B093350581E391E090932F05809373
:103860002E058DEC90E090933B0580933A058CEC0F
:1038700090E090933D0580933C0588EC90E0909318
:103880003F0580933E0589EC90E09093410580933D
:1038900040058AEC90E090934305809342058EECBE
:1038A00090E090934505809344051092470510924F
:1038B00048051092490510924A0582E0809306055A
:1038C000809307058CE095E09093090580930805A7
:1038D00010920B0510920A0583E491E09093030582
:1038E0008093020580E880930C0581E880930D05A4
:1038F0000E94BC0DFC0121818091060590E0820FA1
:10390000911D0897C4F5A281B381109729F482E034
:1039100095E0938382830EC018968D919C911997A0
:10392000009711F0DC01F8CF82E095E019969C93A6
:103930008E9318978081809304058181809305057B
:10394000908180910705890F808380E09091060522
:10395000891788F4A0910805B0910905A80FB11D39
:103960009C91A181B0E0A25FBE4F9C9391819F5F2B
:1039700091838F5FEBCF1092120510921105109278
:1039800018051092170510921E0510921D05109231
:1039900024051092230589E190E0A0E0B0E0809337
:1039A0002A0590932B05A0932C05B0932D058EE24C
:1039B00095E09093F0058093EF051092F105109239
:1039C000F2051092F3051092F8051092F705109287
:1039D000FA051092F9058FEF9FEF9093FC05809305
:1039E000FB059093FE058093FD0583E08093FF0522
:1039F0001092000610920206109201061092030621
:103A0000109204061092850680E8E5E0F6E0DF01FA
:103A10001D928A95E9F7809186068E7F80938606AF
:103A20001092CC051092CB051092CE051092CD05C8
:103A30001092D0051092CF051092D2051092D105A8
:103A40001092D4051092D3051092D6051092D50588
:103A50001092D8051092D7051092DA051092D90568
:103A60001092DC051092DB051092DE051092DD0548
:103A70001092E0051092DF051092E2051092E10528
:103A80001092E4051092E3051092E6051092E50508
:103A90001092E8051092E7051092EA051092E905E8
:103AA0001092EC051092EB051092EE051092ED05C8
:103AB0000895F999FECF92BD81BDF89A992780B5F6
:103AC0000895262FF999FECF1FBA92BD81BD20BD62
:103AD0000FB6F894FA9AF99A0FBE01960895AA1BA8
:103AE000BB1B51E107C0AA1FBB1FA617B70710F0E9
:103AF000A61BB70B881F991F5A95A9F7809590951B
:103B0000BC01CD01089597FB072E16F4009407D051
:103B100077FD09D00E946F1D07FC05D03EF49095FB
:103B200081959F4F0895709561957F4F0895EE0F91
:103B3000FF1F0590F491E02D09940E940C1F90F056
:103B40009F3748F4911116F40C94251F60E070E043
:103B500080E89FE3089526F01B16611D711D811DED
:103B60000C949F1E0C94BA1E0E94C81D0C94D91E62
:103B70000E94D21E58F00E94CB1E40F029F45F3FF5
:103B800029F00C94991E51110C94251F0C94C81EF9
:103B90000E94EA1E68F39923B1F3552391F3951B14
:103BA000550BBB27AA2762177307840738F09F5F5E
:103BB0005F4F220F331F441FAA1FA9F335D00E2ECB
:103BC0003AF0E0E832D091505040E695001CCAF738
:103BD0002BD0FE2F29D0660F771F881FBB1F2617FB
:103BE00037074807AB07B0E809F0BB0B802DBF01D2
:103BF000FF2793585F4F3AF09E3F510578F00C94A1
:103C0000991E0C94251F5F3FE4F3983ED4F38695EC
:103C100077956795B795F7959F5FC9F7880F911DC1
:103C20009695879597F90895E1E0660F771F881FAD
:103C3000BB1F621773078407BA0720F0621B730B60
:103C4000840BBA0BEE1F88F7E09508950E942D1E95
:103C50006894B1110C94251F08950E94F21E88F0FB
:103C60009F5798F0B92F9927B751B0F0E1F0660F40
:103C7000771F881F991F1AF0BA95C9F714C0B13081
:103C800091F00E94241FB1E008950C94241F672F27
:103C9000782F8827B85F39F0B93FCCF386957795B0
:103CA0006795B395D9F73EF4909580957095619599
:103CB0007F4F8F4F9F4F0895E89409C097FB3EF4C4
:103CC00090958095709561957F4F8F4F9F4F992369
:103CD000A9F0F92F96E9BB279395F69587957795E7
:103CE0006795B795F111F8CFFAF4BB0F11F460FFA7
:103CF0001BC06F5F7F4F8F4F9F4F16C0882311F0FF
:103D000096E911C0772321F09EE8872F762F05C012
:103D1000662371F096E8862F70E060E02AF09A95AD
:103D2000660F771F881FDAF7880F9695879597F9A2
:103D3000089597F99F6780E870E060E00895882310
:103D400071F4772321F09850872B762F07C06623D4
:103D500011F499270DC09051862B70E060E02AF095
:103D60009A95660F771F881FDAF7880F96958795C3
:103D700097F908959F3F31F0915020F487957795FA
:103D80006795B795880F911D9695879597F9089532
:103D90009FEF80EC089500240A9416161706180663
:103DA0000906089500240A9412161306140605063F
:103DB0000895092E0394000C11F4882352F0BB0FD0
:103DC00040F4BF2B11F460FF04C06F5F7F4F8F4F33
:103DD0009F4F089557FD9058440F551F59F05F3F6E
:103DE00071F04795880F97FB991F61F09F3F79F01D
:103DF00087950895121613061406551FF2CF46959F
:103E0000F1DF08C0161617061806991FF1CF869520
:103E100071056105089408950E94F21EA0F0BEE7A6
:103E2000B91788F4BB279F3860F41616B11D672FA9
:103E3000782F8827985FF7CF869577956795B11D7E
:103E400093959639C8F30895E894BB27662777279A
:103E5000CB0197F908950F931F93CF93DF9382308F
:103E6000910510F482E090E0E091DE06F091DF062B
:103E700020E030E0A0E0B0E0309719F140815181BE
:103E80000281138148175907C8F08417950769F410
:103E9000109731F012960C93129713961C9327C02B
:103EA0000093DE061093DF0622C02115310519F0BC
:103EB0004217530718F49A01BD01EF01DF01F80121
:103EC000DBCF21153105F9F0281B390B24303105E2
:103ED00080F48A819B816115710521F0FB01938338
:103EE000828304C09093DF068093DE06FE01329643
:103EF00044C0FE01E20FF31F8193919322503109D8
:103F0000398328833AC02091DC063091DD06232BCB
:103F100041F420911701309118013093DD06209370
:103F2000DC0620911501309116012115310541F46F
:103F30002DB73EB74091190150911A01241B350B42
:103F4000E091DC06F091DD06E217F307A0F42E1BEA
:103F50003F0B2817390778F0AC014E5F5F4F2417ED
:103F6000350748F04E0F5F1F5093DD064093DC0687
:103F70008193919302C0E0E0F0E0CF01DF91CF9117
:103F80001F910F910895CF93DF93009709F481C09B
:103F9000FC01329713821282A091DE06B091DF06F7
:103FA000109781F420813181820F931F2091DC06CC
:103FB0003091DD062817390751F5F093DD06E093BF
:103FC000DC0667C0ED0120E030E0CE17DF0740F4EB
:103FD0004A815B819E0141155105F1F0EA01F5CF5F
:103FE000D383C28340815181840F951FC817D9079D
:103FF00059F488819981840F951F0296918380835B
:104000008A819B81938382832115310529F4F09362
:10401000DF06E093DE063DC0E901FB83EA834991B8
:104020005991C40FD51FEC17FD0761F48081918170
:10403000840F951F0296E901998388838281938179
:104040009B838A83E0E0F0E012968D919C91139718
:10405000009719F0FD01DC01F7CF8D919C9111972C
:104060009D012E5F3F4F820F931F2091DC06309100
:10407000DD062817390769F4309729F41092DF0616
:104080001092DE0602C013821282B093DD06A09366
:10409000DC06DF91CF91089581E090E0F8940C94D4
:1040A0005A20FB01DC0102C001900D9241505040AA
:0840B000D8F70895F894FFCF42
:1040B8000101FFFFFFFF00E100000000000000C158
:1040C80080810000000000E006200000000000AE33
:1040D8001026113F113C118E116C11441100000083
:1040E80000E50A4F0A7D0A310BAE0A8C0AA00A00C5
:1040F800000000600B620B5D0B450C4D4944490004
:00000001FF
