:100000000C94F5000C941D010C941D010C941D0121
:100010000C941D010C941D010C941D010C941D01E8
:100020000C941D010C941D010C944E0C0C94F70DB6
:100030000C941D010C941D010C941D010C941D01C8
:100040000C941D010C941D010C941D010C941D01B8
:100050000C941D010C941D010C941D010C94BB12F9
:100060000C941D010C945B100C9435100C941D0124
:100070000C941D010C941D010C941D010C941D0188
:100080000C941D010C941D010C941D010C941D0178
:100090000C941D010C941D010C941D010C941D0168
:1000A0000C941D010C941D010C941D01F419521A9D
:1000B0001C1A041A5D185D18EF195D18EF195D1808
:1000C000EF19EF19EF195D18EF19EF19F111F4118C
:1000D000E311E711ED11151215121512F811FC11AB
:1000E000001206120A12151210120000000023005E
:1000F000260029002C002F00080B0002020201003C
:10010000090400000102020000052400100105247A
:1001100001010104240206052406000107058103EC
:1001200010004009040100020A0000000705020255
:100130004000000705830240000004030904120187
:100140000002EF02014009127E00000101020301DA
:100150005A656E6472756D2053747564696F005AC8
:10016000445320536869667465722050726F0000B2
:10017000000000240027002A002D003000000000AD
:1001800000250028002B002E003100040404040484
:10019000030405020202020403020202020606062A
:1001A00006060604040202020404040802011040C8
:1001B00080401020408040800802040180402010D0
:1001C0000201108010204040200000000200090FB2
:1001D0000000030401000C0000000000000000000B
:1001E0000000000000000000CD1B11241FBECFEF57
:1001F000DAE0DEBFCDBF11E0A0E0B1E0ECE4F0E476
:1002000002C005900D92A035B107D9F726E0A0E510
:10021000B1E001C01D92AF3DB207E1F710E0C5EFBC
:10022000D0E004C02197FE010E94611DC43FD107A8
:10023000C9F70E9405130C9424200C940000A5EE2D
:10024000B2E07C91E0915501F0915601682F119632
:100250008C91119712969C9109951092E80208953D
:1002600098E088E10FB6F894A895809360000FBEDF
:1002700090936000FFCFEF92FF920F931F93CF9365
:10028000DF93CDB7DEB79C018B01EDB6FEB6892BAF
:1002900009F456C06115710509F452C0CB010296EC
:1002A00063E070E00E94391D660F771F660F771FAD
:1002B0008DB79EB7861B970B0FB6F8949EBF0FBEE7
:1002C0008DBF0196D901FC0134E00230110561F0C7
:1002D0000330110591F001301105D9F425E0208398
:1002E0002C912183128207C026E020832C91218348
:1002F00011962C91228313821EC027E020832C911B
:10030000218311962C911197228312962C9123838D
:1003100012C030832C91218311962C911197228346
:1003200012962C9112972383035011091396349639
:100330000115110551F6E0915301F0915401099511
:100340000FB6F894FEBE0FBEEDBE0FB6F894FEBE1B
:100350000FBEEDBEDF91CF911F910F91FF90EF90F7
:1003600008956F927F929F92AF92BF92CF92DF9249
:10037000EF92FF920F931F93CF93DF93CDB7DEB72A
:100380006C018B01EDB6FEB680E090E00E94261E67
:1003900020E030E040EE50E40E947E1D0E94671D88
:1003A0000E94F01D98012B5F3F4F620F731F8DB7A6
:1003B0009EB7861B970B0FB6F8949EBF0FBE8DBFDE
:1003C000EDB7FEB7319680EFADB7BEB711968C93FF
:1003D0008CE681838EE1828363E070E00115110574
:1003E00009F44AC080E0AA24A394B12C282F30E05D
:1003F0002017310708F040C020E030E0912C922F08
:10040000482F50E040175107A0F48F5F4C0D5D1D41
:10041000DA019C9197FF07C0A501022E01C0440F8D
:100420000A94EAF7942A2F5F3F4F2730310539F7B6
:1004300097E09F01260F371FD9019C92DB0111968F
:100440003D016E0E7F1E992E482F50E0911007C07F
:10045000292F30E02F5F3F4F620F731FC7CF9A01E4
:10046000291931092C0D3D1DD9012C912F77D3016C
:100470002D933D019A94EACFDF01A60FB71F87EFB6
:100480008C936F5F7F4FCF010E943B010FB6F894B2
:10049000FEBE0FBEEDBEDF91CF911F910F91FF9079
:1004A000EF90DF90CF90BF90AF909F907F906F9034
:1004B0000895CF93DF939C01AB01C1E0D5E08B8120
:1004C000B9018F5F0E94E00C8B818F5FDF91CF912C
:1004D0000C94440CCF93DF9300D000D0CDB7DEB79F
:1004E00069837A838B839C83CE0101960E947E115F
:1004F0000F900F900F900F90DF91CF9108959091F2
:10050000E802913069F018F0923071F0089580930C
:10051000E50291E09093E802873F69F486E009C024
:100520008093E60292E0F6CF8093E702873FB1F333
:1005300084E00C941F0108956D3F710538F46A3F03
:10054000710550F4683F710589F406C09B012E5F68
:1005500031092230310550F4DC018D919C91DC0190
:10056000ED91FC910190F081E02D0994089587FFB1
:100570000DC09CE0980F923048F0982F9B7F993FD8
:1005800029F0803F08F4807F90E0089580E090E0BB
:1005900008959C018F7C8038910561F0203D3105E4
:1005A00049F081E0203E310539F0203C310521F051
:1005B00080E0089581E008950895DF92EF92FF9220
:1005C0000F931F93CF93DF930150003108F04CC07D
:1005D000603871050CF448C0613E7105ACF5122F0E
:1005E000D42EEB017C01DC0194968D919C91959722
:1005F000602BDC01ED91FC910190F081E02D0995DB
:10060000F70184A195A16D2D6F77DC01ED91FC912F
:100610000190F081E02D0995BE016F7E603C71056F
:1006200019F1F70184A195A1612F6F77DC01ED919C
:10063000FC910190F081E02DDF91CF911F910F91FE
:10064000FF90EF90DF9009949B01285F31092830DB
:10065000310550F48496DF91CF911F910F91FF9057
:10066000EF90DF900C949C02DF91CF911F910F913E
:10067000FF90EF90DF900895682F8091570190913F
:1006800058019C012F5F3F4F309358012093570131
:100690000C948D10EF92FF920F931F93CF93DF93E3
:1006A00082E390E09093580180935701CDE0D5E02C
:1006B00095E2E92E95E0F92E8E01F80182810E94E3
:1006C0003C030A5F1F4FF5E005321F07B1F70DE04D
:1006D00015E0F80180810E943C030A5F1F4FE0167D
:1006E000F106B9F70DE015E0F80181810E943C03A5
:1006F0000A5F1F4FE016F106B9F784E0E82EF12CEF
:100700008A81F81618F5F4E0FF9E80011124EB8130
:10071000FC81E00FF11F80810E943C03EB81FC8192
:10072000E00FF11F81810E943C03EB81FC81E00F0F
:10073000F11F82810E943C038B819C81FC01E00FB0
:10074000F11F83810E943C03F394DACFEA9426964A
:10075000E110D5CFDF91CF911F910F91FF90EF90D6
:100760000895EF92FF920F931F93CF93DF93F82E8C
:10077000C4E1D0E060E0CE010E948D102196C11549
:1007800082E0D807B9F7C4E1D0E000E09EE6E92EA8
:10079000E00E8DEF800F833018F010E06BE002C0A8
:1007A00012E069E080E1689FB00111246960CE0128
:1007B0000E948D106E2DCE0101960E948D10612F2A
:1007C00070E085E0660F771F8A95E1F7CE0102960B
:1007D0000E948D1060E0CE0103960E948D106FE79D
:1007E000CE0104960E948D100F5F2596063071F69B
:1007F000C2E3D0E060E0CE010E948D102196C633A6
:10080000D105C1F769E0CE010E948D102196CA334F
:10081000D105C1F76EE68AE390E00E948D106FE685
:100820008BE390E00E948D1060E78CE390E00E94E3
:100830008D1061E78DE390E00E948D106CE08FE0F9
:1008400090E00E948D10F1100E943001DF91CF9155
:100850001F910F91FF90EF900895CF93DF93CDB745
:10086000DEB763970FB6F894DEBF0FBECDBF89E049
:10087000898386E08A836AE571E0CE010396FE01F2
:1008800039969B01D90115964C91DC014D93CD0110
:100890002F5E3F4FAE17BF07A9F7CE010F96DB01C2
:1008A00050962C9121936F5E7F4F8E179F07B9F75B
:1008B000809112058F8780911805888B80911E0585
:1008C000898B809124058A8B8FE090E00E94A11093
:1008D0008B8B63E170E0CE0101960E94B1016396BB
:1008E0000FB6F894DEBF0FBECDBFDF91CF91089554
:1008F000EF92FF920F931F93CF93DF937C01CDE094
:10090000D5E080E0288130E02F5F3F4FF701428142
:1009100050E02417350769F529819381291329C0EF
:1009200081E09481911101C080E08D830AE511E09E
:10093000F80185818823B1F080818F7098818913B7
:1009400011C09181898198130DC06D81678783855E
:100950000E9416128D81F801808B809159018111BE
:100960000E942D040F5E1F4FF1E0003C1F0701F7AE
:1009700081E0269695E0C532D90721F6DF91CF9127
:100980001F910F91FF90EF900895EF92FF920F93B8
:100990001F93CF93DF9300D000D0CDB7DEB7FC011B
:1009A00020813181203F310509F476C07C01213F4F
:1009B0003105C8F4203B310591F150F4203931055F
:1009C00091F1203A310579F12038310531F52BC00C
:1009D000203D310541F1203E310509F45FC0203C46
:1009E0003105D9F420C0283F310509F457C040F43F
:1009F000243F310508F452C0263F310571F44EC042
:100A00002A3F310550F02D3F310508F447C02E5FD5
:100A100031092230310508F441C010E043C00E9482
:100A2000780481113DC0C7010E945E0511E0882352
:100A3000C9F180910101882351F0F7016081718132
:100A40000281248143818AEC95E00E94DD0280913D
:100A50000001882339F1F7012081318182818150A1
:100A6000822B4381948154E0359527955A95E1F77F
:100A700029838A834B839C838091040544E050E062
:100A8000BE016F5F7F4F8F5F0E94E00C8091040575
:100A90008F5F0E94440C06C011E004C010E0C9CF73
:100AA00011E0C7CF812F0F900F900F900F90DF9123
:100AB000CF911F910F91FF90EF9008959F92AF9269
:100AC000BF92CF92DF92EF92FF920F931F93CF933B
:100AD000DF93EC018DE0C82E85E0D82EBB24B394C3
:100AE00090E9E92EF12CD092E402C092E302F601E3
:100AF0008581882309F45CC0928000E010E0A12C7D
:100B0000A91409F455C0E091E302F091E4020380D6
:100B1000F481E02DE00FF11F2081422F4F7050E053
:100B20008A8190E0019748175907F1F591818B81EF
:100B300098133AC0207F3281932F907F832F8F703C
:100B4000488159814038510571F4203961F5307E72
:100B5000303849F58F5F8A83903811F55093DF0262
:100B60004093DE020BC030E042175307E9F48F5F79
:100B7000903889F4F092DF02E092DE029C8190933B
:100B8000E2028093E00283818093E1028EED92E0A5
:100B90000E94C50409C0292F30E0398328838A8345
:100BA00083818B8301C0B12CA3940C5F1F4FA8CF0E
:100BB000F6E0CF0ED11C85E2C81685E0D80609F014
:100BC00092CF8B2DDF91CF911F910F91FF90EF90DE
:100BD000DF90CF90BF90AF909F900895CF93DF9319
:100BE00000D000D01F92CDB7DEB7282F207F30E095
:100BF0003A8329838F708F5F8B836C834D83CE0103
:100C000001960E947804CE0101960E94C5040F90BF
:100C10000F900F900F900F90DF91CF9108956F92EA
:100C20007F928F929F92AF92BF92CF92DF92EF927C
:100C3000FF920F931F93CF93DF93CDB7DEB76DB6BF
:100C40007EB6EDE0F5E000E010E0828194E0899F5F
:100C5000000D111D11240D5F1F4F369685E0E53202
:100C6000F80799F758019FEFA91AB90AEDB7FEB72F
:100C7000EA19FB090FB6F894FEBF0FBEEDBF8DB7A2
:100C80009EB701966C0186E0818346019FEF891A29
:100C9000990AE12CF12CE016F10659F0C701C29631
:100CA0000E94A110F40181934F01FFEFEF1AFF0A98
:100CB000F2CFB501C6010E94B1010FB6F8947EBE15
:100CC0000FBE6DBEDF91CF911F910F91FF90EF90FE
:100CD000DF90CF90BF90AF909F908F907F906F905C
:100CE0000895EF92FF920F931F93CF93DF93CDB7A9
:100CF000DEB76F970FB6F894DEBF0FBECDBF84E0AE
:100D000089837E0182E0E80EF11C04E110E0C80155
:100D10000E94A110F70181937F010F5F1F4F0233E3
:100D20001105A9F76FE170E0CE0101960E94B101B3
:100D30006F960FB6F894DEBF0FBECDBFDF91CF9197
:100D40001F910F91FF90EF9008958F929F92AF9215
:100D5000BF92CF92DF92EF92FF920F931F93CF93A8
:100D6000DF93CDB7DEB7C254D1090FB6F894DEBF1A
:100D70000FBECDBFF82E8091CA01882309F4CCC2E2
:100D80002091C5013091C60167EFF6126CC2109236
:100D9000CA01C90101969093C6018093C5010091D3
:100DA000C0011091C101101611060CF0B5C280915E
:100DB000EA02843120F08D57823008F0ADC28FE016
:100DC00089831A8262E070E0CE0101960E94B1012F
:100DD0008091EA028B3009F413C1A8F4853009F43C
:100DE000EFC040F4833009F4C2C008F0C7C08130BE
:100DF00009F12EC2893009F4F2C008F0F5C087303D
:100E000009F47BC025C2803109F4B9C148F48D30A2
:100E100009F44AC108F404C18E3009F411C118C2A2
:100E20008D3709F47DC08E3709F47EC0813109F019
:100E30000FC2DBC10A5011090230110508F008C2C7
:100E400080935901EE24E394F12C00E010E0C701F7
:100E50000E94A110882379F08D3251F08F3541F036
:100E6000982F9F7D91549A3118F080538A3010F456
:100E700011E001C001E07FEFE71AF70A8FE0E81602
:100E8000F10429F7112351F0011108C07E01A5E3F7
:100E9000EA0EF11C670101E010E012C07BEEE72EC4
:100EA00072E0F72E01E010E0F70161917F01C801C7
:100EB0000E948D100F5F1F4F0F301105A9F7E6CF6D
:100EC000C8010E94A110D6018D936D010F5F1F4FC5
:100ED0000F301105A9F782E089838EE18A83FE0134
:100EE0003396CE014196D7012D917D0121938E1726
:100EF0009F07C9F760E170E073C10130110509F087
:100F0000A7C188E0898382E08A8362E070E0CE0135
:100F100001960E94B1016CE271E080E090E05AC05D
:100F20000130110509F46AC00230110509F090C1C1
:100F30001091EB0281E0111101C080E00E94B10329
:100F4000112309F485C180915901882309F480C1D6
:100F500064EF71E080E090E00E9481120E947106CF
:100F600064EF71E080E090E00E9481122DC00130BA
:100F7000110509F06DC10E94710628C00B301105E2
:100F800019F00F311105D1F55AEEC52E52E0D52ECC
:100F90000D5E1F4F64E1E62EF12CE016F10671F1B3
:100FA000B2E3EB16F10428F4F6016181C7010E9457
:100FB0008D10FFEFEF1AFF0A2FEFC21AD20AEDCF02
:100FC0000130110509F044C10E940F0664EF71E081
:100FD00080E090E00E9481120E942D0439C101300E
:100FE000110509F035C1F8CF0230110509F030C103
:100FF0006091EB028FE090E00E948D100E94300122
:101000000330110509F024C1E091EB0236E0E39FC3
:10101000F0011124E35FFA4F8091EC028083ACC0B1
:101020000330110509F014C1E091EB0266E0E69F80
:10103000F0011124E35FFA4F8091EC0281839CC0A0
:101040000330110509F004C18091EB023091EC02EC
:1010500076E0879FC0011124835F9A4FBC016E5FC9
:101060007F4FDC011396FB012081832F90E0422FFC
:1010700050E041505109841795079CF4ED91FC9183
:101080001197880F991F880F991FE80FF91FC480C7
:10109000D580E680F780C082D182E282F3823F5F12
:1010A000E2CF2150208368C00730110509F0D0C07D
:1010B000C090EB02D12CF090EC02BFEFFB1231C0DC
:1010C00026E02C9DC0012D9D900D1124FC01E35FB5
:1010D000FA4F4F01F28001E00F0D0283F4E00F9F01
:1010E00080011124C8010E94F51E5C01D4011396F1
:1010F0008D909C901497A80144505109B4010E940E
:101100001B208114910419F0C4010E948D1F86E0F8
:101110008C9DF0018D9DF00D1124E35FFA4FB48298
:10112000A382B4E0FB9EC00111242091ED0236E0C1
:101130003C9DF0013D9DF00D1124E35FFA4FA3812A
:10114000B481A80FB91F2C932091EE02A381B48122
:10115000A80FB91F11962C932091EF02A381B4819F
:10116000A80FB91F12962C932091F0020380F481EE
:10117000E02DE80FF91F23830E944A0369C0013064
:10118000110509F065C089839FE0C92ED12CEE249A
:10119000E394F12C30E1B32E87010F5F1F4FC6019E
:1011A0000E94A110E1E0F0E0EC0FFD1FEE0DFF1D2D
:1011B00080830433110550F4EFEFCE1ADE0AF1E01C
:1011C000CF16F2E0DF0659F07801E6CFB801CE0184
:1011D00001960E94B101B98201E010E0EDCFB801A3
:1011E000CE0101960E94B10133C00630110584F191
:1011F0008091EB020091EC02809F80011124015F3D
:101200001F4F8AEEE82E82E0F82E68018091ED02F1
:1012100090E097012A5E32402817390788F4C114FC
:1012200022E0D20630F4D70114966C91C6010E94D8
:101230008D10BFEFCB1ADB0AEFEFEE1AFE0AE6CFF6
:101240008091EC02080F111D0130124008F0D6CE3B
:101250008FE0898381E08A8362E070E0CE010196AD
:101260000E94B10159C060EFF61609F44FC0809199
:10127000C40190E08217930759F4F092C7011092CD
:10128000C3011092C2011092C1011092C0013EC070
:1012900082179307DCF59091C7018091C9019813DB
:1012A00035C0E091C001F091C1010091C2011091DF
:1012B000C301E11572E0F7071CF5C80168E070E0B2
:1012C0000E944D1D811103C0F092E90219C04091A6
:1012D000E90250E08150DA0102C0B595A7958A95E0
:1012E000E2F7A0FF02C080E801C080E0DF01A65164
:1012F000BD4F8F298C933196F093C101E093C001CB
:101300000F5F1F4F1093C3010093C201C9010196E3
:101310009093C6018093C501CE5BDF4F0FB6F89462
:10132000DEBF0FBECDBFDF91CF911F910F91FF9018
:10133000EF90DF90CF90BF90AF909F908F900895E7
:1013400080915701909158019C012F5F3F4F30933E
:101350005801209357010C94A1104091F80450912A
:10136000F9042091F6043091F70442175307B4F4BE
:101370009091E8009570E1F39091E80092FD19C01A
:101380008093F1008091F8049091F90401968F7395
:101390009927892B19F48EEF8093E8008091F80447
:1013A0009091F90401969093F9048093F80481E0F8
:1013B000089580E00895DF92EF92FF920F931F93BC
:1013C000CF93DF93D82EF92EE42E062F10E0C8011C
:1013D0000196880F0E94AD0983E00E94AD09CD2DD2
:1013E000DF2D0C0F1D1FC017D10789F0E7FE03C0CA
:1013F000FE01849101C088810E94AD09F82E80E031
:101400000E94AD098F2121968111EDCF01C081E0AD
:10141000DF91CF911F910F91FF90EF90DF90089592
:10142000DF92EF92FF920F931F93CF93DF93D82E0B
:101430008A017B01E40EF51EEB01CE15DF0571F08C
:10144000D7FE03C0FE01849101C088810E94AD09CE
:1014500021968111F2CF8FEF9FEF01C0C801DF917C
:10146000CF911F910F91FF90EF90DF900895615001
:1014700030F02091F100FC0120830196F8CF2898EC
:1014800084E68093FB040895CF92DF92EF92FF925F
:101490000F931F93CF93DF936C017A018B01C0E010
:1014A000D0E0CE15DF0581F0D8016D918D01D60118
:1014B000ED91FC910190F081E02DC6010995892BF9
:1014C00011F02196EECF7E01C701DF91CF911F91E0
:1014D0000F91FF90EF90DF90CF900895089580E0F6
:1014E00090E00895FC01538D448D252F30E0842F2A
:1014F00090E0821B930B541710F0CF96089501973C
:101500000895FC01918D828D981761F0828DDF0125
:10151000A80FB11D5D968C91928D9F5F9F73928FE6
:1015200090E008958FEF9FEF0895FC01918D828DDB
:10153000981731F0828DE80FF11D858D90E00895A8
:101540008FEF9FEF0895FC01918D228D892F90E000
:10155000805C9F4F821B91098F73992708958DE2BC
:1015600095E00E94A30A21E0892B09F420E0822F54
:101570000895FC01848DDF01A80FB11DA35ABF4F50
:101580002C91848D90E001968F739927848FA68982
:10159000B7892C93A089B1898C9182748C93938D97
:1015A000848D981306C00288F389E02D80818F7D99
:1015B00080830895EF92FF920F931F93CF93DF9351
:1015C000EC0181E0888F9B8D8C8D981305C0E88994
:1015D000F989808185FD26C0F62E0B8D10E00F5F06
:1015E0001F4F0F731127E02E8C8DE8120CC00FB621
:1015F00007FCFACFE889F989808185FFF5CFCE0114
:101600000E94B90AF1CF8B8DFE01E80FF11DE35A5C
:10161000FF4FF0829FB7F8940B8FEA89FB89808196
:10162000806209C09FB7F894EE89FF896083E889DA
:10163000F9898081827480839FBF81E090E0DF918F
:10164000CF911F910F91FF90EF900895CF93DF936B
:10165000EC01888D8823C9F0EA89FB89808185FDAA
:1016600005C0A889B9898C9186FD0FC00FB607FC0B
:10167000F5CF808185FFF2CFA889B9898C9185FF4C
:10168000EDCFCE010E94B90AE7CFDF91CF91089547
:1016900080E090E0892B29F00E94AF0A81110C9420
:1016A0000000089580E090E0089580E00895CF92D2
:1016B000DF92EF92FF920F931F93CF93DF93CDB7FB
:1016C000DEB7C456D1090FB6F894DEBF0FBECDBF4A
:1016D0006C01DB019C919E5F9C93FE01319684E638
:1016E000DF011D928A95E9F788E089838BE08A8380
:1016F00022E02C8391E09D839E8339E0398774E05A
:101700007A879E879F873A8B44E24B8B9C8B00E0C5
:1017100011E01E8B0D8B89E0E82EF12CF88EEF8AFC
:10172000998F3B8F7C8F2F8F98A353E059A387E02D
:101730008CA34DA39EA318A70FA301E410E01AA742
:1017400009A786E08BA74CA72DA79EA79FA789ABCB
:101750004AAB2BAB2CAB2DAB3FAB48AF59AF9AAFDD
:101760005BAF9CAF2DAF9EAF21963FAF21972296E6
:101770004FAF229723965FAF239724962FAF2497DE
:1017800025967FAF259726969FAF269727969FAFE2
:10179000279728969FAF28972A963FAF2A9745E02C
:1017A0002B964FAF2B972D962FAF2D9760E470E0BF
:1017B0002F967FAF6EAF2F9763964FAF639785E2FB
:1017C00064968FAF649765969FAF659766969FAF57
:1017D000669767969FAF679768963FAF68976996D9
:1017E0004FAF69976B962FAF6B976D967FAF6EAFCC
:1017F0006D97A1964FAFA197A2968FAFA297A39690
:101800009FAFA397A4969FAFA497A5965FAFA59708
:10181000D60112969C9112979B839B879F5F9A8F0C
:101820009D8F13968C912C968FAF2C978F5F80682D
:101830006A968FAF6A9744E650E0BF0180E00E944D
:10184000100ACC59DF4F0FB6F894DEBF0FBECDBFE4
:10185000DF91CF911F910F91FF90EF90DF90CF908C
:101860000895FC0182818F5BFB01808381E00895F4
:101870000E94162084E0EBE4F1E0DB0101900D9280
:101880008A95E1F784E008958093E9008091F20061
:10189000882319F08AE38093E80008951F920F923D
:1018A0000FB60F9211242F933F934F935F936F9333
:1018B0007F938F939F93AF93BF93CF93EF93FF93B8
:1018C000C091E1008091E100837F8093E100C3FF3C
:1018D0000FC01092E90081E08093EB001092EC00C1
:1018E00082E38093ED001092520188E08093F00033
:1018F000C2FF19C083E00E94440C8091FC0488233D
:1019000039F08091FC0481508093FC04882389F194
:101910008091FB04882339F08091FB0481508093EF
:10192000FB04882341F1C4FF10C08091E2008E7E49
:1019300081608093E2008091E1008F7E8093E100DE
:10194000809150018E7E806111C0C0FF16C08091D1
:10195000E2008E7E80618093E2008091E1008E7EC5
:101960008093E100809150018E7E816080935001D0
:1019700004C05D9ACDCF289AD6CFFF91EF91CF9139
:10198000BF91AF919F918F917F916F915F914F9197
:101990003F912F910F900FBE0F901F9018952FB76A
:1019A000F89487708093E9009091E800892F807205
:1019B00095FF04C09091F20080E4891B2FBF089529
:1019C0007F928F929F92AF92BF92CF92DF92EF92CF
:1019D000FF920F931F93CF93DF93C82E8B017A0151
:1019E00080915201811103C08FEF9FEF74C08091ED
:1019F000500180FF05C08091E00082608093E0008C
:101A0000CE2DDF2DD12C8AEFB82E8C2D8770982EFD
:101A10008C2D8072882E8C2D8074782E9AE3A92EBE
:101A2000209719F4DD2009F451C08C2D0E94CF0CB1
:101A300081110AC0BA94BB20B9F261E070E080E085
:101A400090E00E948112ECCF282F30E0C217D3071C
:101A50000CF48C2F9FB7F8949092E9002091E80045
:101A600025FF32C0282F30E0C21BD30B882029F07D
:101A70008150A0F01092F100FBCFF801C7FE0AC020
:101A8000815050F044914093F1003196F9CF41914B
:101A90004093F1008150D8F7020F131FDD2019F099
:101AA000A092E8000AC08091E80085FD08C0A092DD
:101AB000E800DD24D394209739F0D12C05C020977D
:101AC00019F47110A092E8009FBFAACF5D9884E638
:101AD0008093FC04C701DF91CF911F910F91FF907C
:101AE000EF90DF90CF90BF90AF909F908F907F90BE
:101AF000089590915201992311F057FF03C08FEF81
:101B00009FEF08959FB7F89487708093E900209124
:101B1000F20030E0421753070CF49A01822FFB01C8
:101B200044E6815038F028984093FB045091F1002E
:101B30005193F7CF2115310521F08091F2008823D0
:101B400019F09FBFC90108958BE68093E800F9CF93
:101B50009FB7F89487708093E9008091F2009FBF4F
:101B600008958091EE0481110DC082E08093EA0413
:101B700084E08093EB041092ED041092EC0481E079
:101B80008093EE048AEE94E008950F931F93CF9311
:101B9000DF931F92CDB7DEB782E0898342E450E045
:101BA00068EF70E080E80E94100A0E94B10DDC012D
:101BB00012960D911C9113970115110589F0D8010A
:101BC000ED91FC910280F381E02DBE016F5F7F4FAC
:101BD000C801099597FD04C0F80100851185ECCF77
:101BE00089810F90DF91CF911F910F9108951F92DE
:101BF0000F920FB60F921124CF92DF92EF92FF92C5
:101C00000F931F932F933F934F935F936F937F9304
:101C10008F939F93AF93BF93EF93FF93CF93DF93F4
:101C2000CDB7DEB76C97DEBFCDBF1092E9008091D3
:101C3000E80083FFFBC168E0CE0145960E94370AA9
:101C400082EF8093E8008D8987FF05C09091E800BE
:101C500090FFFCCF03C09EEF9093E800982F907602
:101C600009F0C6C09E894F89588D2F89F88C911133
:101C70000CC0803829F4809151018093F10002C09A
:101C80001092F1001092F10045C1913051F4811190
:101C900041C14130510509F03DC1809151018D7F15
:101CA0000BC0933061F4811135C14130510509F009
:101CB00031C1809151018260809351012BC19530D7
:101CC00049F48091E80080FFFCCF822F80688093E8
:101CD000E30020C1963009F05EC00B8D1C8D22E020
:101CE0001092E9001092F9041092F804F21232C036
:101CF0001092F7041092F6040E94C50D99E0BE01FF
:101D00006F5F7F4FDB01E92F1D92EA95E9F7998319
:101D1000FA8291E09E8390EA98879AEF99872091C2
:101D2000F8043091F904275F3F4F3C832B838D8368
:101D30001092E9001092F9041092F8041093F7043D
:101D40000093F60449E050E080E00E94100A0E94EF
:101D5000C50DE0C01093F7040093F6040E94B10D86
:101D6000DC0112960D911C9113970115110509F4D0
:101D7000BBC0D801ED91FC910480F581E02DBE013E
:101D80006B5E7F4FC8010995009709F0C7C0F80145
:101D900000851185EACF973009F445C1983021F4C8
:101DA00081E08093F100B6C0993009F0B3C0837030
:101DB00009F039C1EFE0F1E081E031E096E3208104
:101DC000211109C08EE78093EA001092EA008F8902
:101DD000809352019FC08093E9003093EB002191E2
:101DE0002093EC009093ED008F5F873041F7EACFAE
:101DF0008B8D9C8D1092E9001092F9041092F804DA
:101E00009093F7048093F604898D811153C08E89D5
:101E10009D89913A49F4813209F005C147E050E0CB
:101E200066E071E080E0BBC0913209F0FCC0833213
:101E300069F48F89988DA0E0B0E0809302019093BF
:101E40000301A0930401B093050164C0803269F4DA
:101E50008091E80082FFFCCF67E086E091E00E947D
:101E6000370A8BEF8093E80055C0823209F052C0E8
:101E70008F8980930D01EEEFFFE7859194918B3F61
:101E80009C4D19F0E0E0F8E002C0EEEFFAE080913E
:101E9000060190910701A0910801B0910901803BD2
:101EA0009440A105B10509F09EC080910D0180FF0D
:101EB00079C099C00E94B10DFC0102811381011506
:101EC000110509F4B0C0D801ED91FC910190F081A9
:101ED000E02DBE016B5E7F4FC801099581111AC0CC
:101EE000F80100851185EBCFF1E0FF1609F44EC033
:101EF000F3E0FF1298C08F89882309F44AC082302A
:101F000089F440E86FE08FE591E00E94DB098823C7
:101F100009F489C08EEF8093E80088C0181619066E
:101F2000CCF381C0813029F440E86EE080E591E097
:101F3000ECCF833009F077C00E94B10DDC0112961E
:101F4000ED90FC9013978E010F5F1F4F6801E11415
:101F5000F10479F0D701ED91FC910680F781E02D35
:101F6000B801C7010995080F111DF701E084F1843C
:101F7000EECFD8011C92F60101900020E9F73197CD
:101F8000BF016C197D0940E0C601BFCF6EE371E06F
:101F900002C06AE371E0FB01449150E080E80E94D6
:101FA000100AB8CFEE3F2AE0F20751F0808191810C
:101FB0008737A7E79A0721F09093FF0A8093FE0ADC
:101FC00087E797E791838083809160008093FA048C
:101FD0009BE088E10FB6F894A895809360000FBE4F
:101FE0009093600097CF808191818737974709F060
:101FF00091CFA89580916000886180936000809166
:10200000FA0480936000EE3FBAE0FB0739F080915C
:10201000FE0A9091FF0A918380837CCF1092FF0A81
:102020001092FE0A77CF81E28093EB006C960FB698
:10203000F894DEBF0FBECDBFDF91CF91FF91EF913E
:10204000BF91AF919F918F917F916F915F914F91D0
:102050003F912F911F910F91FF90EF90DF90CF90C4
:102060000F900FBE0F901F9018951F920F920FB6F2
:102070000F9211242F933F934F935F936F937F930E
:102080008F939F93AF93BF93EF93FF938DE295E070
:102090000E94B90AFF91EF91BF91AF919F918F91EB
:1020A0007F916F915F914F913F912F910F900FBE54
:1020B0000F901F9018951F920F920FB60F92112438
:1020C0002F938F939F93EF93FF93E0913D05F091B2
:1020D0003E058081E0914305F091440582FD12C0E8
:1020E0009081809146058F5F8F73209147058217FD
:1020F00051F0E0914605F0E0E35DFA4F958F809353
:10210000460501C08081FF91EF919F918F912F91A2
:102110000F900FBE0F901F9018951F93CF93DF93D2
:10212000EC01162F0E94231D181739F0612FCE01E4
:10213000DF91CF911F910C942B1DDF91CF911F91B7
:1021400008950C94231DCF93DF931F92CDB7DEB774
:102150006983DC01ED91FC910280F381E02D41E087
:1021600050E0BE016F5F7F4F09950F90DF91CF91D7
:1021700008953FB7F8948091870690918806A091C2
:102180008906B0918A0626B5A89B05C02F3F19F095
:102190000196A11DB11D3FBFBA2FA92F982F8827E7
:1021A000820F911DA11DB11DBC01CD0142E0660F42
:1021B000771F881F991F4A95D1F70895CF93DF9312
:1021C000EC0180910D01882331F083E00E94E00C46
:1021D0001816190634F081E090E09B838A8380E032
:1021E00090E0DF91CF91089583E00C94440C83E05C
:1021F0000E94CF0C90E008950F931F93CF93DF932D
:102200001F92CDB7DEB78C01FC018485958597FFC1
:1022100012C041E050E0BE016F5F7F4F82E00E943C
:10222000790D019719F4898190E002C08FEF9FEF3B
:10223000F80195878487F801848595850F90DF9153
:10224000CF911F910F910895CF93DF931F92CDB738
:10225000DEB7FC018485958597FD05C02FEF3FEF24
:10226000358724870FC041E050E0BE016F5F7F4F8C
:1022700082E00E94790D019719F4898190E002C0F3
:102280008FEF9FEF0F90DF91CF910895FC01848530
:10229000958597FD06C082E00E94A80D90E001960A
:1022A000089582E00E94A80D90E00895DC01ED9170
:1022B000FC910190F081E02D0994EF92FF920F9331
:1022C0001F93CF93DF937C01EA018A01060F171F4A
:1022D0000C171D0761F0D7018D919C916991DC016C
:1022E000ED91FC910190F081E02D0995F1CFDF9106
:1022F000CF911F910F91FF90EF900895EF92FF9271
:102300000F931F93CF93DF93FC01C081CC2309F47B
:1023100046C07C01CF3021F4618170E000E009C04B
:10232000C83070F0FC016181062F0F700F5F607F75
:1023300070E0238142818AEC95E00E94DD0231C089
:10234000C43078F1892B69F1C43019F0D0E02497BA
:1023500002C0C3E0D0E0CE010E94F51E8C01F7015F
:102360008181C130D10561F09281F8018083918330
:10237000C230D10539F0F7018381F801828302C0B0
:10238000F80180830115110561F0A801BE018EEEF0
:1023900095E00E945D11C8010E948D1F02C080E07F
:1023A00001C081E0DF91CF911F910F91FF90EF90DD
:1023B000089590E0FC013197EF30F105B0F5EA594E
:1023C000FF4F0C94611D809180008F7703C0809136
:1023D00080008F7D80938000089580918000877FAA
:1023E000F9CF84B58F7702C084B58F7D84BD089501
:1023F000809190008F7707C0809190008F7D03C0FF
:1024000080919000877F8093900008958091C00014
:102410008F7703C08091C0008F7D8093C0000895A6
:102420008091C200877F8093C20008951F93CF934D
:10243000DF93282F30E0F901E753FE4F8491F90133
:10244000E655FE4FD491F901E557FE4FC491CC23D8
:10245000C1F0162F81110E94D911EC2FF0E0EE0F80
:10246000FF1FE358FE4FA591B4919FB7F894111147
:1024700004C08C91D095D82302C0EC91DE2BDC9364
:102480009FBFDF91CF911F910895CF93DF9390E08D
:10249000FC01E655FE4F2491FC01E557FE4F849167
:1024A000882361F190E0880F991FFC01E159FE4FEC
:1024B000C591D491FC01E358FE4FA591B4916111EF
:1024C00009C09FB7F8948881209582238883EC9176
:1024D0002E230BC0623061F49FB7F8948881322FAD
:1024E000309583238883EC912E2B2C939FBF06C0BD
:1024F0008FB7F894E8812E2B28838FBFDF91CF917F
:1025000008958F929F92AF92BF92CF92DF92EF92F7
:10251000FF926B017C010E94B9104B015C01C11458
:10252000D104E104F104F1F00E94B910DC01CB0107
:1025300088199909AA09BB09883E9340A105B105EC
:1025400070F321E0C21AD108E108F10888EE880E84
:1025500083E0981EA11CB11CC114D104E104F10454
:1025600019F7DDCFFF90EF90DF90CF90BF90AF9045
:102570009F908F9008951F920F920FB60F92112483
:102580002F933F938F939F93AF93BF938091FD04BD
:102590009091FE04A091FF04B09100053091860651
:1025A00023E0230F2D3720F40196A11DB11D05C096
:1025B00026E8230F0296A11DB11D20938606809365
:1025C000FD049093FE04A093FF04B0930005809156
:1025D000870690918806A0918906B0918A06019697
:1025E000A11DB11D8093870690938806A09389064C
:1025F000B0938A06BF91AF919F918F913F912F9198
:102600000F900FBE0F901F901895CF93DF93CDB70B
:10261000DEB72A970FB6F894DEBF0FBECDBF789411
:1026200084B5826084BD84B5816084BD85B58260D7
:1026300085BD85B5816085BD80916E008160809388
:102640006E001092810080918100826080938100F1
:102650008091810081608093810080918000816001
:10266000809380008091910082608093910080919E
:1026700091008160809391008091900081608093AF
:1026800090008091C10084608093C1008091C1005E
:1026900082608093C1008091C10081608093C100FD
:1026A0008091C30081608093C3008091C0008260EC
:1026B0008093C0008091C20081608093C2008091AD
:1026C0007A00846080937A0080917A00826080939F
:1026D0007A0080917A00816080937A0080917A00FC
:1026E000806880937A0010925201109251011092EA
:1026F00050018091D70081608093D70080EA809359
:10270000D80089B5806189BD89B5826089BD09B469
:1027100000FEFDCF61E070E080E090E00E94811259
:102720008091D8008F7C80618093D8008091E000F8
:10273000807F8093E0008091E1008E7E8093E100B5
:102740008DE08093E200559A209A60E971E080E084
:1027500090E00E94811280E090E00E94A1108E31F2
:1027600029F06EE180E090E00E948D10E091EE058E
:10277000F091EF05A089B18982E08C93A485B5859D
:102780001C92A685B7858FE38C93108EA489B5899A
:1027900086E08C93A289B3898C9180618C93A28905
:1027A000B3898C9188608C93A289B3898C9180685D
:1027B0008C930288F389E02D80818F7D8083109235
:1027C000F0051092F2051092F1051092F9051092A1
:1027D000F8051092F7051092F6058FEF9FEF909392
:1027E000FB058093FA059093FD058093FC051092FC
:1027F000840610920106109200061092FF051092B6
:102800000206109203061092FE058BE391E090936E
:10281000D9058093D8058CE68093C90181E0809327
:10282000C4018AE692E0909356018093550189E5B0
:1028300092E090935401809353011092DD0268EC72
:1028400070E080E090E00E94811280E090E00E94C1
:10285000A1108F3F31F08FEF91E00E94A1108F3FC8
:1028600081F401E010E060E0C8010E948D100F5F6C
:102870001F4F011522E01207B1F781E00E94B1035A
:1028800049C182E390E090935801809357013DE065
:10289000E32E35E0F32E87010E94A009D80112969D
:1028A0008C93B4E08B9FC00111240E94F51EF801A7
:1028B000948383830A5F1F4FF5E005321F0761F79A
:1028C0000DE015E00E94A009D8018C930A5F1F4F0C
:1028D000B5E005321B07B1F70DE015E00E94A00935
:1028E000F80181830A5F1F4FF5E005321F07B1F73A
:1028F000D7011296CC90129713960D911C911497B4
:10290000D12CCD14B1F00E94A009F80180830E945F
:10291000A009D80111968C930E94A009F801828326
:102920000E94A009D80113968C93D3940C5F1F4F7B
:10293000E8CFF7011582F6E0EF0EF11C25E2E21672
:1029400025E0F206A9F684E190E090935801809387
:1029500057015AE5C52E51E0D52E8601F12CBB2436
:10296000B39465E1A62EEE24EA947EE0972EE7E08C
:102970008E2EF4E17F2EA3E16A2EB0E15B2E88E07B
:10298000482E9AE0392E29E0222E0E94A009D80173
:102990008C930E94A009F8018183F6820E94A0090D
:1029A000D80112968C930E94A009F80183830E949B
:1029B000A009D80114968C9381E08F1508F480E06B
:1029C000F80185838281382F3170378381FB22277C
:1029D00020F92087482F4C7150E055954795559523
:1029E00047954187807690E045E0959587954A9593
:1029F000E1F78487158616861786108A332321F01F
:102A00008B2D822781708787F3E0FF1609F1FF1570
:102A100038F021E0F21689F032E0F31691F006C0AA
:102A200084E0F816C1F095E0F916E1F0D8011A96A5
:102A30009C921A971B968C9218C0F8015286438676
:102A400014C0D8011A963C921A971B962C920DC06E
:102A5000F801A28609C0D8011A967C921A971B9693
:102A6000EC9203C0F8016286E386F3940F5E1F4F79
:102A7000F6E0FF128ACF8FE090E00E94A110182F9D
:102A800083708093DC0261E084E00E944512812F14
:102A9000817010FF05C01092D8028093DA0205C041
:102AA00081E08093D8021092DA026091D80260939C
:102AB000DB026093D90284E00E94161212FB882781
:102AC00080F98093010113FB112710F91093000185
:102AD00068EC70E080E090E00E948112D6011596CB
:102AE0008C911597882361F062E01A968C910E9470
:102AF0004512F60183858F3F19F061E00E9445126F
:102B0000F1E1CF0ED11C20ECC21621E0D20631F744
:102B10000E942D0481E08093DD02CC24C394D12C4B
:102B2000A0E8AA2EB12C1091DD02112309F439C3BB
:102B3000EAE5EE2EE1E0FE2E88248394D701159677
:102B40008C911597882309F4A5C01C960C911C97AD
:102B50000111A0C01A962C9130E0F901E753FE4F05
:102B60008491F901E655FE4F9490F901E557FE4F27
:102B70007490772079F081110E94D911E72DF0E04F
:102B8000EE0FFF1FE651FF4FA591B491EC91E921A3
:102B900081E009F480E08170982EF7018585981610
:102BA00099F02FB7F8948091FD049091FE04A091C4
:102BB000FF04B09100052FBF8093CB019093CC010F
:102BC000A093CD01B093CE012FB7F8948091FD046E
:102BD0009091FE04A091FF04B09100052FBF409199
:102BE000CB015091CC016091CD017091CE01841B3D
:102BF000950BA60BB70BC397A105B10508F448C008
:102C0000D7011E968C911E97981609F441C01E9606
:102C10009C921E9717968C91179781111CC018963D
:102C20004C91442319F0413051F032C0792C782472
:102C3000911001C04FE7F701618180811AC09110A6
:102C40000FE7402FD70111966C9111978C910E943C
:102C5000EE05792C10C09920D9F0F70177847824FB
:102C6000778671100FE7402FD70111966C9111975D
:102C70008C910E94EE05672DD7011B968C910E94C6
:102C80001612F701708A8091590181110E942D045A
:102C9000F7019586F1E1EF0EF11C20ECE21621E040
:102CA000F20609F04BCF1A865524539453E0852E33
:102CB000912C60EF262E3090F00580E1831508F40A
:102CC000FEC18091EE059091EF05DC01ED91FC9144
:102CD0000084F185E02D0995892B09F4F0C18091DC
:102CE000EE059091EF05DC01ED91FC910284F385F6
:102CF000E02D09957C018B7F893F09F4E0C180912B
:102D0000F8059091F905009709F0BAC02091850661
:102D100020FDB6C0E092F3050091F105802F0E94DE
:102D2000B7020E94C902882351F0E7FC08C0009353
:102D3000F305E092F405D092F905C092F8050091F0
:102D4000F305802F0E94B702813F910509F462C00C
:102D500090F5803B910509F464C068F480399105D1
:102D600009F45FC0803A910509F45BC08038910591
:102D700009F0EBC056C0803D910509F44BC028F422
:102D8000803C910509F446C0E0C0803E910509F4FD
:102D900048C0803F910509F0D8C0B092F705A092D5
:102DA000F6051092F1052092040620918506216017
:102DB000209385063AC0883F9105B9F040F4833FDF
:102DC000910541F170F1863F910579F0BEC08A3FCF
:102DD000910508F4BAC08D3F910538F09C012E5F33
:102DE00031092230310508F0B0C09093010680937C
:102DF00000061092FF0510920206109203065092F0
:102E000084061092F9051092F8051092F7051092B9
:102E1000F6052DC1E2E0F0E0F093F705E093F6054A
:102E200004C09092F7058092F6052091F805309144
:102E3000F9054091F6055091F705415051092417C5
:102E40003507B8F090930106809300060F700F5F6E
:102E50000093FF058091F40580930206109203060B
:102E60001092F9051092F8051092F7051092F605E8
:102E70002AC02F5F3F4F3093F9052093F8051FC1FB
:102E8000E7FE6EC0970133272D3F31055CF42A3FE2
:102E900031057CF4273F3105C9F0283F310509F0A1
:102EA0005FC007C0A9014E5F51094230510508F0CB
:102EB00057C030930106209300061092020610922C
:102EC00003061092FF0550928406D1C0309104068B
:102ED00020918506303F11F020FF37C0BC016F5FA5
:102EE0007F4F7093F9056093F805FC01E653FA4FA4
:102EF00037EF32AF80EF90E09093010680930006A9
:102F000020FF09C0E091D805F091D905309719F05C
:102F100084E096E009959091F8058091F9059093E9
:102F20000206809303061092FF055092840680915A
:102F300085068E7F809385061092F9051092F8051C
:102F40001092F7051092F60589C01092F9051092BB
:102F5000F8051092F7051092F6051092F105AFC032
:102F60002091F305FC01E653FA4F203F21F0209118
:102F7000850620FF02C0E2AE01C0E1A66090F60522
:102F80007090F7059301215031098217930708F4D7
:102F900068C00091F305003F21F08091850680FF15
:102FA00010C0E091D805F091D905309729F060E87C
:102FB00070E084E096E009951092F9051092F8050A
:102FC0007EC0802F0E94B7027C01909301068093FF
:102FD00000060E94C902882331F0802F8F708F5F16
:102FE0008093FF0502C01092FF058091F405809345
:102FF000020693E06916710419F48091F50501C089
:1030000080E0809303061092F9051092F805109263
:10301000F7051092F60550928406A0EBEA16F1042B
:10302000D1F068F4E0E9EE16F104A9F0F0EAEF1649
:10303000F10489F020E8E216F10481F40CC030EDCF
:10304000E316F10441F080EEE816F10421F090EC73
:10305000E916F10419F40093F10509C01092F10585
:1030600006C001969093F9058093F80528C08091D9
:103070000006909101068039910529F4809103069C
:10308000882309F44CC280910006909101069C01AE
:10309000205831092136310508F046C22091FF053C
:1030A000321609F441C2332009F43EC2712C8091DA
:1030B000FE05982F917080FD5AC1711017C210E063
:1030C00001E08091CF029091D002A091D102B09105
:1030D000D2024091D3025091D4026091D5027091F6
:1030E000D602841B950BA60BB70B8F739927AA27C3
:1030F000BB27892B8A2B8B2B09F456C08091D302D6
:103100009091D402A091D502B091D602880F991F58
:10311000880F991FFC01E153FE4F9080F180E280FF
:1031200083804091CF025091D0026091D102709182
:10313000D2028091D3029091D402A091D502B09195
:10314000D602481759076A077B07B9F08091D30266
:103150009091D402A091D502B091D6020196A11D02
:10316000B11D8F739927AA27BB278093D302909311
:10317000D402A093D502B093D6029E82FF82E88645
:103180008986911079C08E8181119BCF9A8591118A
:10319000A9C01111A7C08091DC028250823008F0D2
:1031A000A6C00E94480BBFCC809104050E94A80DC8
:1031B000882309F45CC08091CF029091D002A09145
:1031C000D102B091D2020196A11DB11D2C013D0189
:1031D000EFE34E225524662477248091D302909108
:1031E000D402A091D502B091D60284159505A6050A
:1031F000B70509F483CF809104050E94A80D44E02F
:1032000050E0BE016F5F7F4F809104050E94790DF1
:1032100004970CF473CF8091CF029091D002A091CB
:10322000D102B091D202880F991F880F991FFC011B
:10323000E153FE4F49815A816B817C8140835183E8
:10324000628373834092CF025092D0026092D10287
:103250007092D202D301C2010196A11DB11D2C01B1
:103260003D01FFE34F22552466247724B6CF812CFD
:10327000E12CF12C912C55CF8091CA01811104C011
:1032800020EFF21262C203C030EFF31209C00093C4
:10329000CA011092C701D092C601C092C50103C0F5
:1032A0008F2D0E94A5068E2D0E94A506882D0E94B6
:1032B000A5069091D7028091C901981761F08F2DD2
:1032C0000E947F028FE0981631F08E2D0E947F02BF
:1032D000882D0E947F028091CA0181113AC210920A
:1032E000D70237C28091DA028093DB0254CF8FB7C6
:1032F000F8944091FD045091FE046091FF04709198
:1033000000058FBF0091290510912A0520912B05FA
:1033100030912C05011511052105310549F4409323
:10332000250550932605609327057093280513C241
:103330008091250590912605A0912705B09128053B
:10334000481B590B6A0B7B0B401751076207730729
:1033500008F427CF800F911FA21FB31F809325056C
:1033600090932605A0932705B0932805F4C1282F34
:103370002E7F09F4A2CE60910006709101069B0198
:103380002058310921363105F8F40091FF05301637
:1033900019F091E0311090E08695823031F0833061
:1033A00041F0813009F089CE06C0992309F485CE19
:1033B00002C0911182CE20910306409102068AEC50
:1033C00095E00E94DD0279CEFB01E05FF109E0317A
:1033D000F10508F072CEEA5AFF4F0C94611D8EEE93
:1033E00095E00E949C0269CE6091020670910306EE
:1033F0006138710510F060E870E044E056E08EEE50
:1034000095E00E945D1159CE009102068091EE0573
:103410009091EF05DC01ED91FC910190F081E02DA0
:1034200063EF09950F77602F70E08091EE05909122
:10343000EF050E94561141CEE0900306B0E8EB9EE6
:103440007001112480910206E82A8091EE05909186
:10345000EF05DC01ED91FC910190F081E02D62EF30
:1034600009958091EE059091EF05B7016F77772769
:10347000DC01ED91FC910190F081E02D09958091A6
:10348000EE059091EF05B701660F672F661F770B6A
:1034900071956F777727DC01ED91FC910190F081B8
:1034A000E02D22C0809102068770B0E18B9FC001A1
:1034B0001124009103060F70082B8091EE05909166
:1034C000EF05DC01ED91FC910190F081E02D61EFC1
:1034D00009958091EE059091EF05DC01ED91FC914D
:1034E0000190F081E02D602F0995E7CD80910006D5
:1034F000909101069A8389838091FF058B83809147
:1035000002068C83809103068D83CE0101960E9472
:10351000C504882309F4CFCB31E03A87CCCBB092F5
:103520000106A0920006AFCD813F9105B1F5E09173
:10353000DA05F091DB050CC08B3F910508F0E4C083
:10354000833F910509F0C1C0E091DE05F091DF05F0
:10355000309709F18091020609951DC0813D9105C2
:1035600008F475C0803E910509F081C0E091D60550
:10357000F091D705309779F0609103066F77A0E856
:103580006A9FB0011124809102068F77682B7052D8
:103590008091FF050995712E8ACD823F910508F033
:1035A0007EC0803B910529F4E091D005F091D105D2
:1035B0000BC0813B910508F041C08038910571F442
:1035C000E091CA05F091CB05309729F340910306AD
:1035D000609102068091FF050995DDCF8138910544
:1035E000E8F4892BC1F28091850680FB772470F87E
:1035F00080FFD1CFE091D805F091D905309709F43B
:1036000056CD60910206709103066138710510F085
:1036100060E870E084E096E0099549CD8039910535
:1036200029F4E091CC05F091CD05CECF803A9105FB
:10363000D1F6E091CE05F091CF05C6CF803D910542
:1036400009F08CCFE091D405F091D50507C0803CFE
:10365000910549F6E091D205F091D305309709F430
:103660009ACF609102068091FF05099594CF803F23
:10367000910509F0B8CFE091D805F091D9053097C0
:1036800009F489CF609102067091030661387105D3
:1036900010F060E870E084E096E009957CCF8A3F06
:1036A000910509F049CFE091E405F091E50508C0E6
:1036B000883F910509F097CFE091E205F091E3058D
:1036C000309709F468CF099566CF833F9105A0F440
:1036D000E091DC05F091DD05309709F45CCF809135
:1036E00003068F77B0E88B9FC0011124209102065A
:1036F0002F77822B09954FCF863F9105C9F6E09130
:10370000E005F091E105DCCF8C3F910529F4E091D3
:10371000E805F091E905D4CF8C3F910528F4E091BC
:10372000E605F091E705CCCF8E3F910529F4E091B5
:10373000EA05F091EB05C4CF8F3F910509F053CF17
:10374000E091EC05F091ED05BBCFCE0106960E940D
:103750007E1111E018CD1091DB028091DA0218136E
:103760000FC00091D8028091D902801306C0612F4A
:1037700084E00E9416121093D9020093DB0211CD4F
:103780009091D90289130DCD1091D802612F84E058
:103790000E9416121093D90204CD10928E06109238
:1037A0008D0688EE93E0A0E0B0E080938F069093C2
:1037B0009006A0939106B09392062FE131E03093EA
:1037C0008C0620938B062FEF3FEF309398062093C3
:1037D00097061092300510922F0580933105909333
:1037E0003205A0933305B093340581E391E09093C3
:1037F0002E0580932D058DEC90E090933A058093F3
:1038000039058CEC90E090933C0580933B0588EC67
:1038100090E090933E0580933D0589EC90E0909375
:10382000400580933F058AEC90E090934205809399
:1038300041058EEC90E090934405809343051092EF
:10384000460510924705109248051092490582E0FE
:1038500080930505809306058BE095E0909308051D
:103860008093070510920A051092090583E491E000
:10387000909302058093010580E880930B0581E811
:1038800080930C050E94B10DFC01218180910505FA
:1038900090E0820F911D0897C4F5A281B381109723
:1038A00029F481E095E0938382830EC018968D9170
:1038B0009C911997009711F0DC01F8CF81E095E019
:1038C00019969C938E93189780818093030581812C
:1038D00080930405908180910605890F808380E0A4
:1038E00090910505891788F4A0910705B091080506
:1038F000A80FB11D9C91A181B0E0A25FBE4F9C9327
:1039000091819F5F91838F5FEBCF10921105109291
:103910001005109217051092160510921D051092B1
:103920001C05109223051092220589E190E0A0E089
:10393000B0E08093290590932A05A0932B05B093BE
:103940002C058DE295E09093EF058093EE051092A3
:10395000F0051092F1051092F2051092F705109201
:10396000F6051092F9051092F8058FEF9FEF9093EE
:10397000FB058093FA059093FD058093FC0583E099
:103980008093FE051092FF0510920106109200062A
:1039900010920206109203061092840680E8E4E07A
:1039A000F6E0DF011D928A95E9F7809185068E7F0A
:1039B000809385061092CB051092CA051092CD0512
:1039C0001092CC051092CF051092CE051092D10521
:1039D0001092D0051092D3051092D2051092D50501
:1039E0001092D4051092D7051092D6051092D905E1
:1039F0001092D8051092DB051092DA051092DD05C1
:103A00001092DC051092DF051092DE051092E105A0
:103A10001092E0051092E3051092E2051092E50580
:103A20001092E4051092E7051092E6051092E90560
:103A30001092E8051092EB051092EA051092ED0540
:103A40001092EC050895F999FECF92BD81BDF89AC8
:103A5000992780B50895262FF999FECF1FBA92BDF8
:103A600081BD20BD0FB6F894FA9AF99A0FBE01965F
:103A70000895AA1BBB1B51E107C0AA1FBB1FA617B5
:103A8000B70710F0A61BB70B881F991F5A95A9F707
:103A900080959095BC01CD01089597FB072E16F4F3
:103AA000009407D077FD09D00E94391D07FC05D08E
:103AB0003EF4909581959F4F0895709561957F4F45
:103AC0000895EE0FFF1F0590F491E02D09940E94D8
:103AD000D61E90F09F3748F4911116F40C94EF1E07
:103AE00060E070E080E89FE3089526F01B16611DFA
:103AF000711D811D0C94691E0C94841E0E94921DE0
:103B00000C94A31E0E949C1E58F00E94951E40F02B
:103B100029F45F3F29F00C94631E51110C94EF1EA1
:103B20000C94921E0E94B41E68F39923B1F355239E
:103B300091F3951B550BBB27AA27621773078407C0
:103B400038F09F5F5F4F220F331F441FAA1FA9F356
:103B500035D00E2E3AF0E0E832D091505040E69544
:103B6000001CCAF72BD0FE2F29D0660F771F881FA5
:103B7000BB1F261737074807AB07B0E809F0BB0B98
:103B8000802DBF01FF2793585F4F3AF09E3F5105AC
:103B900078F00C94631E0C94EF1E5F3FE4F3983EA4
:103BA000D4F3869577956795B795F7959F5FC9F795
:103BB000880F911D9695879597F90895E1E0660F16
:103BC000771F881FBB1F621773078407BA0720F08F
:103BD000621B730B840BBA0BEE1F88F7E0950895F8
:103BE0000E94F71D6894B1110C94EF1E08950E9475
:103BF000BC1E88F09F5798F0B92F9927B751B0F0A5
:103C0000E1F0660F771F881F991F1AF0BA95C9F760
:103C100014C0B13091F00E94EE1EB1E008950C94F2
:103C2000EE1E672F782F8827B85F39F0B93FCCF3A5
:103C3000869577956795B395D9F73EF490958095DD
:103C4000709561957F4F8F4F9F4F0895E89409C0FD
:103C500097FB3EF490958095709561957F4F8F4FBF
:103C60009F4F9923A9F0F92F96E9BB279395F695D5
:103C7000879577956795B795F111F8CFFAF4BB0F53
:103C800011F460FF1BC06F5F7F4F8F4F9F4F16C0B7
:103C9000882311F096E911C0772321F09EE8872F41
:103CA000762F05C0662371F096E8862F70E060E0FD
:103CB0002AF09A95660F771F881FDAF7880F969576
:103CC000879597F9089597F99F6780E870E060E01D
:103CD0000895882371F4772321F09850872B762F4D
:103CE00007C0662311F499270DC09051862B70E010
:103CF00060E02AF09A95660F771F881FDAF7880F21
:103D00009695879597F908959F3F31F0915020F44B
:103D1000879577956795B795880F911D96958795A7
:103D200097F908959FEF80EC089500240A941616E1
:103D3000170618060906089500240A941216130699
:103D4000140605060895092E0394000C11F4882327
:103D500052F0BB0F40F4BF2B11F460FF04C06F5F43
:103D60007F4F8F4F9F4F089557FD9058440F551F19
:103D700059F05F3F71F04795880F97FB991F61F0ED
:103D80009F3F79F087950895121613061406551F64
:103D9000F2CF4695F1DF08C0161617061806991FD0
:103DA000F1CF869571056105089408950E94BC1EA7
:103DB000A0F0BEE7B91788F4BB279F3860F4161649
:103DC000B11D672F782F8827985FF7CF8695779555
:103DD0006795B11D93959639C8F30895E894BB276C
:103DE00066277727CB0197F908950F931F93CF93F9
:103DF000DF938230910510F482E090E0E091DD06DF
:103E0000F091DE0620E030E0A0E0B0E0309719F15C
:103E1000408151810281138148175907C8F08417E6
:103E2000950769F4109731F012960C931297139638
:103E30001C9327C00093DD061093DE0622C02115D7
:103E4000310519F04217530718F49A01BD01EF012B
:103E5000DF01F801DBCF21153105F9F0281B390B03
:103E60002430310580F48A819B816115710521F030
:103E7000FB019383828304C09093DE068093DD066A
:103E8000FE01329644C0FE01E20FF31F819391932D
:103E900022503109398328833AC02091DB063091C2
:103EA000DC06232B41F42091170130911801309347
:103EB000DC062093DB0620911501309116012115B7
:103EC000310541F42DB73EB74091190150911A01C7
:103ED000241B350BE091DB06F091DC06E217F307BB
:103EE000A0F42E1B3F0B2817390778F0AC014E5F6A
:103EF0005F4F2417350748F04E0F5F1F5093DC06C5
:103F00004093DB068193919302C0E0E0F0E0CF01A3
:103F1000DF91CF911F910F910895CF93DF93009779
:103F200009F481C0FC01329713821282A091DD0650
:103F3000B091DE06109781F420813181820F931FAA
:103F40002091DB063091DC062817390751F5F093F4
:103F5000DC06E093DB0667C0ED0120E030E0CE1721
:103F6000DF0740F44A815B819E0141155105F1F064
:103F7000EA01F5CFD383C28340815181840F951F1D
:103F8000C817D90759F488819981840F951F029623
:103F9000918380838A819B8193838283211531055C
:103FA00029F4F093DE06E093DD063DC0E901FB83D2
:103FB000EA8349915991C40FD51FEC17FD0761F4AD
:103FC00080819181840F951F0296E90199838883EE
:103FD000828193819B838A83E0E0F0E012968D9149
:103FE0009C911397009719F0FD01DC01F7CF8D919B
:103FF0009C9111979D012E5F3F4F820F931F20913F
:10400000DB063091DC062817390769F4309729F46C
:104010001092DE061092DD0602C013821282B09367
:10402000DC06A093DB06DF91CF91089581E090E05C
:10403000F8940C942420FB01DC0102C001900D9245
:0C40400041505040D8F70895F894FFCF8D
:10404C000101FFFFFFFF00E100000000000000C1C4
:10405C0080810000000000DF06200000000000A3AB
:10406C0010DE10F710F41046112411FC10000000A3
:10407C0000DA0A440A720A260BA30A810A950A007E
:10408C00000000550B570B520B3A0C4D494449009C
:00000001FF
